{
  "contractName": "LeafNft",
  "abi": [
    {
      "inputs": [
        {
          "internalType": "string",
          "name": "_name",
          "type": "string"
        },
        {
          "internalType": "string",
          "name": "_symbol",
          "type": "string"
        },
        {
          "internalType": "string",
          "name": "_initBaseURI",
          "type": "string"
        }
      ],
      "stateMutability": "nonpayable",
      "type": "constructor"
    },
    {
      "anonymous": false,
      "inputs": [
        {
          "indexed": true,
          "internalType": "address",
          "name": "owner",
          "type": "address"
        },
        {
          "indexed": true,
          "internalType": "address",
          "name": "approved",
          "type": "address"
        },
        {
          "indexed": true,
          "internalType": "uint256",
          "name": "tokenId",
          "type": "uint256"
        }
      ],
      "name": "Approval",
      "type": "event"
    },
    {
      "anonymous": false,
      "inputs": [
        {
          "indexed": true,
          "internalType": "address",
          "name": "owner",
          "type": "address"
        },
        {
          "indexed": true,
          "internalType": "address",
          "name": "operator",
          "type": "address"
        },
        {
          "indexed": false,
          "internalType": "bool",
          "name": "approved",
          "type": "bool"
        }
      ],
      "name": "ApprovalForAll",
      "type": "event"
    },
    {
      "anonymous": false,
      "inputs": [
        {
          "indexed": true,
          "internalType": "address",
          "name": "previousOwner",
          "type": "address"
        },
        {
          "indexed": true,
          "internalType": "address",
          "name": "newOwner",
          "type": "address"
        }
      ],
      "name": "OwnershipTransferred",
      "type": "event"
    },
    {
      "anonymous": false,
      "inputs": [
        {
          "indexed": true,
          "internalType": "address",
          "name": "from",
          "type": "address"
        },
        {
          "indexed": true,
          "internalType": "address",
          "name": "to",
          "type": "address"
        },
        {
          "indexed": true,
          "internalType": "uint256",
          "name": "tokenId",
          "type": "uint256"
        }
      ],
      "name": "Transfer",
      "type": "event"
    },
    {
      "inputs": [
        {
          "internalType": "address",
          "name": "to",
          "type": "address"
        },
        {
          "internalType": "uint256",
          "name": "tokenId",
          "type": "uint256"
        }
      ],
      "name": "approve",
      "outputs": [],
      "stateMutability": "nonpayable",
      "type": "function"
    },
    {
      "inputs": [
        {
          "internalType": "address",
          "name": "owner",
          "type": "address"
        }
      ],
      "name": "balanceOf",
      "outputs": [
        {
          "internalType": "uint256",
          "name": "",
          "type": "uint256"
        }
      ],
      "stateMutability": "view",
      "type": "function",
      "constant": true
    },
    {
      "inputs": [
        {
          "internalType": "uint256",
          "name": "tokenId",
          "type": "uint256"
        }
      ],
      "name": "getApproved",
      "outputs": [
        {
          "internalType": "address",
          "name": "",
          "type": "address"
        }
      ],
      "stateMutability": "view",
      "type": "function",
      "constant": true
    },
    {
      "inputs": [
        {
          "internalType": "address",
          "name": "owner",
          "type": "address"
        },
        {
          "internalType": "address",
          "name": "operator",
          "type": "address"
        }
      ],
      "name": "isApprovedForAll",
      "outputs": [
        {
          "internalType": "bool",
          "name": "",
          "type": "bool"
        }
      ],
      "stateMutability": "view",
      "type": "function",
      "constant": true
    },
    {
      "inputs": [],
      "name": "name",
      "outputs": [
        {
          "internalType": "string",
          "name": "",
          "type": "string"
        }
      ],
      "stateMutability": "view",
      "type": "function",
      "constant": true
    },
    {
      "inputs": [],
      "name": "owner",
      "outputs": [
        {
          "internalType": "address",
          "name": "",
          "type": "address"
        }
      ],
      "stateMutability": "view",
      "type": "function",
      "constant": true
    },
    {
      "inputs": [
        {
          "internalType": "uint256",
          "name": "tokenId",
          "type": "uint256"
        }
      ],
      "name": "ownerOf",
      "outputs": [
        {
          "internalType": "address",
          "name": "",
          "type": "address"
        }
      ],
      "stateMutability": "view",
      "type": "function",
      "constant": true
    },
    {
      "inputs": [],
      "name": "renounceOwnership",
      "outputs": [],
      "stateMutability": "nonpayable",
      "type": "function"
    },
    {
      "inputs": [
        {
          "internalType": "address",
          "name": "from",
          "type": "address"
        },
        {
          "internalType": "address",
          "name": "to",
          "type": "address"
        },
        {
          "internalType": "uint256",
          "name": "tokenId",
          "type": "uint256"
        }
      ],
      "name": "safeTransferFrom",
      "outputs": [],
      "stateMutability": "nonpayable",
      "type": "function"
    },
    {
      "inputs": [
        {
          "internalType": "address",
          "name": "from",
          "type": "address"
        },
        {
          "internalType": "address",
          "name": "to",
          "type": "address"
        },
        {
          "internalType": "uint256",
          "name": "tokenId",
          "type": "uint256"
        },
        {
          "internalType": "bytes",
          "name": "_data",
          "type": "bytes"
        }
      ],
      "name": "safeTransferFrom",
      "outputs": [],
      "stateMutability": "nonpayable",
      "type": "function"
    },
    {
      "inputs": [
        {
          "internalType": "address",
          "name": "operator",
          "type": "address"
        },
        {
          "internalType": "bool",
          "name": "approved",
          "type": "bool"
        }
      ],
      "name": "setApprovalForAll",
      "outputs": [],
      "stateMutability": "nonpayable",
      "type": "function"
    },
    {
      "inputs": [
        {
          "internalType": "bytes4",
          "name": "interfaceId",
          "type": "bytes4"
        }
      ],
      "name": "supportsInterface",
      "outputs": [
        {
          "internalType": "bool",
          "name": "",
          "type": "bool"
        }
      ],
      "stateMutability": "view",
      "type": "function",
      "constant": true
    },
    {
      "inputs": [],
      "name": "symbol",
      "outputs": [
        {
          "internalType": "string",
          "name": "",
          "type": "string"
        }
      ],
      "stateMutability": "view",
      "type": "function",
      "constant": true
    },
    {
      "inputs": [
        {
          "internalType": "uint256",
          "name": "index",
          "type": "uint256"
        }
      ],
      "name": "tokenByIndex",
      "outputs": [
        {
          "internalType": "uint256",
          "name": "",
          "type": "uint256"
        }
      ],
      "stateMutability": "view",
      "type": "function",
      "constant": true
    },
    {
      "inputs": [
        {
          "internalType": "address",
          "name": "owner",
          "type": "address"
        },
        {
          "internalType": "uint256",
          "name": "index",
          "type": "uint256"
        }
      ],
      "name": "tokenOfOwnerByIndex",
      "outputs": [
        {
          "internalType": "uint256",
          "name": "",
          "type": "uint256"
        }
      ],
      "stateMutability": "view",
      "type": "function",
      "constant": true
    },
    {
      "inputs": [
        {
          "internalType": "uint256",
          "name": "tokenId",
          "type": "uint256"
        }
      ],
      "name": "tokenURI",
      "outputs": [
        {
          "internalType": "string",
          "name": "",
          "type": "string"
        }
      ],
      "stateMutability": "view",
      "type": "function",
      "constant": true
    },
    {
      "inputs": [],
      "name": "totalSupply",
      "outputs": [
        {
          "internalType": "uint256",
          "name": "",
          "type": "uint256"
        }
      ],
      "stateMutability": "view",
      "type": "function",
      "constant": true
    },
    {
      "inputs": [
        {
          "internalType": "address",
          "name": "from",
          "type": "address"
        },
        {
          "internalType": "address",
          "name": "to",
          "type": "address"
        },
        {
          "internalType": "uint256",
          "name": "tokenId",
          "type": "uint256"
        }
      ],
      "name": "transferFrom",
      "outputs": [],
      "stateMutability": "nonpayable",
      "type": "function"
    },
    {
      "inputs": [
        {
          "internalType": "address",
          "name": "newOwner",
          "type": "address"
        }
      ],
      "name": "transferOwnership",
      "outputs": [],
      "stateMutability": "nonpayable",
      "type": "function"
    },
    {
      "inputs": [
        {
          "internalType": "address",
          "name": "_to",
          "type": "address"
        }
      ],
      "name": "firstMint",
      "outputs": [
        {
          "internalType": "string",
          "name": "",
          "type": "string"
        }
      ],
      "stateMutability": "nonpayable",
      "type": "function"
    },
    {
      "inputs": [
        {
          "internalType": "address",
          "name": "_to",
          "type": "address"
        },
        {
          "internalType": "uint256",
          "name": "_level",
          "type": "uint256"
        }
      ],
      "name": "nextMint",
      "outputs": [
        {
          "internalType": "string",
          "name": "",
          "type": "string"
        }
      ],
      "stateMutability": "nonpayable",
      "type": "function"
    },
    {
      "inputs": [
        {
          "internalType": "uint256",
          "name": "_nbNft",
          "type": "uint256"
        }
      ],
      "name": "mintOwner",
      "outputs": [],
      "stateMutability": "nonpayable",
      "type": "function"
    },
    {
      "inputs": [
        {
          "internalType": "address",
          "name": "_address",
          "type": "address"
        }
      ],
      "name": "getIdsNftByAddress",
      "outputs": [
        {
          "internalType": "uint256[]",
          "name": "",
          "type": "uint256[]"
        }
      ],
      "stateMutability": "view",
      "type": "function",
      "constant": true
    },
    {
      "inputs": [
        {
          "internalType": "string",
          "name": "_newBaseURI",
          "type": "string"
        }
      ],
      "name": "setBaseURI",
      "outputs": [],
      "stateMutability": "nonpayable",
      "type": "function"
    },
    {
      "inputs": [],
      "name": "getBaseURI",
      "outputs": [
        {
          "internalType": "string",
          "name": "",
          "type": "string"
        }
      ],
      "stateMutability": "view",
      "type": "function",
      "constant": true
    },
    {
      "inputs": [
        {
          "internalType": "string",
          "name": "_newBaseExtension",
          "type": "string"
        }
      ],
      "name": "setBaseExtension",
      "outputs": [],
      "stateMutability": "nonpayable",
      "type": "function"
    },
    {
      "inputs": [],
      "name": "getBaseExtension",
      "outputs": [
        {
          "internalType": "string",
          "name": "",
          "type": "string"
        }
      ],
      "stateMutability": "view",
      "type": "function",
      "constant": true
    },
    {
      "inputs": [],
      "name": "getSupply",
      "outputs": [
        {
          "internalType": "uint256",
          "name": "",
          "type": "uint256"
        }
      ],
      "stateMutability": "view",
      "type": "function",
      "constant": true
    }
  ],
  "bytecode": "0x60806040526040518060400160405280600581526020017f2e6a736f6e000000000000000000000000000000000000000000000000000000815250600c9080519060200190620000519291906200103b565b503480156200005f57600080fd5b506040516200626138038062006261833981810160405281019062000085919062001288565b828281600090805190602001906200009f9291906200103b565b508060019080519060200190620000b89291906200103b565b505050620000db620000cf6200010760201b60201c565b6200010f60201b60201c565b620000ec81620001d560201b60201c565b620000fe60016200028060201b60201c565b50505062001a5a565b600033905090565b6000600a60009054906101000a900473ffffffffffffffffffffffffffffffffffffffff16905081600a60006101000a81548173ffffffffffffffffffffffffffffffffffffffff021916908373ffffffffffffffffffffffffffffffffffffffff1602179055508173ffffffffffffffffffffffffffffffffffffffff168173ffffffffffffffffffffffffffffffffffffffff167f8be0079c531659141344cd1fd0a4f28419497f9722a3daafe3b4186f6b6457e060405160405180910390a35050565b620001e56200010760201b60201c565b73ffffffffffffffffffffffffffffffffffffffff166200020b6200063960201b60201c565b73ffffffffffffffffffffffffffffffffffffffff161462000264576040517f08c379a00000000000000000000000000000000000000000000000000000000081526004016200025b90620013a2565b60405180910390fd5b80600b90805190602001906200027c9291906200103b565b5050565b620002906200010760201b60201c565b73ffffffffffffffffffffffffffffffffffffffff16620002b66200063960201b60201c565b73ffffffffffffffffffffffffffffffffffffffff16146200030f576040517f08c379a00000000000000000000000000000000000000000000000000000000081526004016200030690620013a2565b60405180910390fd5b6000811162000355576040517f08c379a00000000000000000000000000000000000000000000000000000000081526004016200034c9062001414565b60405180910390fd5b612710600d54826200036891906200146f565b1115620003ac576040517f08c379a0000000000000000000000000000000000000000000000000000000008152600401620003a39062001542565b60405180910390fd5b6000600190505b8181116200063557600d6000815480929190620003d09062001564565b9190505550620003e933600d546200066360201b60201c565b6200040c33600d546127106200040091906200146f565b6200066360201b60201c565b6200042f33600d54614e206200042391906200146f565b6200066360201b60201c565b6200045233600d546175306200044691906200146f565b6200066360201b60201c565b600e60003373ffffffffffffffffffffffffffffffffffffffff1673ffffffffffffffffffffffffffffffffffffffff168152602001908152602001600020600d549080600181540180825580915050600190039060005260206000200160009091909190915055600e60003373ffffffffffffffffffffffffffffffffffffffff1673ffffffffffffffffffffffffffffffffffffffff168152602001908152602001600020600d546127106200050b91906200146f565b9080600181540180825580915050600190039060005260206000200160009091909190915055600e60003373ffffffffffffffffffffffffffffffffffffffff1673ffffffffffffffffffffffffffffffffffffffff168152602001908152602001600020600d54614e206200058291906200146f565b9080600181540180825580915050600190039060005260206000200160009091909190915055600e60003373ffffffffffffffffffffffffffffffffffffffff1673ffffffffffffffffffffffffffffffffffffffff168152602001908152602001600020600d54617530620005f991906200146f565b908060018154018082558091505060019003906000526020600020016000909190919091505580806200062c9062001564565b915050620003b3565b5050565b6000600a60009054906101000a900473ffffffffffffffffffffffffffffffffffffffff16905090565b620006858282604051806020016040528060008152506200068960201b60201c565b5050565b6200069b8383620006f760201b60201c565b620006b06000848484620008dd60201b60201c565b620006f2576040517f08c379a0000000000000000000000000000000000000000000000000000000008152600401620006e99062001628565b60405180910390fd5b505050565b600073ffffffffffffffffffffffffffffffffffffffff168273ffffffffffffffffffffffffffffffffffffffff1614156200076a576040517f08c379a000000000000000000000000000000000000000000000000000000000815260040162000761906200169a565b60405180910390fd5b6200077b8162000a8760201b60201c565b15620007be576040517f08c379a0000000000000000000000000000000000000000000000000000000008152600401620007b5906200170c565b60405180910390fd5b620007d26000838362000af360201b60201c565b6001600360008473ffffffffffffffffffffffffffffffffffffffff1673ffffffffffffffffffffffffffffffffffffffff16815260200190815260200160002060008282546200082491906200146f565b92505081905550816002600083815260200190815260200160002060006101000a81548173ffffffffffffffffffffffffffffffffffffffff021916908373ffffffffffffffffffffffffffffffffffffffff160217905550808273ffffffffffffffffffffffffffffffffffffffff16600073ffffffffffffffffffffffffffffffffffffffff167fddf252ad1be2c89b69c2b068fc378daa952ba7f163c4a11628f55a4df523b3ef60405160405180910390a45050565b60006200090b8473ffffffffffffffffffffffffffffffffffffffff1662000c3a60201b62001bb11760201c565b1562000a7a578373ffffffffffffffffffffffffffffffffffffffff1663150b7a026200093d6200010760201b60201c565b8786866040518563ffffffff1660e01b8152600401620009619493929190620017e1565b6020604051808303816000875af1925050508015620009a057506040513d601f19601f820116820180604052508101906200099d919062001892565b60015b62000a29573d8060008114620009d3576040519150601f19603f3d011682016040523d82523d6000602084013e620009d8565b606091505b5060008151141562000a21576040517f08c379a000000000000000000000000000000000000000000000000000000000815260040162000a189062001628565b60405180910390fd5b805181602001fd5b63150b7a0260e01b7bffffffffffffffffffffffffffffffffffffffffffffffffffffffff1916817bffffffffffffffffffffffffffffffffffffffffffffffffffffffff19161491505062000a7f565b600190505b949350505050565b60008073ffffffffffffffffffffffffffffffffffffffff166002600084815260200190815260200160002060009054906101000a900473ffffffffffffffffffffffffffffffffffffffff1673ffffffffffffffffffffffffffffffffffffffff1614159050919050565b62000b0b83838362000c4d60201b62001bc41760201c565b600073ffffffffffffffffffffffffffffffffffffffff168373ffffffffffffffffffffffffffffffffffffffff16141562000b585762000b528162000c5260201b60201c565b62000ba0565b8173ffffffffffffffffffffffffffffffffffffffff168373ffffffffffffffffffffffffffffffffffffffff161462000b9f5762000b9e838262000c9b60201b60201c565b5b5b600073ffffffffffffffffffffffffffffffffffffffff168273ffffffffffffffffffffffffffffffffffffffff16141562000bed5762000be78162000e1860201b60201c565b62000c35565b8273ffffffffffffffffffffffffffffffffffffffff168273ffffffffffffffffffffffffffffffffffffffff161462000c345762000c33828262000ef460201b60201c565b5b5b505050565b600080823b905060008111915050919050565b505050565b6008805490506009600083815260200190815260200160002081905550600881908060018154018082558091505060019003906000526020600020016000909190919091505550565b6000600162000cb58462000f8060201b620013691760201c565b62000cc19190620018c4565b905060006007600084815260200190815260200160002054905081811462000da7576000600660008673ffffffffffffffffffffffffffffffffffffffff1673ffffffffffffffffffffffffffffffffffffffff168152602001908152602001600020600084815260200190815260200160002054905080600660008773ffffffffffffffffffffffffffffffffffffffff1673ffffffffffffffffffffffffffffffffffffffff168152602001908152602001600020600084815260200190815260200160002081905550816007600083815260200190815260200160002081905550505b6007600084815260200190815260200160002060009055600660008573ffffffffffffffffffffffffffffffffffffffff1673ffffffffffffffffffffffffffffffffffffffff16815260200190815260200160002060008381526020019081526020016000206000905550505050565b6000600160088054905062000e2e9190620018c4565b905060006009600084815260200190815260200160002054905060006008838154811062000e615762000e60620018ff565b5b90600052602060002001549050806008838154811062000e865762000e85620018ff565b5b90600052602060002001819055508160096000838152602001908152602001600020819055506009600085815260200190815260200160002060009055600880548062000ed85762000ed76200192e565b5b6001900381819060005260206000200160009055905550505050565b600062000f0c8362000f8060201b620013691760201c565b905081600660008573ffffffffffffffffffffffffffffffffffffffff1673ffffffffffffffffffffffffffffffffffffffff168152602001908152602001600020600083815260200190815260200160002081905550806007600084815260200190815260200160002081905550505050565b60008073ffffffffffffffffffffffffffffffffffffffff168273ffffffffffffffffffffffffffffffffffffffff16141562000ff4576040517f08c379a000000000000000000000000000000000000000000000000000000000815260040162000feb90620019d3565b60405180910390fd5b600360008373ffffffffffffffffffffffffffffffffffffffff1673ffffffffffffffffffffffffffffffffffffffff168152602001908152602001600020549050919050565b828054620010499062001a24565b90600052602060002090601f0160209004810192826200106d5760008555620010b9565b82601f106200108857805160ff1916838001178555620010b9565b82800160010185558215620010b9579182015b82811115620010b85782518255916020019190600101906200109b565b5b509050620010c89190620010cc565b5090565b5b80821115620010e7576000816000905550600101620010cd565b5090565b6000604051905090565b600080fd5b600080fd5b600080fd5b600080fd5b6000601f19601f8301169050919050565b7f4e487b7100000000000000000000000000000000000000000000000000000000600052604160045260246000fd5b620011548262001109565b810181811067ffffffffffffffff821117156200117657620011756200111a565b5b80604052505050565b60006200118b620010eb565b905062001199828262001149565b919050565b600067ffffffffffffffff821115620011bc57620011bb6200111a565b5b620011c78262001109565b9050602081019050919050565b60005b83811015620011f4578082015181840152602081019050620011d7565b8381111562001204576000848401525b50505050565b6000620012216200121b846200119e565b6200117f565b90508281526020810184848401111562001240576200123f62001104565b5b6200124d848285620011d4565b509392505050565b600082601f8301126200126d576200126c620010ff565b5b81516200127f8482602086016200120a565b91505092915050565b600080600060608486031215620012a457620012a3620010f5565b5b600084015167ffffffffffffffff811115620012c557620012c4620010fa565b5b620012d38682870162001255565b935050602084015167ffffffffffffffff811115620012f757620012f6620010fa565b5b620013058682870162001255565b925050604084015167ffffffffffffffff811115620013295762001328620010fa565b5b620013378682870162001255565b9150509250925092565b600082825260208201905092915050565b7f4f776e61626c653a2063616c6c6572206973206e6f7420746865206f776e6572600082015250565b60006200138a60208362001341565b9150620013978262001352565b602082019050919050565b60006020820190508181036000830152620013bd816200137b565b9050919050565b7f4c6561664e4654203a206d7573742062652067726561746572207468616e2030600082015250565b6000620013fc60208362001341565b91506200140982620013c4565b602082019050919050565b600060208201905081810360008301526200142f81620013ed565b9050919050565b6000819050919050565b7f4e487b7100000000000000000000000000000000000000000000000000000000600052601160045260246000fd5b60006200147c8262001436565b9150620014898362001436565b9250827fffffffffffffffffffffffffffffffffffffffffffffffffffffffffffffffff03821115620014c157620014c062001440565b5b828201905092915050565b7f4c6561664e4654203a206d757374206265206c657373207468616e203130303060008201527f3000000000000000000000000000000000000000000000000000000000000000602082015250565b60006200152a60218362001341565b91506200153782620014cc565b604082019050919050565b600060208201905081810360008301526200155d816200151b565b9050919050565b6000620015718262001436565b91507fffffffffffffffffffffffffffffffffffffffffffffffffffffffffffffffff821415620015a757620015a662001440565b5b600182019050919050565b7f4552433732313a207472616e7366657220746f206e6f6e20455243373231526560008201527f63656976657220696d706c656d656e7465720000000000000000000000000000602082015250565b60006200161060328362001341565b91506200161d82620015b2565b604082019050919050565b60006020820190508181036000830152620016438162001601565b9050919050565b7f4552433732313a206d696e7420746f20746865207a65726f2061646472657373600082015250565b60006200168260208362001341565b91506200168f826200164a565b602082019050919050565b60006020820190508181036000830152620016b58162001673565b9050919050565b7f4552433732313a20746f6b656e20616c7265616479206d696e74656400000000600082015250565b6000620016f4601c8362001341565b91506200170182620016bc565b602082019050919050565b600060208201905081810360008301526200172781620016e5565b9050919050565b600073ffffffffffffffffffffffffffffffffffffffff82169050919050565b60006200175b826200172e565b9050919050565b6200176d816200174e565b82525050565b6200177e8162001436565b82525050565b600081519050919050565b600082825260208201905092915050565b6000620017ad8262001784565b620017b981856200178f565b9350620017cb818560208601620011d4565b620017d68162001109565b840191505092915050565b6000608082019050620017f8600083018762001762565b62001807602083018662001762565b62001816604083018562001773565b81810360608301526200182a8184620017a0565b905095945050505050565b60007fffffffff0000000000000000000000000000000000000000000000000000000082169050919050565b6200186c8162001835565b81146200187857600080fd5b50565b6000815190506200188c8162001861565b92915050565b600060208284031215620018ab57620018aa620010f5565b5b6000620018bb848285016200187b565b91505092915050565b6000620018d18262001436565b9150620018de8362001436565b925082821015620018f457620018f362001440565b5b828203905092915050565b7f4e487b7100000000000000000000000000000000000000000000000000000000600052603260045260246000fd5b7f4e487b7100000000000000000000000000000000000000000000000000000000600052603160045260246000fd5b7f4552433732313a2062616c616e636520717565727920666f7220746865207a6560008201527f726f206164647265737300000000000000000000000000000000000000000000602082015250565b6000620019bb602a8362001341565b9150620019c8826200195d565b604082019050919050565b60006020820190508181036000830152620019ee81620019ac565b9050919050565b7f4e487b7100000000000000000000000000000000000000000000000000000000600052602260045260246000fd5b6000600282049050600182168062001a3d57607f821691505b6020821081141562001a545762001a53620019f5565b5b50919050565b6147f78062001a6a6000396000f3fe608060405234801561001057600080fd5b50600436106101c45760003560e01c80636352211e116100f95780639aa7d2c011610097578063c87b56dd11610071578063c87b56dd14610519578063da3ef23f14610549578063e985e9c514610565578063f2fde38b14610595576101c4565b80639aa7d2c0146104b1578063a22cb465146104e1578063b88d4fde146104fd576101c4565b8063714c5398116100d3578063714c53981461044d578063715018a61461046b5780638da5cb5b1461047557806395d89b4114610493576101c4565b80636352211e146103cf5780636c9c2faf146103ff57806370a082311461041d576101c4565b806323b872dd116101665780633fcf8233116101405780633fcf82331461033757806342842e0e146103675780634f6ccce71461038357806355f804b3146103b3576101c4565b806323b872dd146102cf5780632f745c59146102eb57806333f88d221461031b576101c4565b806306fdde03116101a257806306fdde0314610247578063081812fc14610265578063095ea7b31461029557806318160ddd146102b1576101c4565b806301ffc9a7146101c957806302250307146101f957806305afb3a414610217575b600080fd5b6101e360048036038101906101de9190612fa0565b6105b1565b6040516101f09190612fe8565b60405180910390f35b61020161062b565b60405161020e919061309c565b60405180910390f35b610231600480360381019061022c919061311c565b610739565b60405161023e919061309c565b60405180910390f35b61024f61094a565b60405161025c919061309c565b60405180910390f35b61027f600480360381019061027a919061317f565b6109dc565b60405161028c91906131bb565b60405180910390f35b6102af60048036038101906102aa91906131d6565b610a61565b005b6102b9610b79565b6040516102c69190613225565b60405180910390f35b6102e960048036038101906102e49190613240565b610b86565b005b610305600480360381019061030091906131d6565b610be6565b6040516103129190613225565b60405180910390f35b6103356004803603810190610330919061317f565b610c8b565b005b610351600480360381019061034c919061311c565b610ff7565b60405161035e9190613351565b60405180910390f35b610381600480360381019061037c9190613240565b61110a565b005b61039d6004803603810190610398919061317f565b61112a565b6040516103aa9190613225565b60405180910390f35b6103cd60048036038101906103c891906134a8565b61119b565b005b6103e960048036038101906103e4919061317f565b611231565b6040516103f691906131bb565b60405180910390f35b6104076112e3565b6040516104149190613225565b60405180910390f35b6104376004803603810190610432919061311c565b611369565b6040516104449190613225565b60405180910390f35b610455611421565b604051610462919061309c565b60405180910390f35b61047361152f565b005b61047d6115b7565b60405161048a91906131bb565b60405180910390f35b61049b6115e1565b6040516104a8919061309c565b60405180910390f35b6104cb60048036038101906104c691906131d6565b611673565b6040516104d8919061309c565b60405180910390f35b6104fb60048036038101906104f6919061351d565b611870565b005b610517600480360381019061051291906135fe565b611886565b005b610533600480360381019061052e919061317f565b6118e8565b604051610540919061309c565b60405180910390f35b610563600480360381019061055e91906134a8565b61198f565b005b61057f600480360381019061057a9190613681565b611a25565b60405161058c9190612fe8565b60405180910390f35b6105af60048036038101906105aa919061311c565b611ab9565b005b60007f780e9d63000000000000000000000000000000000000000000000000000000007bffffffffffffffffffffffffffffffffffffffffffffffffffffffff1916827bffffffffffffffffffffffffffffffffffffffffffffffffffffffff19161480610624575061062382611bc9565b5b9050919050565b6060610635611cab565b73ffffffffffffffffffffffffffffffffffffffff166106536115b7565b73ffffffffffffffffffffffffffffffffffffffff16146106a9576040517f08c379a00000000000000000000000000000000000000000000000000000000081526004016106a09061370d565b60405180910390fd5b600c80546106b69061375c565b80601f01602080910402602001604051908101604052809291908181526020018280546106e29061375c565b801561072f5780601f106107045761010080835404028352916020019161072f565b820191906000526020600020905b81548152906001019060200180831161071257829003601f168201915b5050505050905090565b6060610743611cab565b73ffffffffffffffffffffffffffffffffffffffff166107616115b7565b73ffffffffffffffffffffffffffffffffffffffff16146107b7576040517f08c379a00000000000000000000000000000000000000000000000000000000081526004016107ae9061370d565b60405180910390fd5b600073ffffffffffffffffffffffffffffffffffffffff168273ffffffffffffffffffffffffffffffffffffffff161415610827576040517f08c379a000000000000000000000000000000000000000000000000000000000815260040161081e90613800565b60405180910390fd5b6000600e60008473ffffffffffffffffffffffffffffffffffffffff1673ffffffffffffffffffffffffffffffffffffffff16815260200190815260200160002080549050146108ac576040517f08c379a00000000000000000000000000000000000000000000000000000000081526004016108a390613892565b60405180910390fd5b600d60008154809291906108bf906138e1565b91905055506108d082600d54611cb3565b600e60008373ffffffffffffffffffffffffffffffffffffffff1673ffffffffffffffffffffffffffffffffffffffff168152602001908152602001600020600d549080600181540180825580915050600190039060005260206000200160009091909190915055610943600d54611cd1565b9050919050565b6060600080546109599061375c565b80601f01602080910402602001604051908101604052809291908181526020018280546109859061375c565b80156109d25780601f106109a7576101008083540402835291602001916109d2565b820191906000526020600020905b8154815290600101906020018083116109b557829003601f168201915b5050505050905090565b60006109e782611d7b565b610a26576040517f08c379a0000000000000000000000000000000000000000000000000000000008152600401610a1d9061399c565b60405180910390fd5b6004600083815260200190815260200160002060009054906101000a900473ffffffffffffffffffffffffffffffffffffffff169050919050565b6000610a6c82611231565b90508073ffffffffffffffffffffffffffffffffffffffff168373ffffffffffffffffffffffffffffffffffffffff161415610add576040517f08c379a0000000000000000000000000000000000000000000000000000000008152600401610ad490613a2e565b60405180910390fd5b8073ffffffffffffffffffffffffffffffffffffffff16610afc611cab565b73ffffffffffffffffffffffffffffffffffffffff161480610b2b5750610b2a81610b25611cab565b611a25565b5b610b6a576040517f08c379a0000000000000000000000000000000000000000000000000000000008152600401610b6190613ac0565b60405180910390fd5b610b748383611de7565b505050565b6000600880549050905090565b610b97610b91611cab565b82611ea0565b610bd6576040517f08c379a0000000000000000000000000000000000000000000000000000000008152600401610bcd90613b52565b60405180910390fd5b610be1838383611f7e565b505050565b6000610bf183611369565b8210610c32576040517f08c379a0000000000000000000000000000000000000000000000000000000008152600401610c2990613be4565b60405180910390fd5b600660008473ffffffffffffffffffffffffffffffffffffffff1673ffffffffffffffffffffffffffffffffffffffff168152602001908152602001600020600083815260200190815260200160002054905092915050565b610c93611cab565b73ffffffffffffffffffffffffffffffffffffffff16610cb16115b7565b73ffffffffffffffffffffffffffffffffffffffff1614610d07576040517f08c379a0000000000000000000000000000000000000000000000000000000008152600401610cfe9061370d565b60405180910390fd5b60008111610d4a576040517f08c379a0000000000000000000000000000000000000000000000000000000008152600401610d4190613c50565b60405180910390fd5b612710600d5482610d5b9190613c70565b1115610d9c576040517f08c379a0000000000000000000000000000000000000000000000000000000008152600401610d9390613d38565b60405180910390fd5b6000600190505b818111610ff357600d6000815480929190610dbd906138e1565b9190505550610dce33600d54611cb3565b610de733600d54612710610de29190613c70565b611cb3565b610e0033600d54614e20610dfb9190613c70565b611cb3565b610e1933600d54617530610e149190613c70565b611cb3565b600e60003373ffffffffffffffffffffffffffffffffffffffff1673ffffffffffffffffffffffffffffffffffffffff168152602001908152602001600020600d549080600181540180825580915050600190039060005260206000200160009091909190915055600e60003373ffffffffffffffffffffffffffffffffffffffff1673ffffffffffffffffffffffffffffffffffffffff168152602001908152602001600020600d54612710610ed09190613c70565b9080600181540180825580915050600190039060005260206000200160009091909190915055600e60003373ffffffffffffffffffffffffffffffffffffffff1673ffffffffffffffffffffffffffffffffffffffff168152602001908152602001600020600d54614e20610f459190613c70565b9080600181540180825580915050600190039060005260206000200160009091909190915055600e60003373ffffffffffffffffffffffffffffffffffffffff1673ffffffffffffffffffffffffffffffffffffffff168152602001908152602001600020600d54617530610fba9190613c70565b90806001815401808255809150506001900390600052602060002001600090919091909150558080610feb906138e1565b915050610da3565b5050565b6060611001611cab565b73ffffffffffffffffffffffffffffffffffffffff1661101f6115b7565b73ffffffffffffffffffffffffffffffffffffffff1614611075576040517f08c379a000000000000000000000000000000000000000000000000000000000815260040161106c9061370d565b60405180910390fd5b600e60008373ffffffffffffffffffffffffffffffffffffffff1673ffffffffffffffffffffffffffffffffffffffff1681526020019081526020016000208054806020026020016040519081016040528092919081815260200182805480156110fe57602002820191906000526020600020905b8154815260200190600101908083116110ea575b50505050509050919050565b61112583838360405180602001604052806000815250611886565b505050565b6000611134610b79565b8210611175576040517f08c379a000000000000000000000000000000000000000000000000000000000815260040161116c90613dca565b60405180910390fd5b6008828154811061118957611188613dea565b5b90600052602060002001549050919050565b6111a3611cab565b73ffffffffffffffffffffffffffffffffffffffff166111c16115b7565b73ffffffffffffffffffffffffffffffffffffffff1614611217576040517f08c379a000000000000000000000000000000000000000000000000000000000815260040161120e9061370d565b60405180910390fd5b80600b908051906020019061122d929190612e91565b5050565b6000806002600084815260200190815260200160002060009054906101000a900473ffffffffffffffffffffffffffffffffffffffff169050600073ffffffffffffffffffffffffffffffffffffffff168173ffffffffffffffffffffffffffffffffffffffff1614156112da576040517f08c379a00000000000000000000000000000000000000000000000000000000081526004016112d190613e8b565b60405180910390fd5b80915050919050565b60006112ed611cab565b73ffffffffffffffffffffffffffffffffffffffff1661130b6115b7565b73ffffffffffffffffffffffffffffffffffffffff1614611361576040517f08c379a00000000000000000000000000000000000000000000000000000000081526004016113589061370d565b60405180910390fd5b600d54905090565b60008073ffffffffffffffffffffffffffffffffffffffff168273ffffffffffffffffffffffffffffffffffffffff1614156113da576040517f08c379a00000000000000000000000000000000000000000000000000000000081526004016113d190613f1d565b60405180910390fd5b600360008373ffffffffffffffffffffffffffffffffffffffff1673ffffffffffffffffffffffffffffffffffffffff168152602001908152602001600020549050919050565b606061142b611cab565b73ffffffffffffffffffffffffffffffffffffffff166114496115b7565b73ffffffffffffffffffffffffffffffffffffffff161461149f576040517f08c379a00000000000000000000000000000000000000000000000000000000081526004016114969061370d565b60405180910390fd5b600b80546114ac9061375c565b80601f01602080910402602001604051908101604052809291908181526020018280546114d89061375c565b80156115255780601f106114fa57610100808354040283529160200191611525565b820191906000526020600020905b81548152906001019060200180831161150857829003601f168201915b5050505050905090565b611537611cab565b73ffffffffffffffffffffffffffffffffffffffff166115556115b7565b73ffffffffffffffffffffffffffffffffffffffff16146115ab576040517f08c379a00000000000000000000000000000000000000000000000000000000081526004016115a29061370d565b60405180910390fd5b6115b560006121da565b565b6000600a60009054906101000a900473ffffffffffffffffffffffffffffffffffffffff16905090565b6060600180546115f09061375c565b80601f016020809104026020016040519081016040528092919081815260200182805461161c9061375c565b80156116695780601f1061163e57610100808354040283529160200191611669565b820191906000526020600020905b81548152906001019060200180831161164c57829003601f168201915b5050505050905090565b606061167d611cab565b73ffffffffffffffffffffffffffffffffffffffff1661169b6115b7565b73ffffffffffffffffffffffffffffffffffffffff16146116f1576040517f08c379a00000000000000000000000000000000000000000000000000000000081526004016116e89061370d565b60405180910390fd5b600080600e60008673ffffffffffffffffffffffffffffffffffffffff1673ffffffffffffffffffffffffffffffffffffffff16815260200190815260200160002080549050141590508061177b576040517f08c379a000000000000000000000000000000000000000000000000000000000815260040161177290613f89565b60405180910390fd5b6000600e60008673ffffffffffffffffffffffffffffffffffffffff1673ffffffffffffffffffffffffffffffffffffffff1681526020019081526020016000206000815481106117cf576117ce613dea565b5b90600052602060002001549050600084826117ea9190613c70565b90506117f68682611cb3565b600e60008773ffffffffffffffffffffffffffffffffffffffff1673ffffffffffffffffffffffffffffffffffffffff16815260200190815260200160002081908060018154018082558091505060019003906000526020600020016000909190919091505561186581611cd1565b935050505092915050565b61188261187b611cab565b83836122a0565b5050565b611897611891611cab565b83611ea0565b6118d6576040517f08c379a00000000000000000000000000000000000000000000000000000000081526004016118cd90613b52565b60405180910390fd5b6118e28484848461240d565b50505050565b60606118f382611d7b565b611932576040517f08c379a00000000000000000000000000000000000000000000000000000000081526004016119299061401b565b60405180910390fd5b600061193c612469565b9050600081511161195c5760405180602001604052806000815250611987565b80611966846124fb565b604051602001611977929190614077565b6040516020818303038152906040525b915050919050565b611997611cab565b73ffffffffffffffffffffffffffffffffffffffff166119b56115b7565b73ffffffffffffffffffffffffffffffffffffffff1614611a0b576040517f08c379a0000000000000000000000000000000000000000000000000000000008152600401611a029061370d565b60405180910390fd5b80600c9080519060200190611a21929190612e91565b5050565b6000600560008473ffffffffffffffffffffffffffffffffffffffff1673ffffffffffffffffffffffffffffffffffffffff16815260200190815260200160002060008373ffffffffffffffffffffffffffffffffffffffff1673ffffffffffffffffffffffffffffffffffffffff16815260200190815260200160002060009054906101000a900460ff16905092915050565b611ac1611cab565b73ffffffffffffffffffffffffffffffffffffffff16611adf6115b7565b73ffffffffffffffffffffffffffffffffffffffff1614611b35576040517f08c379a0000000000000000000000000000000000000000000000000000000008152600401611b2c9061370d565b60405180910390fd5b600073ffffffffffffffffffffffffffffffffffffffff168173ffffffffffffffffffffffffffffffffffffffff161415611ba5576040517f08c379a0000000000000000000000000000000000000000000000000000000008152600401611b9c9061410d565b60405180910390fd5b611bae816121da565b50565b600080823b905060008111915050919050565b505050565b60007f80ac58cd000000000000000000000000000000000000000000000000000000007bffffffffffffffffffffffffffffffffffffffffffffffffffffffff1916827bffffffffffffffffffffffffffffffffffffffffffffffffffffffff19161480611c9457507f5b5e139f000000000000000000000000000000000000000000000000000000007bffffffffffffffffffffffffffffffffffffffffffffffffffffffff1916827bffffffffffffffffffffffffffffffffffffffffffffffffffffffff1916145b80611ca45750611ca38261265c565b5b9050919050565b600033905090565b611ccd8282604051806020016040528060008152506126c6565b5050565b6060611cdc82611d7b565b611d1b576040517f08c379a0000000000000000000000000000000000000000000000000000000008152600401611d1290614179565b60405180910390fd5b6000611d25612469565b90506000815111611d455760405180602001604052806000815250611d73565b80611d4f846124fb565b600c604051602001611d639392919061422d565b6040516020818303038152906040525b915050919050565b60008073ffffffffffffffffffffffffffffffffffffffff166002600084815260200190815260200160002060009054906101000a900473ffffffffffffffffffffffffffffffffffffffff1673ffffffffffffffffffffffffffffffffffffffff1614159050919050565b816004600083815260200190815260200160002060006101000a81548173ffffffffffffffffffffffffffffffffffffffff021916908373ffffffffffffffffffffffffffffffffffffffff160217905550808273ffffffffffffffffffffffffffffffffffffffff16611e5a83611231565b73ffffffffffffffffffffffffffffffffffffffff167f8c5be1e5ebec7d5bd14f71427d1e84f3dd0314c0f7b2291e5b200ac8c7c3b92560405160405180910390a45050565b6000611eab82611d7b565b611eea576040517f08c379a0000000000000000000000000000000000000000000000000000000008152600401611ee1906142d0565b60405180910390fd5b6000611ef583611231565b90508073ffffffffffffffffffffffffffffffffffffffff168473ffffffffffffffffffffffffffffffffffffffff161480611f6457508373ffffffffffffffffffffffffffffffffffffffff16611f4c846109dc565b73ffffffffffffffffffffffffffffffffffffffff16145b80611f755750611f748185611a25565b5b91505092915050565b8273ffffffffffffffffffffffffffffffffffffffff16611f9e82611231565b73ffffffffffffffffffffffffffffffffffffffff1614611ff4576040517f08c379a0000000000000000000000000000000000000000000000000000000008152600401611feb90614362565b60405180910390fd5b600073ffffffffffffffffffffffffffffffffffffffff168273ffffffffffffffffffffffffffffffffffffffff161415612064576040517f08c379a000000000000000000000000000000000000000000000000000000000815260040161205b906143f4565b60405180910390fd5b61206f838383612721565b61207a600082611de7565b6001600360008573ffffffffffffffffffffffffffffffffffffffff1673ffffffffffffffffffffffffffffffffffffffff16815260200190815260200160002060008282546120ca9190614414565b925050819055506001600360008473ffffffffffffffffffffffffffffffffffffffff1673ffffffffffffffffffffffffffffffffffffffff16815260200190815260200160002060008282546121219190613c70565b92505081905550816002600083815260200190815260200160002060006101000a81548173ffffffffffffffffffffffffffffffffffffffff021916908373ffffffffffffffffffffffffffffffffffffffff160217905550808273ffffffffffffffffffffffffffffffffffffffff168473ffffffffffffffffffffffffffffffffffffffff167fddf252ad1be2c89b69c2b068fc378daa952ba7f163c4a11628f55a4df523b3ef60405160405180910390a4505050565b6000600a60009054906101000a900473ffffffffffffffffffffffffffffffffffffffff16905081600a60006101000a81548173ffffffffffffffffffffffffffffffffffffffff021916908373ffffffffffffffffffffffffffffffffffffffff1602179055508173ffffffffffffffffffffffffffffffffffffffff168173ffffffffffffffffffffffffffffffffffffffff167f8be0079c531659141344cd1fd0a4f28419497f9722a3daafe3b4186f6b6457e060405160405180910390a35050565b8173ffffffffffffffffffffffffffffffffffffffff168373ffffffffffffffffffffffffffffffffffffffff16141561230f576040517f08c379a000000000000000000000000000000000000000000000000000000000815260040161230690614494565b60405180910390fd5b80600560008573ffffffffffffffffffffffffffffffffffffffff1673ffffffffffffffffffffffffffffffffffffffff16815260200190815260200160002060008473ffffffffffffffffffffffffffffffffffffffff1673ffffffffffffffffffffffffffffffffffffffff16815260200190815260200160002060006101000a81548160ff0219169083151502179055508173ffffffffffffffffffffffffffffffffffffffff168373ffffffffffffffffffffffffffffffffffffffff167f17307eab39ab6107e8899845ad3d59bd9653f200f220920489ca2b5937696c31836040516124009190612fe8565b60405180910390a3505050565b612418848484611f7e565b61242484848484612835565b612463576040517f08c379a000000000000000000000000000000000000000000000000000000000815260040161245a90614526565b60405180910390fd5b50505050565b6060600b80546124789061375c565b80601f01602080910402602001604051908101604052809291908181526020018280546124a49061375c565b80156124f15780601f106124c6576101008083540402835291602001916124f1565b820191906000526020600020905b8154815290600101906020018083116124d457829003601f168201915b5050505050905090565b60606000821415612543576040518060400160405280600181526020017f30000000000000000000000000000000000000000000000000000000000000008152509050612657565b600082905060005b6000821461257557808061255e906138e1565b915050600a8261256e9190614575565b915061254b565b60008167ffffffffffffffff8111156125915761259061337d565b5b6040519080825280601f01601f1916602001820160405280156125c35781602001600182028036833780820191505090505b5090505b60008514612650576001826125dc9190614414565b9150600a856125eb91906145a6565b60306125f79190613c70565b60f81b81838151811061260d5761260c613dea565b5b60200101907effffffffffffffffffffffffffffffffffffffffffffffffffffffffffffff1916908160001a905350600a856126499190614575565b94506125c7565b8093505050505b919050565b60007f01ffc9a7000000000000000000000000000000000000000000000000000000007bffffffffffffffffffffffffffffffffffffffffffffffffffffffff1916827bffffffffffffffffffffffffffffffffffffffffffffffffffffffff1916149050919050565b6126d083836129bd565b6126dd6000848484612835565b61271c576040517f08c379a000000000000000000000000000000000000000000000000000000000815260040161271390614526565b60405180910390fd5b505050565b61272c838383611bc4565b600073ffffffffffffffffffffffffffffffffffffffff168373ffffffffffffffffffffffffffffffffffffffff16141561276f5761276a81612b8b565b6127ae565b8173ffffffffffffffffffffffffffffffffffffffff168373ffffffffffffffffffffffffffffffffffffffff16146127ad576127ac8382612bd4565b5b5b600073ffffffffffffffffffffffffffffffffffffffff168273ffffffffffffffffffffffffffffffffffffffff1614156127f1576127ec81612d41565b612830565b8273ffffffffffffffffffffffffffffffffffffffff168273ffffffffffffffffffffffffffffffffffffffff161461282f5761282e8282612e12565b5b5b505050565b60006128568473ffffffffffffffffffffffffffffffffffffffff16611bb1565b156129b0578373ffffffffffffffffffffffffffffffffffffffff1663150b7a0261287f611cab565b8786866040518563ffffffff1660e01b81526004016128a1949392919061462c565b6020604051808303816000875af19250505080156128dd57506040513d601f19601f820116820180604052508101906128da919061468d565b60015b612960573d806000811461290d576040519150601f19603f3d011682016040523d82523d6000602084013e612912565b606091505b50600081511415612958576040517f08c379a000000000000000000000000000000000000000000000000000000000815260040161294f90614526565b60405180910390fd5b805181602001fd5b63150b7a0260e01b7bffffffffffffffffffffffffffffffffffffffffffffffffffffffff1916817bffffffffffffffffffffffffffffffffffffffffffffffffffffffff1916149150506129b5565b600190505b949350505050565b600073ffffffffffffffffffffffffffffffffffffffff168273ffffffffffffffffffffffffffffffffffffffff161415612a2d576040517f08c379a0000000000000000000000000000000000000000000000000000000008152600401612a2490614706565b60405180910390fd5b612a3681611d7b565b15612a76576040517f08c379a0000000000000000000000000000000000000000000000000000000008152600401612a6d90614772565b60405180910390fd5b612a8260008383612721565b6001600360008473ffffffffffffffffffffffffffffffffffffffff1673ffffffffffffffffffffffffffffffffffffffff1681526020019081526020016000206000828254612ad29190613c70565b92505081905550816002600083815260200190815260200160002060006101000a81548173ffffffffffffffffffffffffffffffffffffffff021916908373ffffffffffffffffffffffffffffffffffffffff160217905550808273ffffffffffffffffffffffffffffffffffffffff16600073ffffffffffffffffffffffffffffffffffffffff167fddf252ad1be2c89b69c2b068fc378daa952ba7f163c4a11628f55a4df523b3ef60405160405180910390a45050565b6008805490506009600083815260200190815260200160002081905550600881908060018154018082558091505060019003906000526020600020016000909190919091505550565b60006001612be184611369565b612beb9190614414565b9050600060076000848152602001908152602001600020549050818114612cd0576000600660008673ffffffffffffffffffffffffffffffffffffffff1673ffffffffffffffffffffffffffffffffffffffff168152602001908152602001600020600084815260200190815260200160002054905080600660008773ffffffffffffffffffffffffffffffffffffffff1673ffffffffffffffffffffffffffffffffffffffff168152602001908152602001600020600084815260200190815260200160002081905550816007600083815260200190815260200160002081905550505b6007600084815260200190815260200160002060009055600660008573ffffffffffffffffffffffffffffffffffffffff1673ffffffffffffffffffffffffffffffffffffffff16815260200190815260200160002060008381526020019081526020016000206000905550505050565b60006001600880549050612d559190614414565b9050600060096000848152602001908152602001600020549050600060088381548110612d8557612d84613dea565b5b906000526020600020015490508060088381548110612da757612da6613dea565b5b906000526020600020018190555081600960008381526020019081526020016000208190555060096000858152602001908152602001600020600090556008805480612df657612df5614792565b5b6001900381819060005260206000200160009055905550505050565b6000612e1d83611369565b905081600660008573ffffffffffffffffffffffffffffffffffffffff1673ffffffffffffffffffffffffffffffffffffffff168152602001908152602001600020600083815260200190815260200160002081905550806007600084815260200190815260200160002081905550505050565b828054612e9d9061375c565b90600052602060002090601f016020900481019282612ebf5760008555612f06565b82601f10612ed857805160ff1916838001178555612f06565b82800160010185558215612f06579182015b82811115612f05578251825591602001919060010190612eea565b5b509050612f139190612f17565b5090565b5b80821115612f30576000816000905550600101612f18565b5090565b6000604051905090565b600080fd5b600080fd5b60007fffffffff0000000000000000000000000000000000000000000000000000000082169050919050565b612f7d81612f48565b8114612f8857600080fd5b50565b600081359050612f9a81612f74565b92915050565b600060208284031215612fb657612fb5612f3e565b5b6000612fc484828501612f8b565b91505092915050565b60008115159050919050565b612fe281612fcd565b82525050565b6000602082019050612ffd6000830184612fd9565b92915050565b600081519050919050565b600082825260208201905092915050565b60005b8381101561303d578082015181840152602081019050613022565b8381111561304c576000848401525b50505050565b6000601f19601f8301169050919050565b600061306e82613003565b613078818561300e565b935061308881856020860161301f565b61309181613052565b840191505092915050565b600060208201905081810360008301526130b68184613063565b905092915050565b600073ffffffffffffffffffffffffffffffffffffffff82169050919050565b60006130e9826130be565b9050919050565b6130f9816130de565b811461310457600080fd5b50565b600081359050613116816130f0565b92915050565b60006020828403121561313257613131612f3e565b5b600061314084828501613107565b91505092915050565b6000819050919050565b61315c81613149565b811461316757600080fd5b50565b60008135905061317981613153565b92915050565b60006020828403121561319557613194612f3e565b5b60006131a38482850161316a565b91505092915050565b6131b5816130de565b82525050565b60006020820190506131d060008301846131ac565b92915050565b600080604083850312156131ed576131ec612f3e565b5b60006131fb85828601613107565b925050602061320c8582860161316a565b9150509250929050565b61321f81613149565b82525050565b600060208201905061323a6000830184613216565b92915050565b60008060006060848603121561325957613258612f3e565b5b600061326786828701613107565b935050602061327886828701613107565b92505060406132898682870161316a565b9150509250925092565b600081519050919050565b600082825260208201905092915050565b6000819050602082019050919050565b6132c881613149565b82525050565b60006132da83836132bf565b60208301905092915050565b6000602082019050919050565b60006132fe82613293565b613308818561329e565b9350613313836132af565b8060005b8381101561334457815161332b88826132ce565b9750613336836132e6565b925050600181019050613317565b5085935050505092915050565b6000602082019050818103600083015261336b81846132f3565b905092915050565b600080fd5b600080fd5b7f4e487b7100000000000000000000000000000000000000000000000000000000600052604160045260246000fd5b6133b582613052565b810181811067ffffffffffffffff821117156133d4576133d361337d565b5b80604052505050565b60006133e7612f34565b90506133f382826133ac565b919050565b600067ffffffffffffffff8211156134135761341261337d565b5b61341c82613052565b9050602081019050919050565b82818337600083830152505050565b600061344b613446846133f8565b6133dd565b90508281526020810184848401111561346757613466613378565b5b613472848285613429565b509392505050565b600082601f83011261348f5761348e613373565b5b813561349f848260208601613438565b91505092915050565b6000602082840312156134be576134bd612f3e565b5b600082013567ffffffffffffffff8111156134dc576134db612f43565b5b6134e88482850161347a565b91505092915050565b6134fa81612fcd565b811461350557600080fd5b50565b600081359050613517816134f1565b92915050565b6000806040838503121561353457613533612f3e565b5b600061354285828601613107565b925050602061355385828601613508565b9150509250929050565b600067ffffffffffffffff8211156135785761357761337d565b5b61358182613052565b9050602081019050919050565b60006135a161359c8461355d565b6133dd565b9050828152602081018484840111156135bd576135bc613378565b5b6135c8848285613429565b509392505050565b600082601f8301126135e5576135e4613373565b5b81356135f584826020860161358e565b91505092915050565b6000806000806080858703121561361857613617612f3e565b5b600061362687828801613107565b945050602061363787828801613107565b93505060406136488782880161316a565b925050606085013567ffffffffffffffff81111561366957613668612f43565b5b613675878288016135d0565b91505092959194509250565b6000806040838503121561369857613697612f3e565b5b60006136a685828601613107565b92505060206136b785828601613107565b9150509250929050565b7f4f776e61626c653a2063616c6c6572206973206e6f7420746865206f776e6572600082015250565b60006136f760208361300e565b9150613702826136c1565b602082019050919050565b60006020820190508181036000830152613726816136ea565b9050919050565b7f4e487b7100000000000000000000000000000000000000000000000000000000600052602260045260246000fd5b6000600282049050600182168061377457607f821691505b602082108114156137885761378761372d565b5b50919050565b7f4c6561664e4654203a206d757374206e6f7420626520657175616c20746f206160008201527f6464726573732030000000000000000000000000000000000000000000000000602082015250565b60006137ea60288361300e565b91506137f58261378e565b604082019050919050565b60006020820190508181036000830152613819816137dd565b9050919050565b7f4c6561664e4654203a2068617320616c726561647920646f6e6520666972737460008201527f206d696e74000000000000000000000000000000000000000000000000000000602082015250565b600061387c60258361300e565b915061388782613820565b604082019050919050565b600060208201905081810360008301526138ab8161386f565b9050919050565b7f4e487b7100000000000000000000000000000000000000000000000000000000600052601160045260246000fd5b60006138ec82613149565b91507fffffffffffffffffffffffffffffffffffffffffffffffffffffffffffffffff82141561391f5761391e6138b2565b5b600182019050919050565b7f4552433732313a20617070726f76656420717565727920666f72206e6f6e657860008201527f697374656e7420746f6b656e0000000000000000000000000000000000000000602082015250565b6000613986602c8361300e565b91506139918261392a565b604082019050919050565b600060208201905081810360008301526139b581613979565b9050919050565b7f4552433732313a20617070726f76616c20746f2063757272656e74206f776e6560008201527f7200000000000000000000000000000000000000000000000000000000000000602082015250565b6000613a1860218361300e565b9150613a23826139bc565b604082019050919050565b60006020820190508181036000830152613a4781613a0b565b9050919050565b7f4552433732313a20617070726f76652063616c6c6572206973206e6f74206f7760008201527f6e6572206e6f7220617070726f76656420666f7220616c6c0000000000000000602082015250565b6000613aaa60388361300e565b9150613ab582613a4e565b604082019050919050565b60006020820190508181036000830152613ad981613a9d565b9050919050565b7f4552433732313a207472616e736665722063616c6c6572206973206e6f74206f60008201527f776e6572206e6f7220617070726f766564000000000000000000000000000000602082015250565b6000613b3c60318361300e565b9150613b4782613ae0565b604082019050919050565b60006020820190508181036000830152613b6b81613b2f565b9050919050565b7f455243373231456e756d657261626c653a206f776e657220696e646578206f7560008201527f74206f6620626f756e6473000000000000000000000000000000000000000000602082015250565b6000613bce602b8361300e565b9150613bd982613b72565b604082019050919050565b60006020820190508181036000830152613bfd81613bc1565b9050919050565b7f4c6561664e4654203a206d7573742062652067726561746572207468616e2030600082015250565b6000613c3a60208361300e565b9150613c4582613c04565b602082019050919050565b60006020820190508181036000830152613c6981613c2d565b9050919050565b6000613c7b82613149565b9150613c8683613149565b9250827fffffffffffffffffffffffffffffffffffffffffffffffffffffffffffffffff03821115613cbb57613cba6138b2565b5b828201905092915050565b7f4c6561664e4654203a206d757374206265206c657373207468616e203130303060008201527f3000000000000000000000000000000000000000000000000000000000000000602082015250565b6000613d2260218361300e565b9150613d2d82613cc6565b604082019050919050565b60006020820190508181036000830152613d5181613d15565b9050919050565b7f455243373231456e756d657261626c653a20676c6f62616c20696e646578206f60008201527f7574206f6620626f756e64730000000000000000000000000000000000000000602082015250565b6000613db4602c8361300e565b9150613dbf82613d58565b604082019050919050565b60006020820190508181036000830152613de381613da7565b9050919050565b7f4e487b7100000000000000000000000000000000000000000000000000000000600052603260045260246000fd5b7f4552433732313a206f776e657220717565727920666f72206e6f6e657869737460008201527f656e7420746f6b656e0000000000000000000000000000000000000000000000602082015250565b6000613e7560298361300e565b9150613e8082613e19565b604082019050919050565b60006020820190508181036000830152613ea481613e68565b9050919050565b7f4552433732313a2062616c616e636520717565727920666f7220746865207a6560008201527f726f206164647265737300000000000000000000000000000000000000000000602082015250565b6000613f07602a8361300e565b9150613f1282613eab565b604082019050919050565b60006020820190508181036000830152613f3681613efa565b9050919050565b7f4c6561664e4654203a206d757374206578697374206669727374206964000000600082015250565b6000613f73601d8361300e565b9150613f7e82613f3d565b602082019050919050565b60006020820190508181036000830152613fa281613f66565b9050919050565b7f4552433732314d657461646174613a2055524920717565727920666f72206e6f60008201527f6e6578697374656e7420746f6b656e0000000000000000000000000000000000602082015250565b6000614005602f8361300e565b915061401082613fa9565b604082019050919050565b6000602082019050818103600083015261403481613ff8565b9050919050565b600081905092915050565b600061405182613003565b61405b818561403b565b935061406b81856020860161301f565b80840191505092915050565b60006140838285614046565b915061408f8284614046565b91508190509392505050565b7f4f776e61626c653a206e6577206f776e657220697320746865207a65726f206160008201527f6464726573730000000000000000000000000000000000000000000000000000602082015250565b60006140f760268361300e565b91506141028261409b565b604082019050919050565b60006020820190508181036000830152614126816140ea565b9050919050565b7f4c6561664e4654203a206e6f7420657869737473000000000000000000000000600082015250565b600061416360148361300e565b915061416e8261412d565b602082019050919050565b6000602082019050818103600083015261419281614156565b9050919050565b60008190508160005260206000209050919050565b600081546141bb8161375c565b6141c5818661403b565b945060018216600081146141e057600181146141f157614224565b60ff19831686528186019350614224565b6141fa85614199565b60005b8381101561421c578154818901526001820191506020810190506141fd565b838801955050505b50505092915050565b60006142398286614046565b91506142458285614046565b915061425182846141ae565b9150819050949350505050565b7f4552433732313a206f70657261746f7220717565727920666f72206e6f6e657860008201527f697374656e7420746f6b656e0000000000000000000000000000000000000000602082015250565b60006142ba602c8361300e565b91506142c58261425e565b604082019050919050565b600060208201905081810360008301526142e9816142ad565b9050919050565b7f4552433732313a207472616e73666572206f6620746f6b656e2074686174206960008201527f73206e6f74206f776e0000000000000000000000000000000000000000000000602082015250565b600061434c60298361300e565b9150614357826142f0565b604082019050919050565b6000602082019050818103600083015261437b8161433f565b9050919050565b7f4552433732313a207472616e7366657220746f20746865207a65726f2061646460008201527f7265737300000000000000000000000000000000000000000000000000000000602082015250565b60006143de60248361300e565b91506143e982614382565b604082019050919050565b6000602082019050818103600083015261440d816143d1565b9050919050565b600061441f82613149565b915061442a83613149565b92508282101561443d5761443c6138b2565b5b828203905092915050565b7f4552433732313a20617070726f766520746f2063616c6c657200000000000000600082015250565b600061447e60198361300e565b915061448982614448565b602082019050919050565b600060208201905081810360008301526144ad81614471565b9050919050565b7f4552433732313a207472616e7366657220746f206e6f6e20455243373231526560008201527f63656976657220696d706c656d656e7465720000000000000000000000000000602082015250565b600061451060328361300e565b915061451b826144b4565b604082019050919050565b6000602082019050818103600083015261453f81614503565b9050919050565b7f4e487b7100000000000000000000000000000000000000000000000000000000600052601260045260246000fd5b600061458082613149565b915061458b83613149565b92508261459b5761459a614546565b5b828204905092915050565b60006145b182613149565b91506145bc83613149565b9250826145cc576145cb614546565b5b828206905092915050565b600081519050919050565b600082825260208201905092915050565b60006145fe826145d7565b61460881856145e2565b935061461881856020860161301f565b61462181613052565b840191505092915050565b600060808201905061464160008301876131ac565b61464e60208301866131ac565b61465b6040830185613216565b818103606083015261466d81846145f3565b905095945050505050565b60008151905061468781612f74565b92915050565b6000602082840312156146a3576146a2612f3e565b5b60006146b184828501614678565b91505092915050565b7f4552433732313a206d696e7420746f20746865207a65726f2061646472657373600082015250565b60006146f060208361300e565b91506146fb826146ba565b602082019050919050565b6000602082019050818103600083015261471f816146e3565b9050919050565b7f4552433732313a20746f6b656e20616c7265616479206d696e74656400000000600082015250565b600061475c601c8361300e565b915061476782614726565b602082019050919050565b6000602082019050818103600083015261478b8161474f565b9050919050565b7f4e487b7100000000000000000000000000000000000000000000000000000000600052603160045260246000fdfea2646970667358221220f4b8375848ddbd1fbfcaea775614c58fde6667d11e8b6eb227943e2628e00fec64736f6c634300080a0033",
  "immutableReferences": {},
  "source": "// SPDX-License-Identifier: MIT\npragma solidity 0.8.10;\n\nimport \"@openzeppelin/contracts/token/ERC721/extensions/ERC721Enumerable.sol\";\nimport \"@openzeppelin/contracts/access/Ownable.sol\";\n\n/**\n * @title Token ERC721 LNFT\n * @notice This token allows players to enter the game\n */\ncontract LeafNft is ERC721Enumerable, Ownable {\n    using Strings for uint256;\n\n    /// @dev value of first level\n    uint256 constant LEVEL_1 = 10000;\n    /// @dev value of second level\n    uint256 constant LEVEL_2 = 20000;\n    /// @dev value of third level\n    uint256 constant LEVEL_3 = 30000;\n\n    /// @dev uri of ipfs\n    string baseURI;\n    string baseExtension = \".json\";\n\n    /// @dev supply of first level\n    uint256 firstLevelSupply;\n\n    /// @dev ids of nft, maximum 4 for each address (ex: 27, 10027, 20027, 30027)\n    /// @dev owner can have more NFTs\n    mapping(address => uint256[]) idsNft;\n\n    /// @dev mint first 10 NFTs with NFT levels for owner\n    /// @param _name name of token ERC721\n    /// @param _symbol symbol of token ERC721\n    /// @param _initBaseURI base URI of ipfs files\n    constructor(\n        string memory _name,\n        string memory _symbol,\n        string memory _initBaseURI\n    ) ERC721(_name, _symbol) {\n        setBaseURI(_initBaseURI);\n        mintOwner(1);\n    }\n\n    /// @dev player receives his first NFT\n    /// @param _to receiver address\n    /// @return minted NFT ipfs address\n    function firstMint(address _to) external onlyOwner returns (string memory) {\n        require(_to != address(0), \"LeafNFT : must not be equal to address 0\");\n        require(\n            idsNft[_to].length == 0,\n            \"LeafNFT : has already done first mint\"\n        );\n\n        firstLevelSupply++;\n        _safeMint(_to, firstLevelSupply);\n        idsNft[_to].push(firstLevelSupply);\n\n        return tokenURIIpfs(firstLevelSupply);\n    }\n\n    /// @dev player receives his auther NFTs\n    /// @param _to receiver address\n    /// @param _level new NFT level, can be 10000, 20000 or 30000\n    /// @return minted NFT ipfs address\n    function nextMint(address _to, uint256 _level)\n        external\n        onlyOwner\n        returns (string memory)\n    {\n        bool firstExists = (idsNft[_to].length != 0);\n        require(firstExists, \"LeafNFT : must exist first id\");\n\n        uint256 id = idsNft[_to][0];\n        uint256 newNftId = id + _level;\n        _safeMint(_to, newNftId);\n        idsNft[_to].push(newNftId);\n\n        return tokenURIIpfs(newNftId);\n    }\n\n    /// @dev mint _nbNft NFTs of each level for owner\n    /// @param _nbNft number of mint of each level\n    function mintOwner(uint256 _nbNft) public onlyOwner {\n        require(_nbNft > 0, \"LeafNFT : must be greater than 0\");\n        require(\n            _nbNft + firstLevelSupply <= 10000,\n            \"LeafNFT : must be less than 10000\"\n        );\n\n        for (uint256 i = 1; i <= _nbNft; i++) {\n            firstLevelSupply++;\n            _safeMint(msg.sender, firstLevelSupply);\n            _safeMint(msg.sender, LEVEL_1 + firstLevelSupply);\n            _safeMint(msg.sender, LEVEL_2 + firstLevelSupply);\n            _safeMint(msg.sender, LEVEL_3 + firstLevelSupply);\n\n            idsNft[msg.sender].push(firstLevelSupply);\n            idsNft[msg.sender].push(LEVEL_1 + firstLevelSupply);\n            idsNft[msg.sender].push(LEVEL_2 + firstLevelSupply);\n            idsNft[msg.sender].push(LEVEL_3 + firstLevelSupply);\n        }\n    }\n\n    /// @dev ex: nftId = 45 => ipfs://BASE_URI/45.json\n    /// @param _nftId identifier of token ERC721\n    /// @return send json file link in ipfs\n    function tokenURIIpfs(uint256 _nftId)\n        internal\n        view\n        returns (string memory)\n    {\n        require(_exists(_nftId), \"LeafNFT : not exists\");\n\n        string memory currentBaseURI = _baseURI();\n        return\n            bytes(currentBaseURI).length > 0\n                ? string(\n                    abi.encodePacked(\n                        currentBaseURI,\n                        _nftId.toString(),\n                        baseExtension\n                    )\n                )\n                : \"\";\n    }\n\n    /// @return return base uri\n    function _baseURI() internal view virtual override returns (string memory) {\n        return baseURI;\n    }\n\n    /// @dev for players the table can contain a maximum of 4 elements, for owner more\n    /// @param _address a player address\n    /// @return return list of identifiers of token ERC721\n    function getIdsNftByAddress(address _address)\n        external\n        view\n        onlyOwner\n        returns (uint256[] memory)\n    {\n        return idsNft[_address];\n    }\n\n    /// @dev change base URL by _newBaseURI\n    /// @param _newBaseURI new base URI\n    function setBaseURI(string memory _newBaseURI) public onlyOwner {\n        baseURI = _newBaseURI;\n    }\n\n    /// @return return parameter baseURI\n    function getBaseURI() external view onlyOwner returns (string memory) {\n        return baseURI;\n    }\n\n    /// @dev change base extension .json by _newBaseExtension\n    /// @param _newBaseExtension new base extension\n    function setBaseExtension(string memory _newBaseExtension)\n        external\n        onlyOwner\n    {\n        baseExtension = _newBaseExtension;\n    }\n\n    /// @return return parameter baseExtension\n    function getBaseExtension()\n        external\n        view\n        onlyOwner\n        returns (string memory)\n    {\n        return baseExtension;\n    }\n\n    /// @dev return parameter firstLevelSupply\n    /// @return firstLevelSupply\n    function getSupply() external view onlyOwner returns (uint256) {\n        return firstLevelSupply;\n    }\n}\n",
  "sourcePath": "C:\\Users\\Aram\\Desktop\\BLOCKCHAIN\\Alyra\\6_projet_final\\leaf_owner\\contracts\\LeafNft.sol",
  "compiler": {
    "name": "solc",
    "version": "0.8.10+commit.fc410830.Emscripten.clang"
  },
  "schemaVersion": "3.4.3",
  "updatedAt": "2022-01-24T01:16:35.356Z",
  "networkType": "ethereum",
  "devdoc": {
    "kind": "dev",
    "methods": {
      "approve(address,uint256)": {
        "details": "See {IERC721-approve}."
      },
      "balanceOf(address)": {
        "details": "See {IERC721-balanceOf}."
      },
      "constructor": {
        "details": "mint first 10 NFTs with NFT levels for owner",
        "params": {
          "_initBaseURI": "base URI of ipfs files",
          "_name": "name of token ERC721",
          "_symbol": "symbol of token ERC721"
        }
      },
      "firstMint(address)": {
        "details": "player receives his first NFT",
        "params": {
          "_to": "receiver address"
        },
        "returns": {
          "_0": "minted NFT ipfs address"
        }
      },
      "getApproved(uint256)": {
        "details": "See {IERC721-getApproved}."
      },
      "getBaseExtension()": {
        "returns": {
          "_0": "return parameter baseExtension"
        }
      },
      "getBaseURI()": {
        "returns": {
          "_0": "return parameter baseURI"
        }
      },
      "getIdsNftByAddress(address)": {
        "details": "for players the table can contain a maximum of 4 elements, for owner more",
        "params": {
          "_address": "a player address"
        },
        "returns": {
          "_0": "return list of identifiers of token ERC721"
        }
      },
      "getSupply()": {
        "details": "return parameter firstLevelSupply",
        "returns": {
          "_0": "firstLevelSupply"
        }
      },
      "isApprovedForAll(address,address)": {
        "details": "See {IERC721-isApprovedForAll}."
      },
      "mintOwner(uint256)": {
        "details": "mint _nbNft NFTs of each level for owner",
        "params": {
          "_nbNft": "number of mint of each level"
        }
      },
      "name()": {
        "details": "See {IERC721Metadata-name}."
      },
      "nextMint(address,uint256)": {
        "details": "player receives his auther NFTs",
        "params": {
          "_level": "new NFT level, can be 10000, 20000 or 30000",
          "_to": "receiver address"
        },
        "returns": {
          "_0": "minted NFT ipfs address"
        }
      },
      "owner()": {
        "details": "Returns the address of the current owner."
      },
      "ownerOf(uint256)": {
        "details": "See {IERC721-ownerOf}."
      },
      "renounceOwnership()": {
        "details": "Leaves the contract without owner. It will not be possible to call `onlyOwner` functions anymore. Can only be called by the current owner. NOTE: Renouncing ownership will leave the contract without an owner, thereby removing any functionality that is only available to the owner."
      },
      "safeTransferFrom(address,address,uint256)": {
        "details": "See {IERC721-safeTransferFrom}."
      },
      "safeTransferFrom(address,address,uint256,bytes)": {
        "details": "See {IERC721-safeTransferFrom}."
      },
      "setApprovalForAll(address,bool)": {
        "details": "See {IERC721-setApprovalForAll}."
      },
      "setBaseExtension(string)": {
        "details": "change base extension .json by _newBaseExtension",
        "params": {
          "_newBaseExtension": "new base extension"
        }
      },
      "setBaseURI(string)": {
        "details": "change base URL by _newBaseURI",
        "params": {
          "_newBaseURI": "new base URI"
        }
      },
      "supportsInterface(bytes4)": {
        "details": "See {IERC165-supportsInterface}."
      },
      "symbol()": {
        "details": "See {IERC721Metadata-symbol}."
      },
      "tokenByIndex(uint256)": {
        "details": "See {IERC721Enumerable-tokenByIndex}."
      },
      "tokenOfOwnerByIndex(address,uint256)": {
        "details": "See {IERC721Enumerable-tokenOfOwnerByIndex}."
      },
      "tokenURI(uint256)": {
        "details": "See {IERC721Metadata-tokenURI}."
      },
      "totalSupply()": {
        "details": "See {IERC721Enumerable-totalSupply}."
      },
      "transferFrom(address,address,uint256)": {
        "details": "See {IERC721-transferFrom}."
      },
      "transferOwnership(address)": {
        "details": "Transfers ownership of the contract to a new account (`newOwner`). Can only be called by the current owner."
      }
    },
    "stateVariables": {
      "LEVEL_1": {
        "details": "value of first level"
      },
      "LEVEL_2": {
        "details": "value of second level"
      },
      "LEVEL_3": {
        "details": "value of third level"
      },
      "baseURI": {
        "details": "uri of ipfs"
      },
      "firstLevelSupply": {
        "details": "supply of first level"
      },
      "idsNft": {
        "details": "ids of nft, maximum 4 for each address (ex: 27, 10027, 20027, 30027)owner can have more NFTs"
      }
    },
    "title": "Token ERC721 LNFT",
    "version": 1
  },
  "userdoc": {
    "kind": "user",
    "methods": {},
    "notice": "This token allows players to enter the game",
    "version": 1
  }
}