{
  "contractName": "LeafDapp",
  "abi": [
    {
      "inputs": [
        {
          "internalType": "address",
          "name": "_leaf",
          "type": "address"
        },
        {
          "internalType": "address",
          "name": "_nft",
          "type": "address"
        }
      ],
      "stateMutability": "nonpayable",
      "type": "constructor"
    },
    {
      "anonymous": false,
      "inputs": [
        {
          "indexed": false,
          "internalType": "address",
          "name": "_address",
          "type": "address"
        },
        {
          "indexed": false,
          "internalType": "uint256",
          "name": "amountLeaf",
          "type": "uint256"
        }
      ],
      "name": "LeafTransfer",
      "type": "event"
    },
    {
      "anonymous": false,
      "inputs": [
        {
          "indexed": false,
          "internalType": "address",
          "name": "_address",
          "type": "address"
        },
        {
          "indexed": false,
          "internalType": "string",
          "name": "uriIpfs",
          "type": "string"
        }
      ],
      "name": "NftBuyed",
      "type": "event"
    },
    {
      "anonymous": false,
      "inputs": [
        {
          "indexed": true,
          "internalType": "address",
          "name": "previousOwner",
          "type": "address"
        },
        {
          "indexed": true,
          "internalType": "address",
          "name": "newOwner",
          "type": "address"
        }
      ],
      "name": "OwnershipTransferred",
      "type": "event"
    },
    {
      "inputs": [],
      "name": "owner",
      "outputs": [
        {
          "internalType": "address",
          "name": "",
          "type": "address"
        }
      ],
      "stateMutability": "view",
      "type": "function",
      "constant": true
    },
    {
      "inputs": [],
      "name": "renounceOwnership",
      "outputs": [],
      "stateMutability": "nonpayable",
      "type": "function"
    },
    {
      "inputs": [
        {
          "internalType": "address",
          "name": "newOwner",
          "type": "address"
        }
      ],
      "name": "transferOwnership",
      "outputs": [],
      "stateMutability": "nonpayable",
      "type": "function"
    },
    {
      "inputs": [],
      "name": "mintLeaf",
      "outputs": [],
      "stateMutability": "nonpayable",
      "type": "function"
    },
    {
      "inputs": [],
      "name": "buyNft",
      "outputs": [],
      "stateMutability": "payable",
      "type": "function",
      "payable": true
    },
    {
      "inputs": [
        {
          "internalType": "uint32",
          "name": "_nbStep",
          "type": "uint32"
        }
      ],
      "name": "stepToLeaf",
      "outputs": [],
      "stateMutability": "nonpayable",
      "type": "function"
    },
    {
      "inputs": [
        {
          "internalType": "uint32",
          "name": "_nbStep",
          "type": "uint32"
        }
      ],
      "name": "stepToLeafWithoutTimestamp",
      "outputs": [],
      "stateMutability": "nonpayable",
      "type": "function"
    },
    {
      "inputs": [
        {
          "internalType": "uint256",
          "name": "_amount",
          "type": "uint256"
        }
      ],
      "name": "withdraw",
      "outputs": [],
      "stateMutability": "nonpayable",
      "type": "function"
    },
    {
      "inputs": [],
      "name": "getPlayer",
      "outputs": [
        {
          "components": [
            {
              "internalType": "uint32",
              "name": "oldNbStep",
              "type": "uint32"
            },
            {
              "internalType": "uint32",
              "name": "nbDaySuccess",
              "type": "uint32"
            },
            {
              "internalType": "uint32",
              "name": "level",
              "type": "uint32"
            },
            {
              "internalType": "uint256",
              "name": "totalNbStep",
              "type": "uint256"
            },
            {
              "internalType": "uint256",
              "name": "lastUpdateDate",
              "type": "uint256"
            },
            {
              "internalType": "string[]",
              "name": "uriIpfs",
              "type": "string[]"
            }
          ],
          "internalType": "struct LeafDapp.Player",
          "name": "",
          "type": "tuple"
        }
      ],
      "stateMutability": "view",
      "type": "function",
      "constant": true
    },
    {
      "inputs": [
        {
          "internalType": "bool",
          "name": "_state",
          "type": "bool"
        }
      ],
      "name": "setPause",
      "outputs": [],
      "stateMutability": "nonpayable",
      "type": "function"
    },
    {
      "inputs": [],
      "name": "getPause",
      "outputs": [
        {
          "internalType": "bool",
          "name": "",
          "type": "bool"
        }
      ],
      "stateMutability": "view",
      "type": "function",
      "constant": true
    },
    {
      "inputs": [
        {
          "internalType": "bool",
          "name": "_state",
          "type": "bool"
        }
      ],
      "name": "setTest",
      "outputs": [],
      "stateMutability": "nonpayable",
      "type": "function"
    },
    {
      "inputs": [],
      "name": "getTest",
      "outputs": [
        {
          "internalType": "bool",
          "name": "",
          "type": "bool"
        }
      ],
      "stateMutability": "view",
      "type": "function",
      "constant": true
    },
    {
      "inputs": [
        {
          "internalType": "uint256",
          "name": "_newCost",
          "type": "uint256"
        }
      ],
      "name": "setCost",
      "outputs": [],
      "stateMutability": "nonpayable",
      "type": "function"
    },
    {
      "inputs": [
        {
          "internalType": "address",
          "name": "_player",
          "type": "address"
        }
      ],
      "name": "whitelistPlayer",
      "outputs": [],
      "stateMutability": "nonpayable",
      "type": "function"
    },
    {
      "inputs": [
        {
          "internalType": "address",
          "name": "_player",
          "type": "address"
        }
      ],
      "name": "removeWhitelistPlayer",
      "outputs": [],
      "stateMutability": "nonpayable",
      "type": "function"
    },
    {
      "inputs": [
        {
          "internalType": "address",
          "name": "_player",
          "type": "address"
        }
      ],
      "name": "balancePlayer",
      "outputs": [
        {
          "internalType": "uint256",
          "name": "",
          "type": "uint256"
        }
      ],
      "stateMutability": "view",
      "type": "function",
      "constant": true
    },
    {
      "inputs": [],
      "name": "balance",
      "outputs": [
        {
          "internalType": "uint256",
          "name": "",
          "type": "uint256"
        }
      ],
      "stateMutability": "view",
      "type": "function",
      "constant": true
    },
    {
      "inputs": [],
      "name": "balanceNft",
      "outputs": [
        {
          "internalType": "uint256",
          "name": "",
          "type": "uint256"
        }
      ],
      "stateMutability": "view",
      "type": "function",
      "constant": true
    },
    {
      "inputs": [],
      "name": "balanceDappLeaf",
      "outputs": [
        {
          "internalType": "uint256",
          "name": "",
          "type": "uint256"
        }
      ],
      "stateMutability": "view",
      "type": "function",
      "constant": true
    },
    {
      "inputs": [],
      "name": "balanceDappEth",
      "outputs": [
        {
          "internalType": "uint256",
          "name": "",
          "type": "uint256"
        }
      ],
      "stateMutability": "view",
      "type": "function",
      "constant": true
    },
    {
      "inputs": [],
      "name": "getLeaf",
      "outputs": [
        {
          "internalType": "contract LeafToken",
          "name": "",
          "type": "address"
        }
      ],
      "stateMutability": "view",
      "type": "function",
      "constant": true
    },
    {
      "inputs": [],
      "name": "getNft",
      "outputs": [
        {
          "internalType": "contract LeafNft",
          "name": "",
          "type": "address"
        }
      ],
      "stateMutability": "view",
      "type": "function",
      "constant": true
    }
  ],
  "bytecode": "0x6080604052662386f26fc100006001556127106002556a7c13bc4b2c133c560000006003556000600460006101000a81548160ff0219169083151502179055506001600460016101000a81548160ff0219169083151502179055503480156200006757600080fd5b5060405162003a1938038062003a1983398181016040528101906200008d91906200026d565b620000ad620000a16200013760201b60201c565b6200013f60201b60201c565b81600460026101000a81548173ffffffffffffffffffffffffffffffffffffffff021916908373ffffffffffffffffffffffffffffffffffffffff16021790555080600560006101000a81548173ffffffffffffffffffffffffffffffffffffffff021916908373ffffffffffffffffffffffffffffffffffffffff1602179055505050620002b4565b600033905090565b60008060009054906101000a900473ffffffffffffffffffffffffffffffffffffffff169050816000806101000a81548173ffffffffffffffffffffffffffffffffffffffff021916908373ffffffffffffffffffffffffffffffffffffffff1602179055508173ffffffffffffffffffffffffffffffffffffffff168173ffffffffffffffffffffffffffffffffffffffff167f8be0079c531659141344cd1fd0a4f28419497f9722a3daafe3b4186f6b6457e060405160405180910390a35050565b600080fd5b600073ffffffffffffffffffffffffffffffffffffffff82169050919050565b6000620002358262000208565b9050919050565b620002478162000228565b81146200025357600080fd5b50565b60008151905062000267816200023c565b92915050565b6000806040838503121562000287576200028662000203565b5b6000620002978582860162000256565b9250506020620002aa8582860162000256565b9150509250929050565b61375580620002c46000396000f3fe6080604052600436106101805760003560e01c80638da5cb5b116100d6578063be559f7a1161007f578063e69257c211610059578063e69257c2146104bd578063f2fde38b146104c7578063fc412897146104f057610180565b8063be559f7a1461043e578063bedb86fb14610469578063dee781441461049257610180565b8063abb643bf116100b0578063abb643bf146103bd578063ac513fb8146103e8578063b69ef8a81461041357610180565b80638da5cb5b1461033e578063a8cd0a8014610369578063abb4eeed1461039457610180565b806365341ced1161013857806370b247fa1161011257806370b247fa146102bf578063715018a6146102fc57806378c861011461031357610180565b806365341ced146102565780636582ebcf1461026d57806369e9f2381461029657610180565b80633308f42d116101695780633308f42d146101d75780633e3ca9d31461020257806344a0d68a1461022d57610180565b80630d897b90146101855780632e1a7d4d146101ae575b600080fd5b34801561019157600080fd5b506101ac60048036038101906101a7919061286e565b610519565b005b3480156101ba57600080fd5b506101d560048036038101906101d091906128d1565b610976565b005b3480156101e357600080fd5b506101ec610a3c565b6040516101f99190612b00565b60405180910390f35b34801561020e57600080fd5b50610217610c77565b6040516102249190612b3d565b60405180910390f35b34801561023957600080fd5b50610254600480360381019061024f91906128d1565b610d0a565b005b34801561026257600080fd5b5061026b610d90565b005b34801561027957600080fd5b50610294600480360381019061028f9190612b84565b610f48565b005b3480156102a257600080fd5b506102bd60048036038101906102b89190612c0f565b610fe1565b005b3480156102cb57600080fd5b506102e660048036038101906102e19190612c0f565b611128565b6040516102f39190612c4b565b60405180910390f35b34801561030857600080fd5b50610311611249565b005b34801561031f57600080fd5b506103286112d1565b6040516103359190612c4b565b60405180910390f35b34801561034a57600080fd5b506103536113f9565b6040516103609190612c75565b60405180910390f35b34801561037557600080fd5b5061037e611422565b60405161038b9190612b3d565b60405180910390f35b3480156103a057600080fd5b506103bb60048036038101906103b69190612c0f565b6114b5565b005b3480156103c957600080fd5b506103d26115fc565b6040516103df9190612c4b565b60405180910390f35b3480156103f457600080fd5b506103fd611690565b60405161040a9190612cef565b60405180910390f35b34801561041f57600080fd5b50610428611736565b6040516104359190612c4b565b60405180910390f35b34801561044a57600080fd5b50610453611821565b6040516104609190612d2b565b60405180910390f35b34801561047557600080fd5b50610490600480360381019061048b9190612b84565b6118c7565b005b34801561049e57600080fd5b506104a7611960565b6040516104b49190612c4b565b60405180910390f35b6104c56119e4565b005b3480156104d357600080fd5b506104ee60048036038101906104e99190612c0f565b611d5c565b005b3480156104fc57600080fd5b506105176004803603810190610512919061286e565b611e54565b005b610522336122e3565b610561576040517f08c379a000000000000000000000000000000000000000000000000000000000815260040161055890612dc9565b60405180910390fd5b600460019054906101000a900460ff1661057a57600080fd5b600460009054906101000a900460ff16156105ca576040517f08c379a00000000000000000000000000000000000000000000000000000000081526004016105c190612e35565b60405180910390fd5b6105d3336122e3565b610612576040517f08c379a000000000000000000000000000000000000000000000000000000000815260040161060990612ea1565b60405180910390fd5b6000600a826106219190612f1f565b63ffffffff1690506103e88263ffffffff16106108d65742600660003373ffffffffffffffffffffffffffffffffffffffff1673ffffffffffffffffffffffffffffffffffffffff16815260200190815260200160002060020181905550600660003373ffffffffffffffffffffffffffffffffffffffff1673ffffffffffffffffffffffffffffffffffffffff168152602001908152602001600020600001600481819054906101000a900463ffffffff16809291906106e190612f50565b91906101000a81548163ffffffff021916908363ffffffff1602179055505081600660003373ffffffffffffffffffffffffffffffffffffffff1673ffffffffffffffffffffffffffffffffffffffff16815260200190815260200160002060000160006101000a81548163ffffffff021916908363ffffffff1602179055508163ffffffff16600660003373ffffffffffffffffffffffffffffffffffffffff1673ffffffffffffffffffffffffffffffffffffffff16815260200190815260200160002060010160008282546107b99190612f7d565b925050819055506003600660003373ffffffffffffffffffffffffffffffffffffffff1673ffffffffffffffffffffffffffffffffffffffff16815260200190815260200160002060000160089054906101000a900463ffffffff1663ffffffff16101561082f5761082a336123a8565b6108d1565b600460029054906101000a900473ffffffffffffffffffffffffffffffffffffffff1673ffffffffffffffffffffffffffffffffffffffff1663a9059cbb33836040518363ffffffff1660e01b815260040161088c929190612fd3565b6020604051808303816000875af11580156108ab573d6000803e3d6000fd5b505050506040513d601f19601f820116820180604052508101906108cf9190613011565b505b610939565b6000600660003373ffffffffffffffffffffffffffffffffffffffff1673ffffffffffffffffffffffffffffffffffffffff16815260200190815260200160002060000160046101000a81548163ffffffff021916908363ffffffff1602179055505b7ffdc7244a84d48018e10560cd2998b0f8407ac5505af29ca3578d6730796f5b30338260405161096a929190612fd3565b60405180910390a15050565b61097e6125cf565b73ffffffffffffffffffffffffffffffffffffffff1661099c6113f9565b73ffffffffffffffffffffffffffffffffffffffff16146109f2576040517f08c379a00000000000000000000000000000000000000000000000000000000081526004016109e99061308a565b60405180910390fd5b3373ffffffffffffffffffffffffffffffffffffffff166108fc829081150290604051600060405180830381858888f19350505050158015610a38573d6000803e3d6000fd5b5050565b610a44612733565b3373ffffffffffffffffffffffffffffffffffffffff16610a636113f9565b73ffffffffffffffffffffffffffffffffffffffff161480610a8a5750610a89336122e3565b5b610ac9576040517f08c379a0000000000000000000000000000000000000000000000000000000008152600401610ac090612dc9565b60405180910390fd5b600660003373ffffffffffffffffffffffffffffffffffffffff1673ffffffffffffffffffffffffffffffffffffffff1681526020019081526020016000206040518060c00160405290816000820160009054906101000a900463ffffffff1663ffffffff1663ffffffff1681526020016000820160049054906101000a900463ffffffff1663ffffffff1663ffffffff1681526020016000820160089054906101000a900463ffffffff1663ffffffff1663ffffffff168152602001600182015481526020016002820154815260200160038201805480602002602001604051908101604052809291908181526020016000905b82821015610c6a578382906000526020600020018054610bdd906130d9565b80601f0160208091040260200160405190810160405280929190818152602001828054610c09906130d9565b8015610c565780601f10610c2b57610100808354040283529160200191610c56565b820191906000526020600020905b815481529060010190602001808311610c3957829003601f168201915b505050505081526020019060010190610bbe565b5050505081525050905090565b6000610c816125cf565b73ffffffffffffffffffffffffffffffffffffffff16610c9f6113f9565b73ffffffffffffffffffffffffffffffffffffffff1614610cf5576040517f08c379a0000000000000000000000000000000000000000000000000000000008152600401610cec9061308a565b60405180910390fd5b600460009054906101000a900460ff16905090565b610d126125cf565b73ffffffffffffffffffffffffffffffffffffffff16610d306113f9565b73ffffffffffffffffffffffffffffffffffffffff1614610d86576040517f08c379a0000000000000000000000000000000000000000000000000000000008152600401610d7d9061308a565b60405180910390fd5b8060018190555050565b610d986125cf565b73ffffffffffffffffffffffffffffffffffffffff16610db66113f9565b73ffffffffffffffffffffffffffffffffffffffff1614610e0c576040517f08c379a0000000000000000000000000000000000000000000000000000000008152600401610e039061308a565b60405180910390fd5b600460029054906101000a900473ffffffffffffffffffffffffffffffffffffffff1673ffffffffffffffffffffffffffffffffffffffff1663a0712d686003546040518263ffffffff1660e01b8152600401610e699190612c4b565b600060405180830381600087803b158015610e8357600080fd5b505af1158015610e97573d6000803e3d6000fd5b50505050600460029054906101000a900473ffffffffffffffffffffffffffffffffffffffff1673ffffffffffffffffffffffffffffffffffffffff1663a9059cbb3369d3c21bcecceda10000006040518363ffffffff1660e01b8152600401610f02929190612fd3565b6020604051808303816000875af1158015610f21573d6000803e3d6000fd5b505050506040513d601f19601f82011682018060405250810190610f459190613011565b50565b610f506125cf565b73ffffffffffffffffffffffffffffffffffffffff16610f6e6113f9565b73ffffffffffffffffffffffffffffffffffffffff1614610fc4576040517f08c379a0000000000000000000000000000000000000000000000000000000008152600401610fbb9061308a565b60405180910390fd5b80600460016101000a81548160ff02191690831515021790555050565b610fe96125cf565b73ffffffffffffffffffffffffffffffffffffffff166110076113f9565b73ffffffffffffffffffffffffffffffffffffffff161461105d576040517f08c379a00000000000000000000000000000000000000000000000000000000081526004016110549061308a565b60405180910390fd5b600073ffffffffffffffffffffffffffffffffffffffff168173ffffffffffffffffffffffffffffffffffffffff1614156110cd576040517f08c379a00000000000000000000000000000000000000000000000000000000081526004016110c49061317d565b60405180910390fd5b6001600760008373ffffffffffffffffffffffffffffffffffffffff1673ffffffffffffffffffffffffffffffffffffffff16815260200190815260200160002060006101000a81548160ff02191690831515021790555050565b60006111326125cf565b73ffffffffffffffffffffffffffffffffffffffff166111506113f9565b73ffffffffffffffffffffffffffffffffffffffff16146111a6576040517f08c379a000000000000000000000000000000000000000000000000000000000815260040161119d9061308a565b60405180910390fd5b600460029054906101000a900473ffffffffffffffffffffffffffffffffffffffff1673ffffffffffffffffffffffffffffffffffffffff166370a08231836040518263ffffffff1660e01b81526004016112019190612c75565b602060405180830381865afa15801561121e573d6000803e3d6000fd5b505050506040513d601f19601f8201168201806040525081019061124291906131b2565b9050919050565b6112516125cf565b73ffffffffffffffffffffffffffffffffffffffff1661126f6113f9565b73ffffffffffffffffffffffffffffffffffffffff16146112c5576040517f08c379a00000000000000000000000000000000000000000000000000000000081526004016112bc9061308a565b60405180910390fd5b6112cf60006125d7565b565b60003373ffffffffffffffffffffffffffffffffffffffff166112f26113f9565b73ffffffffffffffffffffffffffffffffffffffff1614806113195750611318336122e3565b5b611358576040517f08c379a000000000000000000000000000000000000000000000000000000000815260040161134f90612dc9565b60405180910390fd5b600460029054906101000a900473ffffffffffffffffffffffffffffffffffffffff1673ffffffffffffffffffffffffffffffffffffffff166370a08231306040518263ffffffff1660e01b81526004016113b39190612c75565b602060405180830381865afa1580156113d0573d6000803e3d6000fd5b505050506040513d601f19601f820116820180604052508101906113f491906131b2565b905090565b60008060009054906101000a900473ffffffffffffffffffffffffffffffffffffffff16905090565b600061142c6125cf565b73ffffffffffffffffffffffffffffffffffffffff1661144a6113f9565b73ffffffffffffffffffffffffffffffffffffffff16146114a0576040517f08c379a00000000000000000000000000000000000000000000000000000000081526004016114979061308a565b60405180910390fd5b600460019054906101000a900460ff16905090565b6114bd6125cf565b73ffffffffffffffffffffffffffffffffffffffff166114db6113f9565b73ffffffffffffffffffffffffffffffffffffffff1614611531576040517f08c379a00000000000000000000000000000000000000000000000000000000081526004016115289061308a565b60405180910390fd5b600073ffffffffffffffffffffffffffffffffffffffff168173ffffffffffffffffffffffffffffffffffffffff1614156115a1576040517f08c379a00000000000000000000000000000000000000000000000000000000081526004016115989061317d565b60405180910390fd5b6000600760008373ffffffffffffffffffffffffffffffffffffffff1673ffffffffffffffffffffffffffffffffffffffff16815260200190815260200160002060006101000a81548160ff02191690831515021790555050565b60003373ffffffffffffffffffffffffffffffffffffffff1661161d6113f9565b73ffffffffffffffffffffffffffffffffffffffff1614806116445750611643336122e3565b5b611683576040517f08c379a000000000000000000000000000000000000000000000000000000000815260040161167a90612dc9565b60405180910390fd5b61168b61269b565b905090565b600061169a6125cf565b73ffffffffffffffffffffffffffffffffffffffff166116b86113f9565b73ffffffffffffffffffffffffffffffffffffffff161461170e576040517f08c379a00000000000000000000000000000000000000000000000000000000081526004016117059061308a565b60405180910390fd5b600560009054906101000a900473ffffffffffffffffffffffffffffffffffffffff16905090565b6000611741336122e3565b611780576040517f08c379a000000000000000000000000000000000000000000000000000000000815260040161177790612dc9565b60405180910390fd5b600460029054906101000a900473ffffffffffffffffffffffffffffffffffffffff1673ffffffffffffffffffffffffffffffffffffffff166370a08231336040518263ffffffff1660e01b81526004016117db9190612c75565b602060405180830381865afa1580156117f8573d6000803e3d6000fd5b505050506040513d601f19601f8201168201806040525081019061181c91906131b2565b905090565b600061182b6125cf565b73ffffffffffffffffffffffffffffffffffffffff166118496113f9565b73ffffffffffffffffffffffffffffffffffffffff161461189f576040517f08c379a00000000000000000000000000000000000000000000000000000000081526004016118969061308a565b60405180910390fd5b600460029054906101000a900473ffffffffffffffffffffffffffffffffffffffff16905090565b6118cf6125cf565b73ffffffffffffffffffffffffffffffffffffffff166118ed6113f9565b73ffffffffffffffffffffffffffffffffffffffff1614611943576040517f08c379a000000000000000000000000000000000000000000000000000000000815260040161193a9061308a565b60405180910390fd5b80600460006101000a81548160ff02191690831515021790555050565b600061196a6125cf565b73ffffffffffffffffffffffffffffffffffffffff166119886113f9565b73ffffffffffffffffffffffffffffffffffffffff16146119de576040517f08c379a00000000000000000000000000000000000000000000000000000000081526004016119d59061308a565b60405180910390fd5b47905090565b6119ed336122e3565b15611a2d576040517f08c379a0000000000000000000000000000000000000000000000000000000008152600401611a2490613251565b60405180910390fd5b600760003373ffffffffffffffffffffffffffffffffffffffff1673ffffffffffffffffffffffffffffffffffffffff16815260200190815260200160002060009054906101000a900460ff1615611aba576040517f08c379a0000000000000000000000000000000000000000000000000000000008152600401611ab190613251565b60405180910390fd5b600460009054906101000a900460ff1615611b0a576040517f08c379a0000000000000000000000000000000000000000000000000000000008152600401611b0190612e35565b60405180910390fd5b60003490506000611b1961269b565b90506001548214611b5f576040517f08c379a0000000000000000000000000000000000000000000000000000000008152600401611b56906132e3565b60405180910390fd5b6002548110611ba3576040517f08c379a0000000000000000000000000000000000000000000000000000000008152600401611b9a90613375565b60405180910390fd5b6000600560009054906101000a900473ffffffffffffffffffffffffffffffffffffffff1673ffffffffffffffffffffffffffffffffffffffff166305afb3a4336040518263ffffffff1660e01b8152600401611c009190612c75565b6000604051808303816000875af1158015611c1f573d6000803e3d6000fd5b505050506040513d6000823e3d601f19601f82011682018060405250810190611c4891906134bb565b9050600660003373ffffffffffffffffffffffffffffffffffffffff1673ffffffffffffffffffffffffffffffffffffffff16815260200190815260200160002060030181908060018154018082558091505060019003906000526020600020016000909190919091509080519060200190611cc592919061277b565b506001600760003373ffffffffffffffffffffffffffffffffffffffff1673ffffffffffffffffffffffffffffffffffffffff16815260200190815260200160002060006101000a81548160ff0219169083151502179055507ff0b6e46f60e87f78ab3b70f17bce0b29d1ec227bd0959f7dace8b8f8079d3fe23382604051611d4f92919061353d565b60405180910390a1505050565b611d646125cf565b73ffffffffffffffffffffffffffffffffffffffff16611d826113f9565b73ffffffffffffffffffffffffffffffffffffffff1614611dd8576040517f08c379a0000000000000000000000000000000000000000000000000000000008152600401611dcf9061308a565b60405180910390fd5b600073ffffffffffffffffffffffffffffffffffffffff168173ffffffffffffffffffffffffffffffffffffffff161415611e48576040517f08c379a0000000000000000000000000000000000000000000000000000000008152600401611e3f906135df565b60405180910390fd5b611e51816125d7565b50565b611e5d336122e3565b611e9c576040517f08c379a0000000000000000000000000000000000000000000000000000000008152600401611e9390612dc9565b60405180910390fd5b62015180600660003373ffffffffffffffffffffffffffffffffffffffff1673ffffffffffffffffffffffffffffffffffffffff1681526020019081526020016000206002015442611eee91906135ff565b1015611f2f576040517f08c379a0000000000000000000000000000000000000000000000000000000008152600401611f26906136a5565b60405180910390fd5b600460009054906101000a900460ff1615611f7f576040517f08c379a0000000000000000000000000000000000000000000000000000000008152600401611f7690612e35565b60405180910390fd5b6000600a82611f8e9190612f1f565b63ffffffff1690506103e88263ffffffff16106122435742600660003373ffffffffffffffffffffffffffffffffffffffff1673ffffffffffffffffffffffffffffffffffffffff16815260200190815260200160002060020181905550600660003373ffffffffffffffffffffffffffffffffffffffff1673ffffffffffffffffffffffffffffffffffffffff168152602001908152602001600020600001600481819054906101000a900463ffffffff168092919061204e90612f50565b91906101000a81548163ffffffff021916908363ffffffff1602179055505081600660003373ffffffffffffffffffffffffffffffffffffffff1673ffffffffffffffffffffffffffffffffffffffff16815260200190815260200160002060000160006101000a81548163ffffffff021916908363ffffffff1602179055508163ffffffff16600660003373ffffffffffffffffffffffffffffffffffffffff1673ffffffffffffffffffffffffffffffffffffffff16815260200190815260200160002060010160008282546121269190612f7d565b925050819055506003600660003373ffffffffffffffffffffffffffffffffffffffff1673ffffffffffffffffffffffffffffffffffffffff16815260200190815260200160002060000160089054906101000a900463ffffffff1663ffffffff16101561219c57612197336123a8565b61223e565b600460029054906101000a900473ffffffffffffffffffffffffffffffffffffffff1673ffffffffffffffffffffffffffffffffffffffff1663a9059cbb33836040518363ffffffff1660e01b81526004016121f9929190612fd3565b6020604051808303816000875af1158015612218573d6000803e3d6000fd5b505050506040513d601f19601f8201168201806040525081019061223c9190613011565b505b6122a6565b6000600660003373ffffffffffffffffffffffffffffffffffffffff1673ffffffffffffffffffffffffffffffffffffffff16815260200190815260200160002060000160046101000a81548163ffffffff021916908363ffffffff1602179055505b7ffdc7244a84d48018e10560cd2998b0f8407ac5505af29ca3578d6730796f5b3033826040516122d7929190612fd3565b60405180910390a15050565b60008073ffffffffffffffffffffffffffffffffffffffff168273ffffffffffffffffffffffffffffffffffffffff161415612354576040517f08c379a000000000000000000000000000000000000000000000000000000000815260040161234b9061317d565b60405180910390fd5b600760008373ffffffffffffffffffffffffffffffffffffffff1673ffffffffffffffffffffffffffffffffffffffff16815260200190815260200160002060009054906101000a900460ff169050919050565b6123b1816122e3565b6123ba57600080fd5b600660008273ffffffffffffffffffffffffffffffffffffffff1673ffffffffffffffffffffffffffffffffffffffff168152602001908152602001600020600001600881819054906101000a900463ffffffff168092919061241c90612f50565b91906101000a81548163ffffffff021916908363ffffffff160217905550506000612710600660008473ffffffffffffffffffffffffffffffffffffffff1673ffffffffffffffffffffffffffffffffffffffff16815260200190815260200160002060000160089054906101000a900463ffffffff1663ffffffff166124a391906136c5565b90506000600560009054906101000a900473ffffffffffffffffffffffffffffffffffffffff1673ffffffffffffffffffffffffffffffffffffffff16639aa7d2c084846040518363ffffffff1660e01b8152600401612504929190612fd3565b6000604051808303816000875af1158015612523573d6000803e3d6000fd5b505050506040513d6000823e3d601f19601f8201168201806040525081019061254c91906134bb565b9050600660008473ffffffffffffffffffffffffffffffffffffffff1673ffffffffffffffffffffffffffffffffffffffff168152602001908152602001600020600301819080600181540180825580915050600190039060005260206000200160009091909190915090805190602001906125c992919061277b565b50505050565b600033905090565b60008060009054906101000a900473ffffffffffffffffffffffffffffffffffffffff169050816000806101000a81548173ffffffffffffffffffffffffffffffffffffffff021916908373ffffffffffffffffffffffffffffffffffffffff1602179055508173ffffffffffffffffffffffffffffffffffffffff168173ffffffffffffffffffffffffffffffffffffffff167f8be0079c531659141344cd1fd0a4f28419497f9722a3daafe3b4186f6b6457e060405160405180910390a35050565b6000600560009054906101000a900473ffffffffffffffffffffffffffffffffffffffff1673ffffffffffffffffffffffffffffffffffffffff16636c9c2faf6040518163ffffffff1660e01b8152600401602060405180830381865afa15801561270a573d6000803e3d6000fd5b505050506040513d601f19601f8201168201806040525081019061272e91906131b2565b905090565b6040518060c00160405280600063ffffffff168152602001600063ffffffff168152602001600063ffffffff1681526020016000815260200160008152602001606081525090565b828054612787906130d9565b90600052602060002090601f0160209004810192826127a957600085556127f0565b82601f106127c257805160ff19168380011785556127f0565b828001600101855582156127f0579182015b828111156127ef5782518255916020019190600101906127d4565b5b5090506127fd9190612801565b5090565b5b8082111561281a576000816000905550600101612802565b5090565b6000604051905090565b600080fd5b600080fd5b600063ffffffff82169050919050565b61284b81612832565b811461285657600080fd5b50565b60008135905061286881612842565b92915050565b60006020828403121561288457612883612828565b5b600061289284828501612859565b91505092915050565b6000819050919050565b6128ae8161289b565b81146128b957600080fd5b50565b6000813590506128cb816128a5565b92915050565b6000602082840312156128e7576128e6612828565b5b60006128f5848285016128bc565b91505092915050565b61290781612832565b82525050565b6129168161289b565b82525050565b600081519050919050565b600082825260208201905092915050565b6000819050602082019050919050565b600081519050919050565b600082825260208201905092915050565b60005b83811015612982578082015181840152602081019050612967565b83811115612991576000848401525b50505050565b6000601f19601f8301169050919050565b60006129b382612948565b6129bd8185612953565b93506129cd818560208601612964565b6129d681612997565b840191505092915050565b60006129ed83836129a8565b905092915050565b6000602082019050919050565b6000612a0d8261291c565b612a178185612927565b935083602082028501612a2985612938565b8060005b85811015612a655784840389528151612a4685826129e1565b9450612a51836129f5565b925060208a01995050600181019050612a2d565b50829750879550505050505092915050565b600060c083016000830151612a8f60008601826128fe565b506020830151612aa260208601826128fe565b506040830151612ab560408601826128fe565b506060830151612ac8606086018261290d565b506080830151612adb608086018261290d565b5060a083015184820360a0860152612af38282612a02565b9150508091505092915050565b60006020820190508181036000830152612b1a8184612a77565b905092915050565b60008115159050919050565b612b3781612b22565b82525050565b6000602082019050612b526000830184612b2e565b92915050565b612b6181612b22565b8114612b6c57600080fd5b50565b600081359050612b7e81612b58565b92915050565b600060208284031215612b9a57612b99612828565b5b6000612ba884828501612b6f565b91505092915050565b600073ffffffffffffffffffffffffffffffffffffffff82169050919050565b6000612bdc82612bb1565b9050919050565b612bec81612bd1565b8114612bf757600080fd5b50565b600081359050612c0981612be3565b92915050565b600060208284031215612c2557612c24612828565b5b6000612c3384828501612bfa565b91505092915050565b612c458161289b565b82525050565b6000602082019050612c606000830184612c3c565b92915050565b612c6f81612bd1565b82525050565b6000602082019050612c8a6000830184612c66565b92915050565b6000819050919050565b6000612cb5612cb0612cab84612bb1565b612c90565b612bb1565b9050919050565b6000612cc782612c9a565b9050919050565b6000612cd982612cbc565b9050919050565b612ce981612cce565b82525050565b6000602082019050612d046000830184612ce0565b92915050565b6000612d1582612cbc565b9050919050565b612d2581612d0a565b82525050565b6000602082019050612d406000830184612d1c565b92915050565b600082825260208201905092915050565b7f4c65616644617070203a2063616c6c6572206973206e6f74206120706c61796560008201527f7200000000000000000000000000000000000000000000000000000000000000602082015250565b6000612db3602183612d46565b9150612dbe82612d57565b604082019050919050565b60006020820190508181036000830152612de281612da6565b9050919050565b7f4c65616644617070203a20697320706175736564000000000000000000000000600082015250565b6000612e1f601483612d46565b9150612e2a82612de9565b602082019050919050565b60006020820190508181036000830152612e4e81612e12565b9050919050565b7f4c65616644417070203a206e6f74206120706c61796572000000000000000000600082015250565b6000612e8b601783612d46565b9150612e9682612e55565b602082019050919050565b60006020820190508181036000830152612eba81612e7e565b9050919050565b7f4e487b7100000000000000000000000000000000000000000000000000000000600052601260045260246000fd5b7f4e487b7100000000000000000000000000000000000000000000000000000000600052601160045260246000fd5b6000612f2a82612832565b9150612f3583612832565b925082612f4557612f44612ec1565b5b828204905092915050565b6000612f5b82612832565b915063ffffffff821415612f7257612f71612ef0565b5b600182019050919050565b6000612f888261289b565b9150612f938361289b565b9250827fffffffffffffffffffffffffffffffffffffffffffffffffffffffffffffffff03821115612fc857612fc7612ef0565b5b828201905092915050565b6000604082019050612fe86000830185612c66565b612ff56020830184612c3c565b9392505050565b60008151905061300b81612b58565b92915050565b60006020828403121561302757613026612828565b5b600061303584828501612ffc565b91505092915050565b7f4f776e61626c653a2063616c6c6572206973206e6f7420746865206f776e6572600082015250565b6000613074602083612d46565b915061307f8261303e565b602082019050919050565b600060208201905081810360008301526130a381613067565b9050919050565b7f4e487b7100000000000000000000000000000000000000000000000000000000600052602260045260246000fd5b600060028204905060018216806130f157607f821691505b60208210811415613105576131046130aa565b5b50919050565b7f4c65616644617070203a206d757374206e6f7420626520657175616c20746f2060008201527f6164647265737320300000000000000000000000000000000000000000000000602082015250565b6000613167602983612d46565b91506131728261310b565b604082019050919050565b600060208201905081810360008301526131968161315a565b9050919050565b6000815190506131ac816128a5565b92915050565b6000602082840312156131c8576131c7612828565b5b60006131d68482850161319d565b91505092915050565b7f4c65616644617070203a2074686973206164647265737320616c72656164792060008201527f68617320616e206e667400000000000000000000000000000000000000000000602082015250565b600061323b602a83612d46565b9150613246826131df565b604082019050919050565b6000602082019050818103600083015261326a8161322e565b9050919050565b7f4c65616644417070203a206d75737420626520617175616c20746f20302e303160008201527f4554480000000000000000000000000000000000000000000000000000000000602082015250565b60006132cd602383612d46565b91506132d882613271565b604082019050919050565b600060208201905081810360008301526132fc816132c0565b9050919050565b7f4c65616644417070203a20746865204c4e46542072657365727665206973206560008201527f6d70747900000000000000000000000000000000000000000000000000000000602082015250565b600061335f602483612d46565b915061336a82613303565b604082019050919050565b6000602082019050818103600083015261338e81613352565b9050919050565b600080fd5b600080fd5b7f4e487b7100000000000000000000000000000000000000000000000000000000600052604160045260246000fd5b6133d782612997565b810181811067ffffffffffffffff821117156133f6576133f561339f565b5b80604052505050565b600061340961281e565b905061341582826133ce565b919050565b600067ffffffffffffffff8211156134355761343461339f565b5b61343e82612997565b9050602081019050919050565b600061345e6134598461341a565b6133ff565b90508281526020810184848401111561347a5761347961339a565b5b613485848285612964565b509392505050565b600082601f8301126134a2576134a1613395565b5b81516134b284826020860161344b565b91505092915050565b6000602082840312156134d1576134d0612828565b5b600082015167ffffffffffffffff8111156134ef576134ee61282d565b5b6134fb8482850161348d565b91505092915050565b600061350f82612948565b6135198185612d46565b9350613529818560208601612964565b61353281612997565b840191505092915050565b60006040820190506135526000830185612c66565b81810360208301526135648184613504565b90509392505050565b7f4f776e61626c653a206e6577206f776e657220697320746865207a65726f206160008201527f6464726573730000000000000000000000000000000000000000000000000000602082015250565b60006135c9602683612d46565b91506135d48261356d565b604082019050919050565b600060208201905081810360008301526135f8816135bc565b9050919050565b600061360a8261289b565b91506136158361289b565b92508282101561362857613627612ef0565b5b828203905092915050565b7f4c65616644417070203a20612064617920686173206e6f74207061737365642060008201527f7965740000000000000000000000000000000000000000000000000000000000602082015250565b600061368f602383612d46565b915061369a82613633565b604082019050919050565b600060208201905081810360008301526136be81613682565b9050919050565b60006136d08261289b565b91506136db8361289b565b9250817fffffffffffffffffffffffffffffffffffffffffffffffffffffffffffffffff048311821515161561371457613713612ef0565b5b82820290509291505056fea26469706673582212202d23e8c0d47eceae0327f5fb19aa597c3c3677f8f99f0552b92c371a143d9e6064736f6c634300080b0033",
  "immutableReferences": {},
  "source": "// SPDX-License-Identifier: MIT\npragma solidity 0.8.11;\n\nimport \"@openzeppelin/contracts/access/Ownable.sol\";\nimport \"./LeafToken.sol\";\nimport \"./LeafNft.sol\";\n\ncontract LeafDapp is Ownable {\n\n  /// @dev value to go to the next level\n  uint constant NEW_LEVEL_VALUE = 10000;\n  uint constant OWNER_LEAFS = 1000000*(10 ** 18);\n  uint constant MIN_NB_STEPS = 1000;\n  uint constant MAX_LEVEL = 3;\n\n  /// @dev the NFT price\n  uint cost = 0.01 ether;\n  /// @dev max supply for 1st level NFTs\n  uint maxSupplyNft = 10000;\n  /// @dev max supply for token LEAF\n  uint maxSupplyLeaf = 150000000 * (10**18);\n  /// @dev to pause the dapp\n  bool paused = false;\n  /// @dev if can do test without time restriction\n  bool test = true;\n  /// @dev the token ERC20 LEAF\n  LeafToken leaf;\n  /// @dev the token ERC721 LNFT\n  LeafNft nft;\n\n  /// @param oldNbStep yesterday's step count\n  /// @param nbDaySuccess number of days success (+10000 steps)\n  /// @param level level of player 0, 1, 2 or 3\n  /// @param totalNbStep total number of steps \n  /// @param lastUpdateDate last update when player had more than 10000 steps\n  /// @param uriIpfs list of ipfs URIs\n  struct Player {\n    uint32 oldNbStep;\n    uint32 nbDaySuccess;\n    uint32 level;\n    uint totalNbStep;\n    uint lastUpdateDate;\n    string[] uriIpfs;\n  }\n\n  /// @dev return player from his address\n  mapping (address => Player) players;\n  /// @dev returns player validity from his address\n  mapping(address => bool) whitelisted;\n\n  /// @dev when new NFT was buyed\n  event NftBuyed(address _address, string uriIpfs);\n  /// @dev when LEAF was transfered\n  event LeafTransfer(address _address, uint amountLeaf);\n\n  /// @param _leaf the ERC20 LEAF token contract address\n  /// @param _nft the ERC721 LNFT token contract address\n  constructor(address _leaf, address _nft) {\n    leaf = LeafToken(_leaf);\n    nft = LeafNft(_nft);\n  }\n\n  modifier onlyPlayer() {\n    require (isPlayer(msg.sender), \"LeafDapp : caller is not a player\");\n    _;\n  }\n\n  modifier onlyOwnerOrPlayer() {\n    require (owner() == msg.sender ||\n      isPlayer(msg.sender), \"LeafDapp : caller is not a player\");\n    _;\n  }\n\n  /// @dev mint million LEAF for owner\n  function mintLeaf() external onlyOwner {\n    leaf.mint(maxSupplyLeaf);\n    leaf.transfer(msg.sender, OWNER_LEAFS);\n  }\n\n  /// @dev to play you have to buy the first NFT\n  function buyNft() payable external {\n    require(! isPlayer(msg.sender), \"LeafDapp : this address already has an nft\");\n    require(! whitelisted[msg.sender], \"LeafDapp : this address already has an nft\");\n    require(!paused, \"LeafDapp : is paused\");\n    uint amountTobuy = msg.value;\n    uint supply = nftSupply();\n    require(amountTobuy == cost, \"LeafDApp : must be aqual to 0.01ETH\");\n    require(supply < maxSupplyNft, \"LeafDApp : the LNFT reserve is empty\");\n\n    string memory newNft = nft.firstMint(msg.sender);\n    players[msg.sender].uriIpfs.push(newNft);\n    whitelisted[msg.sender] = true;\n\n    emit NftBuyed(msg.sender, newNft);\n  }\n\n\n\n  /// @dev update player data related to the number of steps\n  /// @param _nbStep number of steps per day\n  function stepToLeaf(uint32 _nbStep) external onlyPlayer {\n    require(block.timestamp - players[msg.sender].lastUpdateDate >= 1 days,\n      \"LeafDApp : a day has not passed yet\");\n    require(!paused, \"LeafDapp : is paused\");\n    \n    uint amountLeaf = _nbStep / 10;\n\n    if(_nbStep >= MIN_NB_STEPS) {\n      players[msg.sender].lastUpdateDate = block.timestamp;\n      players[msg.sender].nbDaySuccess++;\n      players[msg.sender].oldNbStep = _nbStep;\n      players[msg.sender].totalNbStep += _nbStep;\n      if(players[msg.sender].level < MAX_LEVEL) {\n        setNewLevel(msg.sender);\n      } else {\n        leaf.transfer(msg.sender, amountLeaf);\n      }\n    } else {\n      players[msg.sender].nbDaySuccess = 0;\n    }\n\n    emit LeafTransfer(msg.sender, amountLeaf);\n  }\n\n  function stepToLeafWithoutTimestamp(uint32 _nbStep) external onlyPlayer {\n    require(test);\n    // require(block.timestamp - players[msg.sender].lastUpdateDate >= 1 days,\n    //   \"LeafDApp : a day has not passed yet\");\n    require(!paused, \"LeafDapp : is paused\");\n    require(isPlayer(msg.sender), \"LeafDApp : not a player\");\n    \n    uint amountLeaf = _nbStep / 10;\n\n    if(_nbStep >= MIN_NB_STEPS) {\n      players[msg.sender].lastUpdateDate = block.timestamp;\n      players[msg.sender].nbDaySuccess++;\n      players[msg.sender].oldNbStep = _nbStep;\n      players[msg.sender].totalNbStep += _nbStep;\n      if(players[msg.sender].level < MAX_LEVEL) {\n        setNewLevel(msg.sender);\n      } else {\n        leaf.transfer(msg.sender, amountLeaf);\n      }\n    } else {\n      players[msg.sender].nbDaySuccess = 0;\n    }\n\n    emit LeafTransfer(msg.sender, amountLeaf);\n  }\n\n\n  //////////////////////////////////////////////////////////////////////////\n  //   INTERNAL FUNCTIONS\n  //////////////////////////////////////////////////////////////////////////\n\n  /// @dev the player levels up and receives a new NFT\n  /// @param _player address of player\n  function setNewLevel(address _player) internal {\n    require(isPlayer(_player));\n\n    players[_player].level++;\n    uint newLevel = players[_player].level * NEW_LEVEL_VALUE;\n    string memory newNft = nft.nextMint(_player, newLevel);\n    players[_player].uriIpfs.push(newNft);\n  }\n\n  /// @return supply for one level\n  function nftSupply() internal view returns(uint) {\n    return nft.getSupply();\n  }\n\n  /// @dev show if player or not\n  function isPlayer(address _player) internal view returns(bool) {\n    require(_player != address(0), \"LeafDapp : must not be equal to address 0\");\n    return whitelisted[_player];\n  }\n\n\n  //////////////////////////////////////////////////////////////////////////\n  //   EXTERNAL FUNCTIONS\n  //////////////////////////////////////////////////////////////////////////\n\n\n  /// @dev withdraw for only owner\n  /// @param _amount the desired amount\n  function withdraw(uint _amount) external onlyOwner {\n    payable(msg.sender).transfer(_amount);\n  }\n\n  /// @return player \n  function getPlayer() external view onlyOwnerOrPlayer returns(Player memory){\n    return players[msg.sender];\n  }\n\n  /// @dev set pause/start the dapp\n  function setPause(bool _state) external onlyOwner {\n    paused = _state;\n  }\n\n  /// @dev get pause/start the dapp\n  function getPause() external view onlyOwner returns(bool) {\n    return paused;\n  }\n\n  /// @dev set on/off test mode \n  function setTest(bool _state) external onlyOwner {\n    test = _state;\n  }\n\n  /// @dev get on/off test mode \n  function getTest() external view onlyOwner returns(bool) {\n    return test;\n  }\n\n  /// @dev change the cost\n  function setCost(uint _newCost) external onlyOwner {\n    cost = _newCost;\n  }\n\n  /// @dev add to whitelist\n  /// @param _player the address of player\n  function whitelistPlayer(address _player) external onlyOwner {\n    require(_player != address(0), \"LeafDapp : must not be equal to address 0\");\n    whitelisted[_player] = true;\n  }\n\n  /// @dev remove frome whitelist\n  /// @param _player the address of player\n  function removeWhitelistPlayer(address _player) external onlyOwner {\n    require(_player != address(0), \"LeafDapp : must not be equal to address 0\");\n    whitelisted[_player] = false;\n  }\n\n  /// @return balance of _player in LEAF\n  /// @param _player address of player\n  function balancePlayer(address _player) external view onlyOwner returns(uint) {\n    return leaf.balanceOf(_player);\n  }\n\n  /// @return balance of appellant in LEAF\n  function balance() external view onlyPlayer returns(uint) {\n    return leaf.balanceOf(address(msg.sender));\n  }\n\n  /// @return supply of NFTs\n  function balanceNft() external view onlyOwnerOrPlayer returns (uint) {\n    return nftSupply();\n  }\n\n  /// @return contract balance in LEAF\n  function balanceDappLeaf() external view onlyOwnerOrPlayer returns(uint) {\n    return leaf.balanceOf(address(this));\n  }\n\n  /// @return contract balance in ETH\n  function balanceDappEth() external view onlyOwner returns(uint) {\n    return address(this).balance;\n  }\n\n  /// @return leaf\n  function getLeaf() external view onlyOwner returns(LeafToken) {\n    return leaf;\n  }\n\n  /// @return nft\n  function getNft() external view onlyOwner returns(LeafNft) {\n    return nft;\n  }\n\n}\n",
  "sourcePath": "/Users/nicolasvilla/leaf_owner/contracts/LeafDapp.sol",
  "compiler": {
    "name": "solc",
    "version": "0.8.11+commit.d7f03943.Emscripten.clang"
  },
  "schemaVersion": "3.4.3",
  "updatedAt": "2022-01-20T16:39:47.613Z",
  "networkType": "ethereum",
  "devdoc": {
    "events": {
      "LeafTransfer(address,uint256)": {
        "details": "when LEAF was transfered"
      },
      "NftBuyed(address,string)": {
        "details": "when new NFT was buyed"
      }
    },
    "kind": "dev",
    "methods": {
      "balance()": {
        "returns": {
          "_0": "balance of appellant in LEAF"
        }
      },
      "balanceDappEth()": {
        "returns": {
          "_0": "contract balance in ETH"
        }
      },
      "balanceDappLeaf()": {
        "returns": {
          "_0": "contract balance in LEAF"
        }
      },
      "balanceNft()": {
        "returns": {
          "_0": "supply of NFTs"
        }
      },
      "balancePlayer(address)": {
        "params": {
          "_player": "address of player"
        },
        "returns": {
          "_0": "balance of _player in LEAF"
        }
      },
      "buyNft()": {
        "details": "to play you have to buy the first NFT"
      },
      "constructor": {
        "params": {
          "_leaf": "the ERC20 LEAF token contract address",
          "_nft": "the ERC721 LNFT token contract address"
        }
      },
      "getLeaf()": {
        "returns": {
          "_0": "leaf"
        }
      },
      "getNft()": {
        "returns": {
          "_0": "nft"
        }
      },
      "getPause()": {
        "details": "get pause/start the dapp"
      },
      "getPlayer()": {
        "returns": {
          "_0": "player "
        }
      },
      "getTest()": {
        "details": "get on/off test mode "
      },
      "mintLeaf()": {
        "details": "mint million LEAF for owner"
      },
      "owner()": {
        "details": "Returns the address of the current owner."
      },
      "removeWhitelistPlayer(address)": {
        "details": "remove frome whitelist",
        "params": {
          "_player": "the address of player"
        }
      },
      "renounceOwnership()": {
        "details": "Leaves the contract without owner. It will not be possible to call `onlyOwner` functions anymore. Can only be called by the current owner. NOTE: Renouncing ownership will leave the contract without an owner, thereby removing any functionality that is only available to the owner."
      },
      "setCost(uint256)": {
        "details": "change the cost"
      },
      "setPause(bool)": {
        "details": "set pause/start the dapp"
      },
      "setTest(bool)": {
        "details": "set on/off test mode "
      },
      "stepToLeaf(uint32)": {
        "details": "update player data related to the number of steps",
        "params": {
          "_nbStep": "number of steps per day"
        }
      },
      "transferOwnership(address)": {
        "details": "Transfers ownership of the contract to a new account (`newOwner`). Can only be called by the current owner."
      },
      "whitelistPlayer(address)": {
        "details": "add to whitelist",
        "params": {
          "_player": "the address of player"
        }
      },
      "withdraw(uint256)": {
        "details": "withdraw for only owner",
        "params": {
          "_amount": "the desired amount"
        }
      }
    },
    "stateVariables": {
      "NEW_LEVEL_VALUE": {
        "details": "value to go to the next level"
      },
      "cost": {
        "details": "the NFT price"
      },
      "leaf": {
        "details": "the token ERC20 LEAF"
      },
      "maxSupplyLeaf": {
        "details": "max supply for token LEAF"
      },
      "maxSupplyNft": {
        "details": "max supply for 1st level NFTs"
      },
      "nft": {
        "details": "the token ERC721 LNFT"
      },
      "paused": {
        "details": "to pause the dapp"
      },
      "players": {
        "details": "return player from his address"
      },
      "test": {
        "details": "if can do test without time restriction"
      },
      "whitelisted": {
        "details": "returns player validity from his address"
      }
    },
    "version": 1
  },
  "userdoc": {
    "kind": "user",
    "methods": {},
    "version": 1
  }
}