{
  "contractName": "LeafDapp",
  "abi": [
    {
      "inputs": [
        {
          "internalType": "uint256",
          "name": "_totalSupply",
          "type": "uint256"
        }
      ],
      "stateMutability": "nonpayable",
      "type": "constructor"
    },
    {
      "anonymous": false,
      "inputs": [
        {
          "indexed": false,
          "internalType": "address",
          "name": "_address",
          "type": "address"
        },
        {
          "indexed": false,
          "internalType": "uint256",
          "name": "amountLeaf",
          "type": "uint256"
        }
      ],
      "name": "LeafBuyed",
      "type": "event"
    },
    {
      "anonymous": false,
      "inputs": [
        {
          "indexed": false,
          "internalType": "address",
          "name": "_address",
          "type": "address"
        },
        {
          "indexed": false,
          "internalType": "uint256",
          "name": "amountLeaf",
          "type": "uint256"
        }
      ],
      "name": "LeafWins",
      "type": "event"
    },
    {
      "anonymous": false,
      "inputs": [
        {
          "indexed": true,
          "internalType": "address",
          "name": "previousOwner",
          "type": "address"
        },
        {
          "indexed": true,
          "internalType": "address",
          "name": "newOwner",
          "type": "address"
        }
      ],
      "name": "OwnershipTransferred",
      "type": "event"
    },
    {
      "inputs": [],
      "name": "leaf",
      "outputs": [
        {
          "internalType": "contract LEAF",
          "name": "",
          "type": "address"
        }
      ],
      "stateMutability": "view",
      "type": "function",
      "constant": true
    },
    {
      "inputs": [],
      "name": "owner",
      "outputs": [
        {
          "internalType": "address",
          "name": "",
          "type": "address"
        }
      ],
      "stateMutability": "view",
      "type": "function",
      "constant": true
    },
    {
      "inputs": [
        {
          "internalType": "address",
          "name": "",
          "type": "address"
        }
      ],
      "name": "players",
      "outputs": [
        {
          "internalType": "uint32",
          "name": "oldNbStep",
          "type": "uint32"
        },
        {
          "internalType": "uint32",
          "name": "nbDaySuccess",
          "type": "uint32"
        },
        {
          "internalType": "uint256",
          "name": "lastSync",
          "type": "uint256"
        },
        {
          "internalType": "address",
          "name": "addressNFT",
          "type": "address"
        }
      ],
      "stateMutability": "view",
      "type": "function",
      "constant": true
    },
    {
      "inputs": [],
      "name": "renounceOwnership",
      "outputs": [],
      "stateMutability": "nonpayable",
      "type": "function"
    },
    {
      "inputs": [
        {
          "internalType": "address",
          "name": "newOwner",
          "type": "address"
        }
      ],
      "name": "transferOwnership",
      "outputs": [],
      "stateMutability": "nonpayable",
      "type": "function"
    },
    {
      "inputs": [],
      "name": "buyLeaf",
      "outputs": [],
      "stateMutability": "payable",
      "type": "function",
      "payable": true
    },
    {
      "inputs": [
        {
          "internalType": "uint32",
          "name": "_nbStep",
          "type": "uint32"
        }
      ],
      "name": "stepToLeaf",
      "outputs": [],
      "stateMutability": "nonpayable",
      "type": "function"
    },
    {
      "inputs": [
        {
          "internalType": "address",
          "name": "_address",
          "type": "address"
        },
        {
          "internalType": "uint32",
          "name": "_nbStep",
          "type": "uint32"
        }
      ],
      "name": "stepToLeafByAddress",
      "outputs": [],
      "stateMutability": "nonpayable",
      "type": "function"
    },
    {
      "inputs": [
        {
          "internalType": "uint256",
          "name": "_amount",
          "type": "uint256"
        }
      ],
      "name": "withdraw",
      "outputs": [],
      "stateMutability": "nonpayable",
      "type": "function"
    },
    {
      "inputs": [],
      "name": "balance",
      "outputs": [
        {
          "internalType": "uint256",
          "name": "",
          "type": "uint256"
        }
      ],
      "stateMutability": "view",
      "type": "function",
      "constant": true
    },
    {
      "inputs": [],
      "name": "balanceDappLeaf",
      "outputs": [
        {
          "internalType": "uint256",
          "name": "",
          "type": "uint256"
        }
      ],
      "stateMutability": "view",
      "type": "function",
      "constant": true
    },
    {
      "inputs": [],
      "name": "balanceDappEth",
      "outputs": [
        {
          "internalType": "uint256",
          "name": "",
          "type": "uint256"
        }
      ],
      "stateMutability": "view",
      "type": "function",
      "constant": true
    }
  ],
  "bytecode": "0x60806040523480156200001157600080fd5b5060405162003e5338038062003e53833981810160405281019062000037919062000275565b620000576200004b6200015b60201b60201c565b6200016360201b60201c565b80604051620000669062000227565b620000729190620002b8565b604051809103906000f0801580156200008f573d6000803e3d6000fd5b50600160006101000a81548173ffffffffffffffffffffffffffffffffffffffff021916908373ffffffffffffffffffffffffffffffffffffffff160217905550600160009054906101000a900473ffffffffffffffffffffffffffffffffffffffff1673ffffffffffffffffffffffffffffffffffffffff16631249c58b6040518163ffffffff1660e01b8152600401600060405180830381600087803b1580156200013b57600080fd5b505af115801562000150573d6000803e3d6000fd5b5050505050620002d5565b600033905090565b60008060009054906101000a900473ffffffffffffffffffffffffffffffffffffffff169050816000806101000a81548173ffffffffffffffffffffffffffffffffffffffff021916908373ffffffffffffffffffffffffffffffffffffffff1602179055508173ffffffffffffffffffffffffffffffffffffffff168173ffffffffffffffffffffffffffffffffffffffff167f8be0079c531659141344cd1fd0a4f28419497f9722a3daafe3b4186f6b6457e060405160405180910390a35050565b61239b8062001ab883390190565b600080fd5b6000819050919050565b6200024f816200023a565b81146200025b57600080fd5b50565b6000815190506200026f8162000244565b92915050565b6000602082840312156200028e576200028d62000235565b5b60006200029e848285016200025e565b91505092915050565b620002b2816200023a565b82525050565b6000602082019050620002cf6000830184620002a7565b92915050565b6117d380620002e56000396000f3fe6080604052600436106100a75760003560e01c8063b69ef8a811610064578063b69ef8a814610177578063cd91390f146101a2578063dee78144146101cb578063e2eb41ff146101f6578063f2fde38b14610236578063fc4128971461025f576100a7565b80632e1a7d4d146100ac57806367609e53146100d5578063715018a6146100df57806378c86101146100f65780638da5cb5b1461012157806391d1ea4d1461014c575b600080fd5b3480156100b857600080fd5b506100d360048036038101906100ce9190610fb0565b610288565b005b6100dd610355565b005b3480156100eb57600080fd5b506100f46104de565b005b34801561010257600080fd5b5061010b610566565b6040516101189190610fec565b60405180910390f35b34801561012d57600080fd5b50610136610609565b6040516101439190611048565b60405180910390f35b34801561015857600080fd5b50610161610632565b60405161016e91906110c2565b60405180910390f35b34801561018357600080fd5b5061018c610658565b6040516101999190610fec565b60405180910390f35b3480156101ae57600080fd5b506101c960048036038101906101c49190611145565b6106fb565b005b3480156101d757600080fd5b506101e06109df565b6040516101ed9190610fec565b60405180910390f35b34801561020257600080fd5b5061021d60048036038101906102189190611185565b6109e7565b60405161022d94939291906111c1565b60405180910390f35b34801561024257600080fd5b5061025d60048036038101906102589190611185565b610a57565b005b34801561026b57600080fd5b5061028660048036038101906102819190611206565b610b4f565b005b610290610e77565b73ffffffffffffffffffffffffffffffffffffffff166102ae610609565b73ffffffffffffffffffffffffffffffffffffffff1614610304576040517f08c379a00000000000000000000000000000000000000000000000000000000081526004016102fb90611290565b60405180910390fd5b61030c610609565b73ffffffffffffffffffffffffffffffffffffffff166108fc829081150290604051600060405180830381858888f19350505050158015610351573d6000803e3d6000fd5b5050565b6000349050600061036582610e7f565b90506000610371610566565b9050652d79883d20008310156103bc576040517f08c379a00000000000000000000000000000000000000000000000000000000081526004016103b390611322565b60405180910390fd5b808211156103ff576040517f08c379a00000000000000000000000000000000000000000000000000000000081526004016103f6906113b4565b60405180910390fd5b600160009054906101000a900473ffffffffffffffffffffffffffffffffffffffff1673ffffffffffffffffffffffffffffffffffffffff1663a9059cbb33846040518363ffffffff1660e01b815260040161045c9291906113d4565b6020604051808303816000875af115801561047b573d6000803e3d6000fd5b505050506040513d601f19601f8201168201806040525081019061049f9190611435565b507f3e15de05335c53565b80fdc941439425e925d98b028db2b3fb0d87e0c29bd06a33836040516104d19291906113d4565b60405180910390a1505050565b6104e6610e77565b73ffffffffffffffffffffffffffffffffffffffff16610504610609565b73ffffffffffffffffffffffffffffffffffffffff161461055a576040517f08c379a000000000000000000000000000000000000000000000000000000000815260040161055190611290565b60405180910390fd5b6105646000610eb1565b565b6000600160009054906101000a900473ffffffffffffffffffffffffffffffffffffffff1673ffffffffffffffffffffffffffffffffffffffff166370a08231306040518263ffffffff1660e01b81526004016105c39190611048565b602060405180830381865afa1580156105e0573d6000803e3d6000fd5b505050506040513d601f19601f820116820180604052508101906106049190611477565b905090565b60008060009054906101000a900473ffffffffffffffffffffffffffffffffffffffff16905090565b600160009054906101000a900473ffffffffffffffffffffffffffffffffffffffff1681565b6000600160009054906101000a900473ffffffffffffffffffffffffffffffffffffffff1673ffffffffffffffffffffffffffffffffffffffff166370a08231336040518263ffffffff1660e01b81526004016106b59190611048565b602060405180830381865afa1580156106d2573d6000803e3d6000fd5b505050506040513d601f19601f820116820180604052508101906106f69190611477565b905090565b62015180600260003373ffffffffffffffffffffffffffffffffffffffff1673ffffffffffffffffffffffffffffffffffffffff168152602001908152602001600020600101544261074d91906114d3565b101561078e576040517f08c379a000000000000000000000000000000000000000000000000000000000815260040161078590611579565b60405180910390fd5b42600260008473ffffffffffffffffffffffffffffffffffffffff1673ffffffffffffffffffffffffffffffffffffffff168152602001908152602001600020600101819055506127108163ffffffff161061097857600160009054906101000a900473ffffffffffffffffffffffffffffffffffffffff1673ffffffffffffffffffffffffffffffffffffffff1663a9059cbb83600a8461083091906115c8565b6040518363ffffffff1660e01b815260040161084d92919061162a565b6020604051808303816000875af115801561086c573d6000803e3d6000fd5b505050506040513d601f19601f820116820180604052508101906108909190611435565b50600260008373ffffffffffffffffffffffffffffffffffffffff1673ffffffffffffffffffffffffffffffffffffffff168152602001908152602001600020600001600481819054906101000a900463ffffffff16809291906108f390611653565b91906101000a81548163ffffffff021916908363ffffffff1602179055505080600260008473ffffffffffffffffffffffffffffffffffffffff1673ffffffffffffffffffffffffffffffffffffffff16815260200190815260200160002060000160006101000a81548163ffffffff021916908363ffffffff1602179055506109db565b6000600260008473ffffffffffffffffffffffffffffffffffffffff1673ffffffffffffffffffffffffffffffffffffffff16815260200190815260200160002060000160046101000a81548163ffffffff021916908363ffffffff1602179055505b5050565b600047905090565b60026020528060005260406000206000915090508060000160009054906101000a900463ffffffff16908060000160049054906101000a900463ffffffff16908060010154908060020160009054906101000a900473ffffffffffffffffffffffffffffffffffffffff16905084565b610a5f610e77565b73ffffffffffffffffffffffffffffffffffffffff16610a7d610609565b73ffffffffffffffffffffffffffffffffffffffff1614610ad3576040517f08c379a0000000000000000000000000000000000000000000000000000000008152600401610aca90611290565b60405180910390fd5b600073ffffffffffffffffffffffffffffffffffffffff168173ffffffffffffffffffffffffffffffffffffffff161415610b43576040517f08c379a0000000000000000000000000000000000000000000000000000000008152600401610b3a906116f2565b60405180910390fd5b610b4c81610eb1565b50565b62015180600260003373ffffffffffffffffffffffffffffffffffffffff1673ffffffffffffffffffffffffffffffffffffffff1681526020019081526020016000206001015442610ba191906114d3565b1015610be2576040517f08c379a0000000000000000000000000000000000000000000000000000000008152600401610bd990611579565b60405180910390fd5b42600260003373ffffffffffffffffffffffffffffffffffffffff1673ffffffffffffffffffffffffffffffffffffffff168152602001908152602001600020600101819055506000600a82610c3891906115c8565b63ffffffff1690506127108263ffffffff1610610dd757600160009054906101000a900473ffffffffffffffffffffffffffffffffffffffff1673ffffffffffffffffffffffffffffffffffffffff1663a9059cbb33836040518363ffffffff1660e01b8152600401610cac9291906113d4565b6020604051808303816000875af1158015610ccb573d6000803e3d6000fd5b505050506040513d601f19601f82011682018060405250810190610cef9190611435565b50600260003373ffffffffffffffffffffffffffffffffffffffff1673ffffffffffffffffffffffffffffffffffffffff168152602001908152602001600020600001600481819054906101000a900463ffffffff1680929190610d5290611653565b91906101000a81548163ffffffff021916908363ffffffff1602179055505081600260003373ffffffffffffffffffffffffffffffffffffffff1673ffffffffffffffffffffffffffffffffffffffff16815260200190815260200160002060000160006101000a81548163ffffffff021916908363ffffffff160217905550610e3a565b6000600260003373ffffffffffffffffffffffffffffffffffffffff1673ffffffffffffffffffffffffffffffffffffffff16815260200190815260200160002060000160046101000a81548163ffffffff021916908363ffffffff1602179055505b7f943f4d0ef824bf084ab9330d025845c72c0d4888b95aa42faab573602e02bacc3382604051610e6b9291906113d4565b60405180910390a15050565b600033905090565b600080652d79883d20009050600060649050818185610e9e9190611712565b610ea8919061176c565b92505050919050565b60008060009054906101000a900473ffffffffffffffffffffffffffffffffffffffff169050816000806101000a81548173ffffffffffffffffffffffffffffffffffffffff021916908373ffffffffffffffffffffffffffffffffffffffff1602179055508173ffffffffffffffffffffffffffffffffffffffff168173ffffffffffffffffffffffffffffffffffffffff167f8be0079c531659141344cd1fd0a4f28419497f9722a3daafe3b4186f6b6457e060405160405180910390a35050565b600080fd5b6000819050919050565b610f8d81610f7a565b8114610f9857600080fd5b50565b600081359050610faa81610f84565b92915050565b600060208284031215610fc657610fc5610f75565b5b6000610fd484828501610f9b565b91505092915050565b610fe681610f7a565b82525050565b60006020820190506110016000830184610fdd565b92915050565b600073ffffffffffffffffffffffffffffffffffffffff82169050919050565b600061103282611007565b9050919050565b61104281611027565b82525050565b600060208201905061105d6000830184611039565b92915050565b6000819050919050565b600061108861108361107e84611007565b611063565b611007565b9050919050565b600061109a8261106d565b9050919050565b60006110ac8261108f565b9050919050565b6110bc816110a1565b82525050565b60006020820190506110d760008301846110b3565b92915050565b6110e681611027565b81146110f157600080fd5b50565b600081359050611103816110dd565b92915050565b600063ffffffff82169050919050565b61112281611109565b811461112d57600080fd5b50565b60008135905061113f81611119565b92915050565b6000806040838503121561115c5761115b610f75565b5b600061116a858286016110f4565b925050602061117b85828601611130565b9150509250929050565b60006020828403121561119b5761119a610f75565b5b60006111a9848285016110f4565b91505092915050565b6111bb81611109565b82525050565b60006080820190506111d660008301876111b2565b6111e360208301866111b2565b6111f06040830185610fdd565b6111fd6060830184611039565b95945050505050565b60006020828403121561121c5761121b610f75565b5b600061122a84828501611130565b91505092915050565b600082825260208201905092915050565b7f4f776e61626c653a2063616c6c6572206973206e6f7420746865206f776e6572600082015250565b600061127a602083611233565b915061128582611244565b602082019050919050565b600060208201905081810360008301526112a98161126d565b9050919050565b7f4c65616644417070203a206d7573742062652067726561746572207468616e2060008201527f302e303030303520455448000000000000000000000000000000000000000000602082015250565b600061130c602b83611233565b9150611317826112b0565b604082019050919050565b6000602082019050818103600083015261133b816112ff565b9050919050565b7f4c65616644417070203a206e6f7420656e6f756768206c6561667320696e207460008201527f6865207265736572766500000000000000000000000000000000000000000000602082015250565b600061139e602a83611233565b91506113a982611342565b604082019050919050565b600060208201905081810360008301526113cd81611391565b9050919050565b60006040820190506113e96000830185611039565b6113f66020830184610fdd565b9392505050565b60008115159050919050565b611412816113fd565b811461141d57600080fd5b50565b60008151905061142f81611409565b92915050565b60006020828403121561144b5761144a610f75565b5b600061145984828501611420565b91505092915050565b60008151905061147181610f84565b92915050565b60006020828403121561148d5761148c610f75565b5b600061149b84828501611462565b91505092915050565b7f4e487b7100000000000000000000000000000000000000000000000000000000600052601160045260246000fd5b60006114de82610f7a565b91506114e983610f7a565b9250828210156114fc576114fb6114a4565b5b828203905092915050565b7f4c65616644417070203a20612064617920686173206e6f74207061737365642060008201527f7965740000000000000000000000000000000000000000000000000000000000602082015250565b6000611563602383611233565b915061156e82611507565b604082019050919050565b6000602082019050818103600083015261159281611556565b9050919050565b7f4e487b7100000000000000000000000000000000000000000000000000000000600052601260045260246000fd5b60006115d382611109565b91506115de83611109565b9250826115ee576115ed611599565b5b828204905092915050565b600061161461160f61160a84611109565b611063565b610f7a565b9050919050565b611624816115f9565b82525050565b600060408201905061163f6000830185611039565b61164c602083018461161b565b9392505050565b600061165e82611109565b915063ffffffff821415611675576116746114a4565b5b600182019050919050565b7f4f776e61626c653a206e6577206f776e657220697320746865207a65726f206160008201527f6464726573730000000000000000000000000000000000000000000000000000602082015250565b60006116dc602683611233565b91506116e782611680565b604082019050919050565b6000602082019050818103600083015261170b816116cf565b9050919050565b600061171d82610f7a565b915061172883610f7a565b9250817fffffffffffffffffffffffffffffffffffffffffffffffffffffffffffffffff0483118215151615611761576117606114a4565b5b828202905092915050565b600061177782610f7a565b915061178283610f7a565b92508261179257611791611599565b5b82820490509291505056fea26469706673582212208281888580c0abb2c9e3e44406928114a799f74fff30f9feba576f0e96dce83864736f6c634300080a003360806040523480156200001157600080fd5b506040516200239b3803806200239b8339818101604052810190620000379190620002c3565b6040518060400160405280600a81526020017f546f6b656e204c656166000000000000000000000000000000000000000000008152506040518060400160405280600481526020017f4c454146000000000000000000000000000000000000000000000000000000008152508160039080519060200190620000bb929190620001d3565b508060049080519060200190620000d4929190620001d3565b505050620000f7620000eb6200010560201b60201c565b6200010d60201b60201c565b80600681905550506200035a565b600033905090565b6000600560009054906101000a900473ffffffffffffffffffffffffffffffffffffffff16905081600560006101000a81548173ffffffffffffffffffffffffffffffffffffffff021916908373ffffffffffffffffffffffffffffffffffffffff1602179055508173ffffffffffffffffffffffffffffffffffffffff168173ffffffffffffffffffffffffffffffffffffffff167f8be0079c531659141344cd1fd0a4f28419497f9722a3daafe3b4186f6b6457e060405160405180910390a35050565b828054620001e19062000324565b90600052602060002090601f01602090048101928262000205576000855562000251565b82601f106200022057805160ff191683800117855562000251565b8280016001018555821562000251579182015b828111156200025057825182559160200191906001019062000233565b5b50905062000260919062000264565b5090565b5b808211156200027f57600081600090555060010162000265565b5090565b600080fd5b6000819050919050565b6200029d8162000288565b8114620002a957600080fd5b50565b600081519050620002bd8162000292565b92915050565b600060208284031215620002dc57620002db62000283565b5b6000620002ec84828501620002ac565b91505092915050565b7f4e487b7100000000000000000000000000000000000000000000000000000000600052602260045260246000fd5b600060028204905060018216806200033d57607f821691505b60208210811415620003545762000353620002f5565b5b50919050565b612031806200036a6000396000f3fe608060405234801561001057600080fd5b50600436106101165760003560e01c806370a08231116100a2578063a457c2d711610071578063a457c2d7146102bf578063a9059cbb146102ef578063dd62ed3e1461031f578063f2fde38b1461034f578063f3d7b5cf1461036b57610116565b806370a0823114610249578063715018a6146102795780638da5cb5b1461028357806395d89b41146102a157610116565b806323b872dd116100e957806323b872dd14610191578063313ce567146101c157806339509351146101df57806342966c681461020f5780636bdfbb351461022b57610116565b806306fdde031461011b578063095ea7b3146101395780631249c58b1461016957806318160ddd14610173575b600080fd5b610123610389565b60405161013091906114d4565b60405180910390f35b610153600480360381019061014e919061158f565b61041b565b60405161016091906115ea565b60405180910390f35b610171610439565b005b61017b61052e565b6040516101889190611614565b60405180910390f35b6101ab60048036038101906101a6919061162f565b610538565b6040516101b891906115ea565b60405180910390f35b6101c9610630565b6040516101d6919061169e565b60405180910390f35b6101f960048036038101906101f4919061158f565b610639565b60405161020691906115ea565b60405180910390f35b610229600480360381019061022491906116b9565b6106e5565b005b6102336107b3565b60405161024091906115ea565b60405180910390f35b610263600480360381019061025e91906116e6565b6107c6565b6040516102709190611614565b60405180910390f35b61028161080e565b005b61028b610896565b6040516102989190611722565b60405180910390f35b6102a96108c0565b6040516102b691906114d4565b60405180910390f35b6102d960048036038101906102d4919061158f565b610952565b6040516102e691906115ea565b60405180910390f35b6103096004803603810190610304919061158f565b610a3d565b60405161031691906115ea565b60405180910390f35b6103396004803603810190610334919061173d565b610a5b565b6040516103469190611614565b60405180910390f35b610369600480360381019061036491906116e6565b610ae2565b005b610373610bda565b6040516103809190611614565b60405180910390f35b606060038054610398906117ac565b80601f01602080910402602001604051908101604052809291908181526020018280546103c4906117ac565b80156104115780601f106103e657610100808354040283529160200191610411565b820191906000526020600020905b8154815290600101906020018083116103f457829003601f168201915b5050505050905090565b600061042f610428610be0565b8484610be8565b6001905092915050565b610441610be0565b73ffffffffffffffffffffffffffffffffffffffff1661045f610896565b73ffffffffffffffffffffffffffffffffffffffff16146104b5576040517f08c379a00000000000000000000000000000000000000000000000000000000081526004016104ac9061182a565b60405180910390fd5b600760009054906101000a900460ff1615610505576040517f08c379a00000000000000000000000000000000000000000000000000000000081526004016104fc90611896565b60405180910390fd5b61051133600654610db3565b6001600760006101000a81548160ff021916908315150217905550565b6000600254905090565b6000610545848484610f13565b6000600160008673ffffffffffffffffffffffffffffffffffffffff1673ffffffffffffffffffffffffffffffffffffffff1681526020019081526020016000206000610590610be0565b73ffffffffffffffffffffffffffffffffffffffff1673ffffffffffffffffffffffffffffffffffffffff16815260200190815260200160002054905082811015610610576040517f08c379a000000000000000000000000000000000000000000000000000000000815260040161060790611928565b60405180910390fd5b6106248561061c610be0565b858403610be8565b60019150509392505050565b60006012905090565b60006106db610646610be0565b848460016000610654610be0565b73ffffffffffffffffffffffffffffffffffffffff1673ffffffffffffffffffffffffffffffffffffffff16815260200190815260200160002060008873ffffffffffffffffffffffffffffffffffffffff1673ffffffffffffffffffffffffffffffffffffffff168152602001908152602001600020546106d69190611977565b610be8565b6001905092915050565b6106ed610be0565b73ffffffffffffffffffffffffffffffffffffffff1661070b610896565b73ffffffffffffffffffffffffffffffffffffffff1614610761576040517f08c379a00000000000000000000000000000000000000000000000000000000081526004016107589061182a565b60405180910390fd5b6006548111156107a6576040517f08c379a000000000000000000000000000000000000000000000000000000000815260040161079d90611a19565b60405180910390fd5b6107b03382611194565b50565b600760009054906101000a900460ff1681565b60008060008373ffffffffffffffffffffffffffffffffffffffff1673ffffffffffffffffffffffffffffffffffffffff168152602001908152602001600020549050919050565b610816610be0565b73ffffffffffffffffffffffffffffffffffffffff16610834610896565b73ffffffffffffffffffffffffffffffffffffffff161461088a576040517f08c379a00000000000000000000000000000000000000000000000000000000081526004016108819061182a565b60405180910390fd5b610894600061136b565b565b6000600560009054906101000a900473ffffffffffffffffffffffffffffffffffffffff16905090565b6060600480546108cf906117ac565b80601f01602080910402602001604051908101604052809291908181526020018280546108fb906117ac565b80156109485780601f1061091d57610100808354040283529160200191610948565b820191906000526020600020905b81548152906001019060200180831161092b57829003601f168201915b5050505050905090565b60008060016000610961610be0565b73ffffffffffffffffffffffffffffffffffffffff1673ffffffffffffffffffffffffffffffffffffffff16815260200190815260200160002060008573ffffffffffffffffffffffffffffffffffffffff1673ffffffffffffffffffffffffffffffffffffffff16815260200190815260200160002054905082811015610a1e576040517f08c379a0000000000000000000000000000000000000000000000000000000008152600401610a1590611aab565b60405180910390fd5b610a32610a29610be0565b85858403610be8565b600191505092915050565b6000610a51610a4a610be0565b8484610f13565b6001905092915050565b6000600160008473ffffffffffffffffffffffffffffffffffffffff1673ffffffffffffffffffffffffffffffffffffffff16815260200190815260200160002060008373ffffffffffffffffffffffffffffffffffffffff1673ffffffffffffffffffffffffffffffffffffffff16815260200190815260200160002054905092915050565b610aea610be0565b73ffffffffffffffffffffffffffffffffffffffff16610b08610896565b73ffffffffffffffffffffffffffffffffffffffff1614610b5e576040517f08c379a0000000000000000000000000000000000000000000000000000000008152600401610b559061182a565b60405180910390fd5b600073ffffffffffffffffffffffffffffffffffffffff168173ffffffffffffffffffffffffffffffffffffffff161415610bce576040517f08c379a0000000000000000000000000000000000000000000000000000000008152600401610bc590611b3d565b60405180910390fd5b610bd78161136b565b50565b60065481565b600033905090565b600073ffffffffffffffffffffffffffffffffffffffff168373ffffffffffffffffffffffffffffffffffffffff161415610c58576040517f08c379a0000000000000000000000000000000000000000000000000000000008152600401610c4f90611bcf565b60405180910390fd5b600073ffffffffffffffffffffffffffffffffffffffff168273ffffffffffffffffffffffffffffffffffffffff161415610cc8576040517f08c379a0000000000000000000000000000000000000000000000000000000008152600401610cbf90611c61565b60405180910390fd5b80600160008573ffffffffffffffffffffffffffffffffffffffff1673ffffffffffffffffffffffffffffffffffffffff16815260200190815260200160002060008473ffffffffffffffffffffffffffffffffffffffff1673ffffffffffffffffffffffffffffffffffffffff168152602001908152602001600020819055508173ffffffffffffffffffffffffffffffffffffffff168373ffffffffffffffffffffffffffffffffffffffff167f8c5be1e5ebec7d5bd14f71427d1e84f3dd0314c0f7b2291e5b200ac8c7c3b92583604051610da69190611614565b60405180910390a3505050565b600073ffffffffffffffffffffffffffffffffffffffff168273ffffffffffffffffffffffffffffffffffffffff161415610e23576040517f08c379a0000000000000000000000000000000000000000000000000000000008152600401610e1a90611ccd565b60405180910390fd5b610e2f60008383611431565b8060026000828254610e419190611977565b92505081905550806000808473ffffffffffffffffffffffffffffffffffffffff1673ffffffffffffffffffffffffffffffffffffffff1681526020019081526020016000206000828254610e969190611977565b925050819055508173ffffffffffffffffffffffffffffffffffffffff16600073ffffffffffffffffffffffffffffffffffffffff167fddf252ad1be2c89b69c2b068fc378daa952ba7f163c4a11628f55a4df523b3ef83604051610efb9190611614565b60405180910390a3610f0f60008383611436565b5050565b600073ffffffffffffffffffffffffffffffffffffffff168373ffffffffffffffffffffffffffffffffffffffff161415610f83576040517f08c379a0000000000000000000000000000000000000000000000000000000008152600401610f7a90611d5f565b60405180910390fd5b600073ffffffffffffffffffffffffffffffffffffffff168273ffffffffffffffffffffffffffffffffffffffff161415610ff3576040517f08c379a0000000000000000000000000000000000000000000000000000000008152600401610fea90611df1565b60405180910390fd5b610ffe838383611431565b60008060008573ffffffffffffffffffffffffffffffffffffffff1673ffffffffffffffffffffffffffffffffffffffff16815260200190815260200160002054905081811015611084576040517f08c379a000000000000000000000000000000000000000000000000000000000815260040161107b90611e83565b60405180910390fd5b8181036000808673ffffffffffffffffffffffffffffffffffffffff1673ffffffffffffffffffffffffffffffffffffffff16815260200190815260200160002081905550816000808573ffffffffffffffffffffffffffffffffffffffff1673ffffffffffffffffffffffffffffffffffffffff16815260200190815260200160002060008282546111179190611977565b925050819055508273ffffffffffffffffffffffffffffffffffffffff168473ffffffffffffffffffffffffffffffffffffffff167fddf252ad1be2c89b69c2b068fc378daa952ba7f163c4a11628f55a4df523b3ef8460405161117b9190611614565b60405180910390a361118e848484611436565b50505050565b600073ffffffffffffffffffffffffffffffffffffffff168273ffffffffffffffffffffffffffffffffffffffff161415611204576040517f08c379a00000000000000000000000000000000000000000000000000000000081526004016111fb90611f15565b60405180910390fd5b61121082600083611431565b60008060008473ffffffffffffffffffffffffffffffffffffffff1673ffffffffffffffffffffffffffffffffffffffff16815260200190815260200160002054905081811015611296576040517f08c379a000000000000000000000000000000000000000000000000000000000815260040161128d90611fa7565b60405180910390fd5b8181036000808573ffffffffffffffffffffffffffffffffffffffff1673ffffffffffffffffffffffffffffffffffffffff1681526020019081526020016000208190555081600260008282546112ed9190611fc7565b92505081905550600073ffffffffffffffffffffffffffffffffffffffff168373ffffffffffffffffffffffffffffffffffffffff167fddf252ad1be2c89b69c2b068fc378daa952ba7f163c4a11628f55a4df523b3ef846040516113529190611614565b60405180910390a361136683600084611436565b505050565b6000600560009054906101000a900473ffffffffffffffffffffffffffffffffffffffff16905081600560006101000a81548173ffffffffffffffffffffffffffffffffffffffff021916908373ffffffffffffffffffffffffffffffffffffffff1602179055508173ffffffffffffffffffffffffffffffffffffffff168173ffffffffffffffffffffffffffffffffffffffff167f8be0079c531659141344cd1fd0a4f28419497f9722a3daafe3b4186f6b6457e060405160405180910390a35050565b505050565b505050565b600081519050919050565b600082825260208201905092915050565b60005b8381101561147557808201518184015260208101905061145a565b83811115611484576000848401525b50505050565b6000601f19601f8301169050919050565b60006114a68261143b565b6114b08185611446565b93506114c0818560208601611457565b6114c98161148a565b840191505092915050565b600060208201905081810360008301526114ee818461149b565b905092915050565b600080fd5b600073ffffffffffffffffffffffffffffffffffffffff82169050919050565b6000611526826114fb565b9050919050565b6115368161151b565b811461154157600080fd5b50565b6000813590506115538161152d565b92915050565b6000819050919050565b61156c81611559565b811461157757600080fd5b50565b60008135905061158981611563565b92915050565b600080604083850312156115a6576115a56114f6565b5b60006115b485828601611544565b92505060206115c58582860161157a565b9150509250929050565b60008115159050919050565b6115e4816115cf565b82525050565b60006020820190506115ff60008301846115db565b92915050565b61160e81611559565b82525050565b60006020820190506116296000830184611605565b92915050565b600080600060608486031215611648576116476114f6565b5b600061165686828701611544565b935050602061166786828701611544565b92505060406116788682870161157a565b9150509250925092565b600060ff82169050919050565b61169881611682565b82525050565b60006020820190506116b3600083018461168f565b92915050565b6000602082840312156116cf576116ce6114f6565b5b60006116dd8482850161157a565b91505092915050565b6000602082840312156116fc576116fb6114f6565b5b600061170a84828501611544565b91505092915050565b61171c8161151b565b82525050565b60006020820190506117376000830184611713565b92915050565b60008060408385031215611754576117536114f6565b5b600061176285828601611544565b925050602061177385828601611544565b9150509250929050565b7f4e487b7100000000000000000000000000000000000000000000000000000000600052602260045260246000fd5b600060028204905060018216806117c457607f821691505b602082108114156117d8576117d761177d565b5b50919050565b7f4f776e61626c653a2063616c6c6572206973206e6f7420746865206f776e6572600082015250565b6000611814602083611446565b915061181f826117de565b602082019050919050565b6000602082019050818103600083015261184381611807565b9050919050565b7f4c4541463a20796f752063616e206d696e74206f6e6365000000000000000000600082015250565b6000611880601783611446565b915061188b8261184a565b602082019050919050565b600060208201905081810360008301526118af81611873565b9050919050565b7f45524332303a207472616e7366657220616d6f756e742065786365656473206160008201527f6c6c6f77616e6365000000000000000000000000000000000000000000000000602082015250565b6000611912602883611446565b915061191d826118b6565b604082019050919050565b6000602082019050818103600083015261194181611905565b9050919050565b7f4e487b7100000000000000000000000000000000000000000000000000000000600052601160045260246000fd5b600061198282611559565b915061198d83611559565b9250827fffffffffffffffffffffffffffffffffffffffffffffffffffffffffffffffff038211156119c2576119c1611948565b5b828201905092915050565b7f4c4541463a2063616e74206275726e0000000000000000000000000000000000600082015250565b6000611a03600f83611446565b9150611a0e826119cd565b602082019050919050565b60006020820190508181036000830152611a32816119f6565b9050919050565b7f45524332303a2064656372656173656420616c6c6f77616e63652062656c6f7760008201527f207a65726f000000000000000000000000000000000000000000000000000000602082015250565b6000611a95602583611446565b9150611aa082611a39565b604082019050919050565b60006020820190508181036000830152611ac481611a88565b9050919050565b7f4f776e61626c653a206e6577206f776e657220697320746865207a65726f206160008201527f6464726573730000000000000000000000000000000000000000000000000000602082015250565b6000611b27602683611446565b9150611b3282611acb565b604082019050919050565b60006020820190508181036000830152611b5681611b1a565b9050919050565b7f45524332303a20617070726f76652066726f6d20746865207a65726f2061646460008201527f7265737300000000000000000000000000000000000000000000000000000000602082015250565b6000611bb9602483611446565b9150611bc482611b5d565b604082019050919050565b60006020820190508181036000830152611be881611bac565b9050919050565b7f45524332303a20617070726f766520746f20746865207a65726f20616464726560008201527f7373000000000000000000000000000000000000000000000000000000000000602082015250565b6000611c4b602283611446565b9150611c5682611bef565b604082019050919050565b60006020820190508181036000830152611c7a81611c3e565b9050919050565b7f45524332303a206d696e7420746f20746865207a65726f206164647265737300600082015250565b6000611cb7601f83611446565b9150611cc282611c81565b602082019050919050565b60006020820190508181036000830152611ce681611caa565b9050919050565b7f45524332303a207472616e736665722066726f6d20746865207a65726f20616460008201527f6472657373000000000000000000000000000000000000000000000000000000602082015250565b6000611d49602583611446565b9150611d5482611ced565b604082019050919050565b60006020820190508181036000830152611d7881611d3c565b9050919050565b7f45524332303a207472616e7366657220746f20746865207a65726f206164647260008201527f6573730000000000000000000000000000000000000000000000000000000000602082015250565b6000611ddb602383611446565b9150611de682611d7f565b604082019050919050565b60006020820190508181036000830152611e0a81611dce565b9050919050565b7f45524332303a207472616e7366657220616d6f756e742065786365656473206260008201527f616c616e63650000000000000000000000000000000000000000000000000000602082015250565b6000611e6d602683611446565b9150611e7882611e11565b604082019050919050565b60006020820190508181036000830152611e9c81611e60565b9050919050565b7f45524332303a206275726e2066726f6d20746865207a65726f2061646472657360008201527f7300000000000000000000000000000000000000000000000000000000000000602082015250565b6000611eff602183611446565b9150611f0a82611ea3565b604082019050919050565b60006020820190508181036000830152611f2e81611ef2565b9050919050565b7f45524332303a206275726e20616d6f756e7420657863656564732062616c616e60008201527f6365000000000000000000000000000000000000000000000000000000000000602082015250565b6000611f91602283611446565b9150611f9c82611f35565b604082019050919050565b60006020820190508181036000830152611fc081611f84565b9050919050565b6000611fd282611559565b9150611fdd83611559565b925082821015611ff057611fef611948565b5b82820390509291505056fea2646970667358221220e04eb993bbf325c443ec31bb1d8336a3b130fe92b6b5f9e5356a24e32968a97264736f6c634300080a0033",
  "immutableReferences": {},
  "source": "// SPDX-License-Identifier: MIT\r\npragma solidity 0.8.10;\r\n\r\nimport \"@openzeppelin/contracts/access/Ownable.sol\";\r\nimport \"./LEAF.sol\";\r\n\r\ncontract LeafDapp is Ownable {\r\n\r\n  uint constant MIN_PRICE = 50000000000000;\r\n\r\n  LEAF public leaf;\r\n\r\n  struct Player {\r\n    uint32 oldNbStep;\r\n    uint32 nbDaySuccess;\r\n    uint lastSync;\r\n    address addressNFT;\r\n  }\r\n\r\n  mapping (address => Player) public players;\r\n\r\n  event LeafBuyed(address _address, uint amountLeaf);\r\n  event LeafWins(address _address, uint amountLeaf);\r\n\r\n  constructor(uint _totalSupply) {\r\n    leaf = new LEAF(_totalSupply);\r\n    leaf.mint();\r\n  }\r\n\r\n  /// @notice can buy at least 1 Leaf\r\n  function buyLeaf() payable external {\r\n    uint amountTobuy = msg.value;\r\n    uint amountLeaf = weiToLeaf(amountTobuy);\r\n    uint dappBalance = balanceDappLeaf();\r\n    require(amountTobuy >= MIN_PRICE, \"LeafDApp : must be greater than 0.00005 ETH\");\r\n    require(amountLeaf <= dappBalance, \"LeafDApp : not enough leafs in the reserve\");\r\n\r\n    leaf.transfer(msg.sender, amountLeaf);\r\n\r\n    emit LeafBuyed(msg.sender, amountLeaf);\r\n  }\r\n\r\n  /// @dev 10000 Step = 10Leaf (10*100) \r\n  /// @dev 13875 Step = 13.87 Leaf (1387) \r\n  function stepToLeaf(uint32 _nbStep) external {\r\n    require(block.timestamp - players[msg.sender].lastSync >= 1 days,\r\n      \"LeafDApp : a day has not passed yet\");\r\n    \r\n    players[msg.sender].lastSync = block.timestamp;\r\n\r\n    uint amountLeaf = _nbStep / 10;\r\n    if(_nbStep >= 10000) {\r\n      leaf.transfer(msg.sender, amountLeaf);\r\n      players[msg.sender].nbDaySuccess++;\r\n      players[msg.sender].oldNbStep = _nbStep;\r\n    } else {\r\n      players[msg.sender].nbDaySuccess = 0;\r\n    }\r\n\r\n    emit LeafWins(msg.sender, amountLeaf);\r\n  }\r\n\r\n  function stepToLeafByAddress(address _address, uint32 _nbStep) external {\r\n    require(block.timestamp - players[msg.sender].lastSync >= 1 days,\r\n      \"LeafDApp : a day has not passed yet\");\r\n    \r\n    players[_address].lastSync = block.timestamp;\r\n\r\n    if(_nbStep >= 10000) {\r\n      leaf.transfer(_address, _nbStep / 10);\r\n      players[_address].nbDaySuccess++;\r\n      players[_address].oldNbStep = _nbStep;\r\n    } else {\r\n      players[_address].nbDaySuccess = 0;\r\n    }\r\n  }\r\n\r\n  //////////////////////////////////////////////////////////////////////////\r\n  //   OWNER FUNCTIONS\r\n  //////////////////////////////////////////////////////////////////////////\r\n  function withdraw(uint _amount) external onlyOwner {\r\n    payable(owner()).transfer(_amount);\r\n  }\r\n\r\n  //////////////////////////////////////////////////////////////////////////\r\n  //   UTILE FUNCTIONS\r\n  //////////////////////////////////////////////////////////////////////////\r\n\r\n  /**\r\n   * @dev 1 LEAF = 50000000000000 Wei OR 1 LEAF = 0,00005 ETH\r\n   * @notice 1 Leaf is stocked 100 (ex 1.75 Leaf => 175)\r\n   */\r\n  function weiToLeaf(uint _amountWei) internal pure returns(uint) {\r\n    uint leafToWei = 50000000000000;\r\n    uint precision = 100;\r\n\r\n    return _amountWei * precision / leafToWei;\r\n  }\r\n\r\n\r\n  //////////////////////////////////////////////////////////////////////////\r\n  //   BALANCES\r\n  //////////////////////////////////////////////////////////////////////////\r\n\r\n  function balance() external view returns(uint) {\r\n    return leaf.balanceOf(address(msg.sender));\r\n  }\r\n\r\n  function balanceDappLeaf() public view returns(uint) {\r\n    return leaf.balanceOf(address(this));\r\n  }\r\n\r\n  function balanceDappEth() external view returns(uint) {\r\n    return address(this).balance;\r\n  }\r\n\r\n}",
  "sourcePath": "C:\\Users\\Aram\\Desktop\\BLOCKCHAIN\\Alyra\\6_projet_final\\dapp_leaf\\contracts\\LeafDapp.sol",
  "compiler": {
    "name": "solc",
    "version": "0.8.10+commit.fc410830.Emscripten.clang"
  },
  "schemaVersion": "3.4.3",
  "updatedAt": "2022-01-05T13:53:46.528Z",
  "networkType": "ethereum",
  "devdoc": {
    "kind": "dev",
    "methods": {
      "owner()": {
        "details": "Returns the address of the current owner."
      },
      "renounceOwnership()": {
        "details": "Leaves the contract without owner. It will not be possible to call `onlyOwner` functions anymore. Can only be called by the current owner. NOTE: Renouncing ownership will leave the contract without an owner, thereby removing any functionality that is only available to the owner."
      },
      "stepToLeaf(uint32)": {
        "details": "10000 Step = 10Leaf (10*100) 13875 Step = 13.87 Leaf (1387) "
      },
      "transferOwnership(address)": {
        "details": "Transfers ownership of the contract to a new account (`newOwner`). Can only be called by the current owner."
      }
    },
    "version": 1
  },
  "userdoc": {
    "kind": "user",
    "methods": {
      "buyLeaf()": {
        "notice": "can buy at least 1 Leaf"
      }
    },
    "version": 1
  }
}