{
  "contractName": "LeafDapp",
  "abi": [
    {
      "inputs": [
        {
          "internalType": "address",
          "name": "_leaf",
          "type": "address"
        },
        {
          "internalType": "address",
          "name": "_nft",
          "type": "address"
        }
      ],
      "stateMutability": "nonpayable",
      "type": "constructor"
    },
    {
      "anonymous": false,
      "inputs": [
        {
          "indexed": false,
          "internalType": "address",
          "name": "_address",
          "type": "address"
        },
        {
          "indexed": false,
          "internalType": "uint256",
          "name": "amountLeaf",
          "type": "uint256"
        }
      ],
      "name": "LeafTransfer",
      "type": "event"
    },
    {
      "anonymous": false,
      "inputs": [
        {
          "indexed": false,
          "internalType": "address",
          "name": "_address",
          "type": "address"
        },
        {
          "indexed": false,
          "internalType": "string",
          "name": "uriIpfs",
          "type": "string"
        }
      ],
      "name": "NftBuyed",
      "type": "event"
    },
    {
      "anonymous": false,
      "inputs": [
        {
          "indexed": true,
          "internalType": "address",
          "name": "previousOwner",
          "type": "address"
        },
        {
          "indexed": true,
          "internalType": "address",
          "name": "newOwner",
          "type": "address"
        }
      ],
      "name": "OwnershipTransferred",
      "type": "event"
    },
    {
      "inputs": [],
      "name": "owner",
      "outputs": [
        {
          "internalType": "address",
          "name": "",
          "type": "address"
        }
      ],
      "stateMutability": "view",
      "type": "function"
    },
    {
      "inputs": [],
      "name": "renounceOwnership",
      "outputs": [],
      "stateMutability": "nonpayable",
      "type": "function"
    },
    {
      "inputs": [
        {
          "internalType": "address",
          "name": "newOwner",
          "type": "address"
        }
      ],
      "name": "transferOwnership",
      "outputs": [],
      "stateMutability": "nonpayable",
      "type": "function"
    },
    {
      "inputs": [],
      "name": "mintLeaf",
      "outputs": [],
      "stateMutability": "nonpayable",
      "type": "function"
    },
    {
      "inputs": [],
      "name": "buyNft",
      "outputs": [],
      "stateMutability": "payable",
      "type": "function"
    },
    {
      "inputs": [
        {
          "internalType": "uint32",
          "name": "_nbStep",
          "type": "uint32"
        }
      ],
      "name": "stepToLeaf",
      "outputs": [],
      "stateMutability": "nonpayable",
      "type": "function"
    },
    {
      "inputs": [
        {
          "internalType": "uint32",
          "name": "_nbStep",
          "type": "uint32"
        }
      ],
      "name": "stepToLeafWithoutTimestamp",
      "outputs": [],
      "stateMutability": "nonpayable",
      "type": "function"
    },
    {
      "inputs": [
        {
          "internalType": "uint256",
          "name": "_amount",
          "type": "uint256"
        }
      ],
      "name": "withdraw",
      "outputs": [],
      "stateMutability": "nonpayable",
      "type": "function"
    },
    {
      "inputs": [],
      "name": "getPlayer",
      "outputs": [
        {
          "components": [
            {
              "internalType": "uint32",
              "name": "oldNbStep",
              "type": "uint32"
            },
            {
              "internalType": "uint32",
              "name": "nbDaySuccess",
              "type": "uint32"
            },
            {
              "internalType": "uint32",
              "name": "level",
              "type": "uint32"
            },
            {
              "internalType": "uint256",
              "name": "totalNbStep",
              "type": "uint256"
            },
            {
              "internalType": "uint256",
              "name": "lastUpdateDate",
              "type": "uint256"
            },
            {
              "internalType": "string[]",
              "name": "uriIpfs",
              "type": "string[]"
            }
          ],
          "internalType": "struct LeafDapp.Player",
          "name": "",
          "type": "tuple"
        }
      ],
      "stateMutability": "view",
      "type": "function"
    },
    {
      "inputs": [
        {
          "internalType": "bool",
          "name": "_state",
          "type": "bool"
        }
      ],
      "name": "setPause",
      "outputs": [],
      "stateMutability": "nonpayable",
      "type": "function"
    },
    {
      "inputs": [],
      "name": "getPause",
      "outputs": [
        {
          "internalType": "bool",
          "name": "",
          "type": "bool"
        }
      ],
      "stateMutability": "view",
      "type": "function"
    },
    {
      "inputs": [
        {
          "internalType": "bool",
          "name": "_state",
          "type": "bool"
        }
      ],
      "name": "setTest",
      "outputs": [],
      "stateMutability": "nonpayable",
      "type": "function"
    },
    {
      "inputs": [],
      "name": "getTest",
      "outputs": [
        {
          "internalType": "bool",
          "name": "",
          "type": "bool"
        }
      ],
      "stateMutability": "view",
      "type": "function"
    },
    {
      "inputs": [
        {
          "internalType": "uint256",
          "name": "_newCost",
          "type": "uint256"
        }
      ],
      "name": "setCost",
      "outputs": [],
      "stateMutability": "nonpayable",
      "type": "function"
    },
    {
      "inputs": [],
      "name": "getCost",
      "outputs": [
        {
          "internalType": "uint256",
          "name": "",
          "type": "uint256"
        }
      ],
      "stateMutability": "view",
      "type": "function"
    },
    {
      "inputs": [
        {
          "internalType": "address",
          "name": "_player",
          "type": "address"
        }
      ],
      "name": "whitelistPlayer",
      "outputs": [],
      "stateMutability": "nonpayable",
      "type": "function"
    },
    {
      "inputs": [
        {
          "internalType": "address",
          "name": "_player",
          "type": "address"
        }
      ],
      "name": "removeWhitelistPlayer",
      "outputs": [],
      "stateMutability": "nonpayable",
      "type": "function"
    },
    {
      "inputs": [
        {
          "internalType": "address",
          "name": "_player",
          "type": "address"
        }
      ],
      "name": "balancePlayer",
      "outputs": [
        {
          "internalType": "uint256",
          "name": "",
          "type": "uint256"
        }
      ],
      "stateMutability": "view",
      "type": "function"
    },
    {
      "inputs": [],
      "name": "balance",
      "outputs": [
        {
          "internalType": "uint256",
          "name": "",
          "type": "uint256"
        }
      ],
      "stateMutability": "view",
      "type": "function"
    },
    {
      "inputs": [],
      "name": "balanceNft",
      "outputs": [
        {
          "internalType": "uint256",
          "name": "",
          "type": "uint256"
        }
      ],
      "stateMutability": "view",
      "type": "function"
    },
    {
      "inputs": [],
      "name": "balanceDappLeaf",
      "outputs": [
        {
          "internalType": "uint256",
          "name": "",
          "type": "uint256"
        }
      ],
      "stateMutability": "view",
      "type": "function"
    },
    {
      "inputs": [],
      "name": "balanceDappEth",
      "outputs": [
        {
          "internalType": "uint256",
          "name": "",
          "type": "uint256"
        }
      ],
      "stateMutability": "view",
      "type": "function"
    },
    {
      "inputs": [],
      "name": "getLeaf",
      "outputs": [
        {
          "internalType": "contract LeafToken",
          "name": "",
          "type": "address"
        }
      ],
      "stateMutability": "view",
      "type": "function"
    },
    {
      "inputs": [],
      "name": "getNft",
      "outputs": [
        {
          "internalType": "contract LeafNft",
          "name": "",
          "type": "address"
        }
      ],
      "stateMutability": "view",
      "type": "function"
    }
  ],
  "bytecode": "0x6080604052662386f26fc100006001556127106002556a7c13bc4b2c133c560000006003556000600460006101000a81548160ff0219169083151502179055506001600460016101000a81548160ff0219169083151502179055503480156200006757600080fd5b5060405162003ad538038062003ad583398181016040528101906200008d91906200026d565b620000ad620000a16200013760201b60201c565b6200013f60201b60201c565b81600460026101000a81548173ffffffffffffffffffffffffffffffffffffffff021916908373ffffffffffffffffffffffffffffffffffffffff16021790555080600560006101000a81548173ffffffffffffffffffffffffffffffffffffffff021916908373ffffffffffffffffffffffffffffffffffffffff1602179055505050620002b4565b600033905090565b60008060009054906101000a900473ffffffffffffffffffffffffffffffffffffffff169050816000806101000a81548173ffffffffffffffffffffffffffffffffffffffff021916908373ffffffffffffffffffffffffffffffffffffffff1602179055508173ffffffffffffffffffffffffffffffffffffffff168173ffffffffffffffffffffffffffffffffffffffff167f8be0079c531659141344cd1fd0a4f28419497f9722a3daafe3b4186f6b6457e060405160405180910390a35050565b600080fd5b600073ffffffffffffffffffffffffffffffffffffffff82169050919050565b6000620002358262000208565b9050919050565b620002478162000228565b81146200025357600080fd5b50565b60008151905062000267816200023c565b92915050565b6000806040838503121562000287576200028662000203565b5b6000620002978582860162000256565b9250506020620002aa8582860162000256565b9150509250929050565b61381180620002c46000396000f3fe60806040526004361061018b5760003560e01c8063a8cd0a80116100d6578063be559f7a1161007f578063e69257c211610059578063e69257c2146104f3578063f2fde38b146104fd578063fc412897146105265761018b565b8063be559f7a14610474578063bedb86fb1461049f578063dee78144146104c85761018b565b8063ac513fb8116100b0578063ac513fb8146103f3578063b69ef8a81461041e578063bd3e19d4146104495761018b565b8063a8cd0a8014610374578063abb4eeed1461039f578063abb643bf146103c85761018b565b80636582ebcf11610138578063715018a611610112578063715018a61461030757806378c861011461031e5780638da5cb5b146103495761018b565b80636582ebcf1461027857806369e9f238146102a157806370b247fa146102ca5761018b565b80633e3ca9d3116101695780633e3ca9d31461020d57806344a0d68a1461023857806365341ced146102615761018b565b80630d897b90146101905780632e1a7d4d146101b95780633308f42d146101e2575b600080fd5b34801561019c57600080fd5b506101b760048036038101906101b2919061292a565b61054f565b005b3480156101c557600080fd5b506101e060048036038101906101db919061298d565b6109ac565b005b3480156101ee57600080fd5b506101f7610a72565b6040516102049190612bbc565b60405180910390f35b34801561021957600080fd5b50610222610cad565b60405161022f9190612bf9565b60405180910390f35b34801561024457600080fd5b5061025f600480360381019061025a919061298d565b610d40565b005b34801561026d57600080fd5b50610276610dc6565b005b34801561028457600080fd5b5061029f600480360381019061029a9190612c40565b610f7e565b005b3480156102ad57600080fd5b506102c860048036038101906102c39190612ccb565b611017565b005b3480156102d657600080fd5b506102f160048036038101906102ec9190612ccb565b61115e565b6040516102fe9190612d07565b60405180910390f35b34801561031357600080fd5b5061031c61127f565b005b34801561032a57600080fd5b50610333611307565b6040516103409190612d07565b60405180910390f35b34801561035557600080fd5b5061035e61142f565b60405161036b9190612d31565b60405180910390f35b34801561038057600080fd5b50610389611458565b6040516103969190612bf9565b60405180910390f35b3480156103ab57600080fd5b506103c660048036038101906103c19190612ccb565b6114eb565b005b3480156103d457600080fd5b506103dd611632565b6040516103ea9190612d07565b60405180910390f35b3480156103ff57600080fd5b506104086116c6565b6040516104159190612dab565b60405180910390f35b34801561042a57600080fd5b5061043361176c565b6040516104409190612d07565b60405180910390f35b34801561045557600080fd5b5061045e611857565b60405161046b9190612d07565b60405180910390f35b34801561048057600080fd5b506104896118dd565b6040516104969190612de7565b60405180910390f35b3480156104ab57600080fd5b506104c660048036038101906104c19190612c40565b611983565b005b3480156104d457600080fd5b506104dd611a1c565b6040516104ea9190612d07565b60405180910390f35b6104fb611aa0565b005b34801561050957600080fd5b50610524600480360381019061051f9190612ccb565b611e18565b005b34801561053257600080fd5b5061054d6004803603810190610548919061292a565b611f10565b005b6105583361239f565b610597576040517f08c379a000000000000000000000000000000000000000000000000000000000815260040161058e90612e85565b60405180910390fd5b600460019054906101000a900460ff166105b057600080fd5b600460009054906101000a900460ff1615610600576040517f08c379a00000000000000000000000000000000000000000000000000000000081526004016105f790612ef1565b60405180910390fd5b6106093361239f565b610648576040517f08c379a000000000000000000000000000000000000000000000000000000000815260040161063f90612f5d565b60405180910390fd5b6000600a826106579190612fdb565b63ffffffff1690506103e88263ffffffff161061090c5742600660003373ffffffffffffffffffffffffffffffffffffffff1673ffffffffffffffffffffffffffffffffffffffff16815260200190815260200160002060020181905550600660003373ffffffffffffffffffffffffffffffffffffffff1673ffffffffffffffffffffffffffffffffffffffff168152602001908152602001600020600001600481819054906101000a900463ffffffff16809291906107179061300c565b91906101000a81548163ffffffff021916908363ffffffff1602179055505081600660003373ffffffffffffffffffffffffffffffffffffffff1673ffffffffffffffffffffffffffffffffffffffff16815260200190815260200160002060000160006101000a81548163ffffffff021916908363ffffffff1602179055508163ffffffff16600660003373ffffffffffffffffffffffffffffffffffffffff1673ffffffffffffffffffffffffffffffffffffffff16815260200190815260200160002060010160008282546107ef9190613039565b925050819055506003600660003373ffffffffffffffffffffffffffffffffffffffff1673ffffffffffffffffffffffffffffffffffffffff16815260200190815260200160002060000160089054906101000a900463ffffffff1663ffffffff1610156108655761086033612464565b610907565b600460029054906101000a900473ffffffffffffffffffffffffffffffffffffffff1673ffffffffffffffffffffffffffffffffffffffff1663a9059cbb33836040518363ffffffff1660e01b81526004016108c292919061308f565b6020604051808303816000875af11580156108e1573d6000803e3d6000fd5b505050506040513d601f19601f8201168201806040525081019061090591906130cd565b505b61096f565b6000600660003373ffffffffffffffffffffffffffffffffffffffff1673ffffffffffffffffffffffffffffffffffffffff16815260200190815260200160002060000160046101000a81548163ffffffff021916908363ffffffff1602179055505b7ffdc7244a84d48018e10560cd2998b0f8407ac5505af29ca3578d6730796f5b3033826040516109a092919061308f565b60405180910390a15050565b6109b461268b565b73ffffffffffffffffffffffffffffffffffffffff166109d261142f565b73ffffffffffffffffffffffffffffffffffffffff1614610a28576040517f08c379a0000000000000000000000000000000000000000000000000000000008152600401610a1f90613146565b60405180910390fd5b3373ffffffffffffffffffffffffffffffffffffffff166108fc829081150290604051600060405180830381858888f19350505050158015610a6e573d6000803e3d6000fd5b5050565b610a7a6127ef565b3373ffffffffffffffffffffffffffffffffffffffff16610a9961142f565b73ffffffffffffffffffffffffffffffffffffffff161480610ac05750610abf3361239f565b5b610aff576040517f08c379a0000000000000000000000000000000000000000000000000000000008152600401610af690612e85565b60405180910390fd5b600660003373ffffffffffffffffffffffffffffffffffffffff1673ffffffffffffffffffffffffffffffffffffffff1681526020019081526020016000206040518060c00160405290816000820160009054906101000a900463ffffffff1663ffffffff1663ffffffff1681526020016000820160049054906101000a900463ffffffff1663ffffffff1663ffffffff1681526020016000820160089054906101000a900463ffffffff1663ffffffff1663ffffffff168152602001600182015481526020016002820154815260200160038201805480602002602001604051908101604052809291908181526020016000905b82821015610ca0578382906000526020600020018054610c1390613195565b80601f0160208091040260200160405190810160405280929190818152602001828054610c3f90613195565b8015610c8c5780601f10610c6157610100808354040283529160200191610c8c565b820191906000526020600020905b815481529060010190602001808311610c6f57829003601f168201915b505050505081526020019060010190610bf4565b5050505081525050905090565b6000610cb761268b565b73ffffffffffffffffffffffffffffffffffffffff16610cd561142f565b73ffffffffffffffffffffffffffffffffffffffff1614610d2b576040517f08c379a0000000000000000000000000000000000000000000000000000000008152600401610d2290613146565b60405180910390fd5b600460009054906101000a900460ff16905090565b610d4861268b565b73ffffffffffffffffffffffffffffffffffffffff16610d6661142f565b73ffffffffffffffffffffffffffffffffffffffff1614610dbc576040517f08c379a0000000000000000000000000000000000000000000000000000000008152600401610db390613146565b60405180910390fd5b8060018190555050565b610dce61268b565b73ffffffffffffffffffffffffffffffffffffffff16610dec61142f565b73ffffffffffffffffffffffffffffffffffffffff1614610e42576040517f08c379a0000000000000000000000000000000000000000000000000000000008152600401610e3990613146565b60405180910390fd5b600460029054906101000a900473ffffffffffffffffffffffffffffffffffffffff1673ffffffffffffffffffffffffffffffffffffffff1663a0712d686003546040518263ffffffff1660e01b8152600401610e9f9190612d07565b600060405180830381600087803b158015610eb957600080fd5b505af1158015610ecd573d6000803e3d6000fd5b50505050600460029054906101000a900473ffffffffffffffffffffffffffffffffffffffff1673ffffffffffffffffffffffffffffffffffffffff1663a9059cbb3369d3c21bcecceda10000006040518363ffffffff1660e01b8152600401610f3892919061308f565b6020604051808303816000875af1158015610f57573d6000803e3d6000fd5b505050506040513d601f19601f82011682018060405250810190610f7b91906130cd565b50565b610f8661268b565b73ffffffffffffffffffffffffffffffffffffffff16610fa461142f565b73ffffffffffffffffffffffffffffffffffffffff1614610ffa576040517f08c379a0000000000000000000000000000000000000000000000000000000008152600401610ff190613146565b60405180910390fd5b80600460016101000a81548160ff02191690831515021790555050565b61101f61268b565b73ffffffffffffffffffffffffffffffffffffffff1661103d61142f565b73ffffffffffffffffffffffffffffffffffffffff1614611093576040517f08c379a000000000000000000000000000000000000000000000000000000000815260040161108a90613146565b60405180910390fd5b600073ffffffffffffffffffffffffffffffffffffffff168173ffffffffffffffffffffffffffffffffffffffff161415611103576040517f08c379a00000000000000000000000000000000000000000000000000000000081526004016110fa90613239565b60405180910390fd5b6001600760008373ffffffffffffffffffffffffffffffffffffffff1673ffffffffffffffffffffffffffffffffffffffff16815260200190815260200160002060006101000a81548160ff02191690831515021790555050565b600061116861268b565b73ffffffffffffffffffffffffffffffffffffffff1661118661142f565b73ffffffffffffffffffffffffffffffffffffffff16146111dc576040517f08c379a00000000000000000000000000000000000000000000000000000000081526004016111d390613146565b60405180910390fd5b600460029054906101000a900473ffffffffffffffffffffffffffffffffffffffff1673ffffffffffffffffffffffffffffffffffffffff166370a08231836040518263ffffffff1660e01b81526004016112379190612d31565b602060405180830381865afa158015611254573d6000803e3d6000fd5b505050506040513d601f19601f82011682018060405250810190611278919061326e565b9050919050565b61128761268b565b73ffffffffffffffffffffffffffffffffffffffff166112a561142f565b73ffffffffffffffffffffffffffffffffffffffff16146112fb576040517f08c379a00000000000000000000000000000000000000000000000000000000081526004016112f290613146565b60405180910390fd5b6113056000612693565b565b60003373ffffffffffffffffffffffffffffffffffffffff1661132861142f565b73ffffffffffffffffffffffffffffffffffffffff16148061134f575061134e3361239f565b5b61138e576040517f08c379a000000000000000000000000000000000000000000000000000000000815260040161138590612e85565b60405180910390fd5b600460029054906101000a900473ffffffffffffffffffffffffffffffffffffffff1673ffffffffffffffffffffffffffffffffffffffff166370a08231306040518263ffffffff1660e01b81526004016113e99190612d31565b602060405180830381865afa158015611406573d6000803e3d6000fd5b505050506040513d601f19601f8201168201806040525081019061142a919061326e565b905090565b60008060009054906101000a900473ffffffffffffffffffffffffffffffffffffffff16905090565b600061146261268b565b73ffffffffffffffffffffffffffffffffffffffff1661148061142f565b73ffffffffffffffffffffffffffffffffffffffff16146114d6576040517f08c379a00000000000000000000000000000000000000000000000000000000081526004016114cd90613146565b60405180910390fd5b600460019054906101000a900460ff16905090565b6114f361268b565b73ffffffffffffffffffffffffffffffffffffffff1661151161142f565b73ffffffffffffffffffffffffffffffffffffffff1614611567576040517f08c379a000000000000000000000000000000000000000000000000000000000815260040161155e90613146565b60405180910390fd5b600073ffffffffffffffffffffffffffffffffffffffff168173ffffffffffffffffffffffffffffffffffffffff1614156115d7576040517f08c379a00000000000000000000000000000000000000000000000000000000081526004016115ce90613239565b60405180910390fd5b6000600760008373ffffffffffffffffffffffffffffffffffffffff1673ffffffffffffffffffffffffffffffffffffffff16815260200190815260200160002060006101000a81548160ff02191690831515021790555050565b60003373ffffffffffffffffffffffffffffffffffffffff1661165361142f565b73ffffffffffffffffffffffffffffffffffffffff16148061167a57506116793361239f565b5b6116b9576040517f08c379a00000000000000000000000000000000000000000000000000000000081526004016116b090612e85565b60405180910390fd5b6116c1612757565b905090565b60006116d061268b565b73ffffffffffffffffffffffffffffffffffffffff166116ee61142f565b73ffffffffffffffffffffffffffffffffffffffff1614611744576040517f08c379a000000000000000000000000000000000000000000000000000000000815260040161173b90613146565b60405180910390fd5b600560009054906101000a900473ffffffffffffffffffffffffffffffffffffffff16905090565b60006117773361239f565b6117b6576040517f08c379a00000000000000000000000000000000000000000000000000000000081526004016117ad90612e85565b60405180910390fd5b600460029054906101000a900473ffffffffffffffffffffffffffffffffffffffff1673ffffffffffffffffffffffffffffffffffffffff166370a08231336040518263ffffffff1660e01b81526004016118119190612d31565b602060405180830381865afa15801561182e573d6000803e3d6000fd5b505050506040513d601f19601f82011682018060405250810190611852919061326e565b905090565b600061186161268b565b73ffffffffffffffffffffffffffffffffffffffff1661187f61142f565b73ffffffffffffffffffffffffffffffffffffffff16146118d5576040517f08c379a00000000000000000000000000000000000000000000000000000000081526004016118cc90613146565b60405180910390fd5b600154905090565b60006118e761268b565b73ffffffffffffffffffffffffffffffffffffffff1661190561142f565b73ffffffffffffffffffffffffffffffffffffffff161461195b576040517f08c379a000000000000000000000000000000000000000000000000000000000815260040161195290613146565b60405180910390fd5b600460029054906101000a900473ffffffffffffffffffffffffffffffffffffffff16905090565b61198b61268b565b73ffffffffffffffffffffffffffffffffffffffff166119a961142f565b73ffffffffffffffffffffffffffffffffffffffff16146119ff576040517f08c379a00000000000000000000000000000000000000000000000000000000081526004016119f690613146565b60405180910390fd5b80600460006101000a81548160ff02191690831515021790555050565b6000611a2661268b565b73ffffffffffffffffffffffffffffffffffffffff16611a4461142f565b73ffffffffffffffffffffffffffffffffffffffff1614611a9a576040517f08c379a0000000000000000000000000000000000000000000000000000000008152600401611a9190613146565b60405180910390fd5b47905090565b611aa93361239f565b15611ae9576040517f08c379a0000000000000000000000000000000000000000000000000000000008152600401611ae09061330d565b60405180910390fd5b600760003373ffffffffffffffffffffffffffffffffffffffff1673ffffffffffffffffffffffffffffffffffffffff16815260200190815260200160002060009054906101000a900460ff1615611b76576040517f08c379a0000000000000000000000000000000000000000000000000000000008152600401611b6d9061330d565b60405180910390fd5b600460009054906101000a900460ff1615611bc6576040517f08c379a0000000000000000000000000000000000000000000000000000000008152600401611bbd90612ef1565b60405180910390fd5b60003490506000611bd5612757565b90506001548214611c1b576040517f08c379a0000000000000000000000000000000000000000000000000000000008152600401611c129061339f565b60405180910390fd5b6002548110611c5f576040517f08c379a0000000000000000000000000000000000000000000000000000000008152600401611c5690613431565b60405180910390fd5b6000600560009054906101000a900473ffffffffffffffffffffffffffffffffffffffff1673ffffffffffffffffffffffffffffffffffffffff166305afb3a4336040518263ffffffff1660e01b8152600401611cbc9190612d31565b6000604051808303816000875af1158015611cdb573d6000803e3d6000fd5b505050506040513d6000823e3d601f19601f82011682018060405250810190611d049190613577565b9050600660003373ffffffffffffffffffffffffffffffffffffffff1673ffffffffffffffffffffffffffffffffffffffff16815260200190815260200160002060030181908060018154018082558091505060019003906000526020600020016000909190919091509080519060200190611d81929190612837565b506001600760003373ffffffffffffffffffffffffffffffffffffffff1673ffffffffffffffffffffffffffffffffffffffff16815260200190815260200160002060006101000a81548160ff0219169083151502179055507ff0b6e46f60e87f78ab3b70f17bce0b29d1ec227bd0959f7dace8b8f8079d3fe23382604051611e0b9291906135f9565b60405180910390a1505050565b611e2061268b565b73ffffffffffffffffffffffffffffffffffffffff16611e3e61142f565b73ffffffffffffffffffffffffffffffffffffffff1614611e94576040517f08c379a0000000000000000000000000000000000000000000000000000000008152600401611e8b90613146565b60405180910390fd5b600073ffffffffffffffffffffffffffffffffffffffff168173ffffffffffffffffffffffffffffffffffffffff161415611f04576040517f08c379a0000000000000000000000000000000000000000000000000000000008152600401611efb9061369b565b60405180910390fd5b611f0d81612693565b50565b611f193361239f565b611f58576040517f08c379a0000000000000000000000000000000000000000000000000000000008152600401611f4f90612e85565b60405180910390fd5b62015180600660003373ffffffffffffffffffffffffffffffffffffffff1673ffffffffffffffffffffffffffffffffffffffff1681526020019081526020016000206002015442611faa91906136bb565b1015611feb576040517f08c379a0000000000000000000000000000000000000000000000000000000008152600401611fe290613761565b60405180910390fd5b600460009054906101000a900460ff161561203b576040517f08c379a000000000000000000000000000000000000000000000000000000000815260040161203290612ef1565b60405180910390fd5b6000600a8261204a9190612fdb565b63ffffffff1690506103e88263ffffffff16106122ff5742600660003373ffffffffffffffffffffffffffffffffffffffff1673ffffffffffffffffffffffffffffffffffffffff16815260200190815260200160002060020181905550600660003373ffffffffffffffffffffffffffffffffffffffff1673ffffffffffffffffffffffffffffffffffffffff168152602001908152602001600020600001600481819054906101000a900463ffffffff168092919061210a9061300c565b91906101000a81548163ffffffff021916908363ffffffff1602179055505081600660003373ffffffffffffffffffffffffffffffffffffffff1673ffffffffffffffffffffffffffffffffffffffff16815260200190815260200160002060000160006101000a81548163ffffffff021916908363ffffffff1602179055508163ffffffff16600660003373ffffffffffffffffffffffffffffffffffffffff1673ffffffffffffffffffffffffffffffffffffffff16815260200190815260200160002060010160008282546121e29190613039565b925050819055506003600660003373ffffffffffffffffffffffffffffffffffffffff1673ffffffffffffffffffffffffffffffffffffffff16815260200190815260200160002060000160089054906101000a900463ffffffff1663ffffffff1610156122585761225333612464565b6122fa565b600460029054906101000a900473ffffffffffffffffffffffffffffffffffffffff1673ffffffffffffffffffffffffffffffffffffffff1663a9059cbb33836040518363ffffffff1660e01b81526004016122b592919061308f565b6020604051808303816000875af11580156122d4573d6000803e3d6000fd5b505050506040513d601f19601f820116820180604052508101906122f891906130cd565b505b612362565b6000600660003373ffffffffffffffffffffffffffffffffffffffff1673ffffffffffffffffffffffffffffffffffffffff16815260200190815260200160002060000160046101000a81548163ffffffff021916908363ffffffff1602179055505b7ffdc7244a84d48018e10560cd2998b0f8407ac5505af29ca3578d6730796f5b30338260405161239392919061308f565b60405180910390a15050565b60008073ffffffffffffffffffffffffffffffffffffffff168273ffffffffffffffffffffffffffffffffffffffff161415612410576040517f08c379a000000000000000000000000000000000000000000000000000000000815260040161240790613239565b60405180910390fd5b600760008373ffffffffffffffffffffffffffffffffffffffff1673ffffffffffffffffffffffffffffffffffffffff16815260200190815260200160002060009054906101000a900460ff169050919050565b61246d8161239f565b61247657600080fd5b600660008273ffffffffffffffffffffffffffffffffffffffff1673ffffffffffffffffffffffffffffffffffffffff168152602001908152602001600020600001600881819054906101000a900463ffffffff16809291906124d89061300c565b91906101000a81548163ffffffff021916908363ffffffff160217905550506000612710600660008473ffffffffffffffffffffffffffffffffffffffff1673ffffffffffffffffffffffffffffffffffffffff16815260200190815260200160002060000160089054906101000a900463ffffffff1663ffffffff1661255f9190613781565b90506000600560009054906101000a900473ffffffffffffffffffffffffffffffffffffffff1673ffffffffffffffffffffffffffffffffffffffff16639aa7d2c084846040518363ffffffff1660e01b81526004016125c092919061308f565b6000604051808303816000875af11580156125df573d6000803e3d6000fd5b505050506040513d6000823e3d601f19601f820116820180604052508101906126089190613577565b9050600660008473ffffffffffffffffffffffffffffffffffffffff1673ffffffffffffffffffffffffffffffffffffffff16815260200190815260200160002060030181908060018154018082558091505060019003906000526020600020016000909190919091509080519060200190612685929190612837565b50505050565b600033905090565b60008060009054906101000a900473ffffffffffffffffffffffffffffffffffffffff169050816000806101000a81548173ffffffffffffffffffffffffffffffffffffffff021916908373ffffffffffffffffffffffffffffffffffffffff1602179055508173ffffffffffffffffffffffffffffffffffffffff168173ffffffffffffffffffffffffffffffffffffffff167f8be0079c531659141344cd1fd0a4f28419497f9722a3daafe3b4186f6b6457e060405160405180910390a35050565b6000600560009054906101000a900473ffffffffffffffffffffffffffffffffffffffff1673ffffffffffffffffffffffffffffffffffffffff16636c9c2faf6040518163ffffffff1660e01b8152600401602060405180830381865afa1580156127c6573d6000803e3d6000fd5b505050506040513d601f19601f820116820180604052508101906127ea919061326e565b905090565b6040518060c00160405280600063ffffffff168152602001600063ffffffff168152602001600063ffffffff1681526020016000815260200160008152602001606081525090565b82805461284390613195565b90600052602060002090601f01602090048101928261286557600085556128ac565b82601f1061287e57805160ff19168380011785556128ac565b828001600101855582156128ac579182015b828111156128ab578251825591602001919060010190612890565b5b5090506128b991906128bd565b5090565b5b808211156128d65760008160009055506001016128be565b5090565b6000604051905090565b600080fd5b600080fd5b600063ffffffff82169050919050565b612907816128ee565b811461291257600080fd5b50565b600081359050612924816128fe565b92915050565b6000602082840312156129405761293f6128e4565b5b600061294e84828501612915565b91505092915050565b6000819050919050565b61296a81612957565b811461297557600080fd5b50565b60008135905061298781612961565b92915050565b6000602082840312156129a3576129a26128e4565b5b60006129b184828501612978565b91505092915050565b6129c3816128ee565b82525050565b6129d281612957565b82525050565b600081519050919050565b600082825260208201905092915050565b6000819050602082019050919050565b600081519050919050565b600082825260208201905092915050565b60005b83811015612a3e578082015181840152602081019050612a23565b83811115612a4d576000848401525b50505050565b6000601f19601f8301169050919050565b6000612a6f82612a04565b612a798185612a0f565b9350612a89818560208601612a20565b612a9281612a53565b840191505092915050565b6000612aa98383612a64565b905092915050565b6000602082019050919050565b6000612ac9826129d8565b612ad381856129e3565b935083602082028501612ae5856129f4565b8060005b85811015612b215784840389528151612b028582612a9d565b9450612b0d83612ab1565b925060208a01995050600181019050612ae9565b50829750879550505050505092915050565b600060c083016000830151612b4b60008601826129ba565b506020830151612b5e60208601826129ba565b506040830151612b7160408601826129ba565b506060830151612b8460608601826129c9565b506080830151612b9760808601826129c9565b5060a083015184820360a0860152612baf8282612abe565b9150508091505092915050565b60006020820190508181036000830152612bd68184612b33565b905092915050565b60008115159050919050565b612bf381612bde565b82525050565b6000602082019050612c0e6000830184612bea565b92915050565b612c1d81612bde565b8114612c2857600080fd5b50565b600081359050612c3a81612c14565b92915050565b600060208284031215612c5657612c556128e4565b5b6000612c6484828501612c2b565b91505092915050565b600073ffffffffffffffffffffffffffffffffffffffff82169050919050565b6000612c9882612c6d565b9050919050565b612ca881612c8d565b8114612cb357600080fd5b50565b600081359050612cc581612c9f565b92915050565b600060208284031215612ce157612ce06128e4565b5b6000612cef84828501612cb6565b91505092915050565b612d0181612957565b82525050565b6000602082019050612d1c6000830184612cf8565b92915050565b612d2b81612c8d565b82525050565b6000602082019050612d466000830184612d22565b92915050565b6000819050919050565b6000612d71612d6c612d6784612c6d565b612d4c565b612c6d565b9050919050565b6000612d8382612d56565b9050919050565b6000612d9582612d78565b9050919050565b612da581612d8a565b82525050565b6000602082019050612dc06000830184612d9c565b92915050565b6000612dd182612d78565b9050919050565b612de181612dc6565b82525050565b6000602082019050612dfc6000830184612dd8565b92915050565b600082825260208201905092915050565b7f4c65616644617070203a2063616c6c6572206973206e6f74206120706c61796560008201527f7200000000000000000000000000000000000000000000000000000000000000602082015250565b6000612e6f602183612e02565b9150612e7a82612e13565b604082019050919050565b60006020820190508181036000830152612e9e81612e62565b9050919050565b7f4c65616644617070203a20697320706175736564000000000000000000000000600082015250565b6000612edb601483612e02565b9150612ee682612ea5565b602082019050919050565b60006020820190508181036000830152612f0a81612ece565b9050919050565b7f4c65616644417070203a206e6f74206120706c61796572000000000000000000600082015250565b6000612f47601783612e02565b9150612f5282612f11565b602082019050919050565b60006020820190508181036000830152612f7681612f3a565b9050919050565b7f4e487b7100000000000000000000000000000000000000000000000000000000600052601260045260246000fd5b7f4e487b7100000000000000000000000000000000000000000000000000000000600052601160045260246000fd5b6000612fe6826128ee565b9150612ff1836128ee565b92508261300157613000612f7d565b5b828204905092915050565b6000613017826128ee565b915063ffffffff82141561302e5761302d612fac565b5b600182019050919050565b600061304482612957565b915061304f83612957565b9250827fffffffffffffffffffffffffffffffffffffffffffffffffffffffffffffffff0382111561308457613083612fac565b5b828201905092915050565b60006040820190506130a46000830185612d22565b6130b16020830184612cf8565b9392505050565b6000815190506130c781612c14565b92915050565b6000602082840312156130e3576130e26128e4565b5b60006130f1848285016130b8565b91505092915050565b7f4f776e61626c653a2063616c6c6572206973206e6f7420746865206f776e6572600082015250565b6000613130602083612e02565b915061313b826130fa565b602082019050919050565b6000602082019050818103600083015261315f81613123565b9050919050565b7f4e487b7100000000000000000000000000000000000000000000000000000000600052602260045260246000fd5b600060028204905060018216806131ad57607f821691505b602082108114156131c1576131c0613166565b5b50919050565b7f4c65616644617070203a206d757374206e6f7420626520657175616c20746f2060008201527f6164647265737320300000000000000000000000000000000000000000000000602082015250565b6000613223602983612e02565b915061322e826131c7565b604082019050919050565b6000602082019050818103600083015261325281613216565b9050919050565b60008151905061326881612961565b92915050565b600060208284031215613284576132836128e4565b5b600061329284828501613259565b91505092915050565b7f4c65616644617070203a2074686973206164647265737320616c72656164792060008201527f68617320616e206e667400000000000000000000000000000000000000000000602082015250565b60006132f7602a83612e02565b91506133028261329b565b604082019050919050565b60006020820190508181036000830152613326816132ea565b9050919050565b7f4c65616644417070203a206d75737420626520617175616c20746f20302e303160008201527f4554480000000000000000000000000000000000000000000000000000000000602082015250565b6000613389602383612e02565b91506133948261332d565b604082019050919050565b600060208201905081810360008301526133b88161337c565b9050919050565b7f4c65616644417070203a20746865204c4e46542072657365727665206973206560008201527f6d70747900000000000000000000000000000000000000000000000000000000602082015250565b600061341b602483612e02565b9150613426826133bf565b604082019050919050565b6000602082019050818103600083015261344a8161340e565b9050919050565b600080fd5b600080fd5b7f4e487b7100000000000000000000000000000000000000000000000000000000600052604160045260246000fd5b61349382612a53565b810181811067ffffffffffffffff821117156134b2576134b161345b565b5b80604052505050565b60006134c56128da565b90506134d1828261348a565b919050565b600067ffffffffffffffff8211156134f1576134f061345b565b5b6134fa82612a53565b9050602081019050919050565b600061351a613515846134d6565b6134bb565b90508281526020810184848401111561353657613535613456565b5b613541848285612a20565b509392505050565b600082601f83011261355e5761355d613451565b5b815161356e848260208601613507565b91505092915050565b60006020828403121561358d5761358c6128e4565b5b600082015167ffffffffffffffff8111156135ab576135aa6128e9565b5b6135b784828501613549565b91505092915050565b60006135cb82612a04565b6135d58185612e02565b93506135e5818560208601612a20565b6135ee81612a53565b840191505092915050565b600060408201905061360e6000830185612d22565b818103602083015261362081846135c0565b90509392505050565b7f4f776e61626c653a206e6577206f776e657220697320746865207a65726f206160008201527f6464726573730000000000000000000000000000000000000000000000000000602082015250565b6000613685602683612e02565b915061369082613629565b604082019050919050565b600060208201905081810360008301526136b481613678565b9050919050565b60006136c682612957565b91506136d183612957565b9250828210156136e4576136e3612fac565b5b828203905092915050565b7f4c65616644417070203a20612064617920686173206e6f74207061737365642060008201527f7965740000000000000000000000000000000000000000000000000000000000602082015250565b600061374b602383612e02565b9150613756826136ef565b604082019050919050565b6000602082019050818103600083015261377a8161373e565b9050919050565b600061378c82612957565b915061379783612957565b9250817fffffffffffffffffffffffffffffffffffffffffffffffffffffffffffffffff04831182151516156137d0576137cf612fac565b5b82820290509291505056fea26469706673582212209405e95e764ff6354bb336bc3268656726677d4b6a18c3074553032b6f29478664736f6c634300080a0033",
  "immutableReferences": {},
  "source": "// SPDX-License-Identifier: MIT\r\npragma solidity 0.8.10;\r\n\r\nimport \"@openzeppelin/contracts/access/Ownable.sol\";\r\nimport \"./LeafToken.sol\";\r\nimport \"./LeafNft.sol\";\r\n\r\ncontract LeafDapp is Ownable {\r\n\r\n  /// @dev value to go to the next level\r\n  uint constant NEW_LEVEL_VALUE = 10000;\r\n  uint constant OWNER_LEAFS = 1000000*(10 ** 18);\r\n  uint constant MIN_NB_STEPS = 1000;\r\n  uint constant MAX_LEVEL = 3;\r\n\r\n  /// @dev the NFT price\r\n  uint cost = 0.01 ether;\r\n  /// @dev max supply for 1st level NFTs\r\n  uint maxSupplyNft = 10000;\r\n  /// @dev max supply for token LEAF\r\n  uint maxSupplyLeaf = 150000000 * (10**18);\r\n  /// @dev to pause the dapp\r\n  bool paused = false;\r\n  /// @dev if can do test without time restriction\r\n  bool test = true;\r\n  /// @dev the token ERC20 LEAF\r\n  LeafToken leaf;\r\n  /// @dev the token ERC721 LNFT\r\n  LeafNft nft;\r\n\r\n  /// @param oldNbStep yesterday's step count\r\n  /// @param nbDaySuccess number of days success (+10000 steps)\r\n  /// @param level level of player 0, 1, 2 or 3\r\n  /// @param totalNbStep total number of steps \r\n  /// @param lastUpdateDate last update when player had more than 10000 steps\r\n  /// @param uriIpfs list of ipfs URIs\r\n  struct Player {\r\n    uint32 oldNbStep;\r\n    uint32 nbDaySuccess;\r\n    uint32 level;\r\n    uint totalNbStep;\r\n    uint lastUpdateDate;\r\n    string[] uriIpfs;\r\n  }\r\n\r\n  /// @dev return player from his address\r\n  mapping (address => Player) players;\r\n  /// @dev returns player validity from his address\r\n  mapping(address => bool) whitelisted;\r\n\r\n  /// @dev when new NFT was buyed\r\n  event NftBuyed(address _address, string uriIpfs);\r\n  /// @dev when LEAF was transfered\r\n  event LeafTransfer(address _address, uint amountLeaf);\r\n\r\n  /// @param _leaf the ERC20 LEAF token contract address\r\n  /// @param _nft the ERC721 LNFT token contract address\r\n  constructor(address _leaf, address _nft) {\r\n    leaf = LeafToken(_leaf);\r\n    nft = LeafNft(_nft);\r\n  }\r\n\r\n  modifier onlyPlayer() {\r\n    require (isPlayer(msg.sender), \"LeafDapp : caller is not a player\");\r\n    _;\r\n  }\r\n\r\n  modifier onlyOwnerOrPlayer() {\r\n    require (owner() == msg.sender ||\r\n      isPlayer(msg.sender), \"LeafDapp : caller is not a player\");\r\n    _;\r\n  }\r\n\r\n  /// @dev mint million LEAF for owner\r\n  function mintLeaf() external onlyOwner {\r\n    leaf.mint(maxSupplyLeaf);\r\n    leaf.transfer(msg.sender, OWNER_LEAFS);\r\n  }\r\n\r\n  /// @dev to play you have to buy the first NFT\r\n  function buyNft() payable external {\r\n    require(! isPlayer(msg.sender), \"LeafDapp : this address already has an nft\");\r\n    require(! whitelisted[msg.sender], \"LeafDapp : this address already has an nft\");\r\n    require(!paused, \"LeafDapp : is paused\");\r\n    uint amountTobuy = msg.value;\r\n    uint supply = nftSupply();\r\n    require(amountTobuy == cost, \"LeafDApp : must be aqual to 0.01ETH\");\r\n    require(supply < maxSupplyNft, \"LeafDApp : the LNFT reserve is empty\");\r\n\r\n    string memory newNft = nft.firstMint(msg.sender);\r\n    players[msg.sender].uriIpfs.push(newNft);\r\n    whitelisted[msg.sender] = true;\r\n\r\n    emit NftBuyed(msg.sender, newNft);\r\n  }\r\n\r\n\r\n\r\n  /// @dev update player data related to the number of steps\r\n  /// @param _nbStep number of steps per day\r\n  function stepToLeaf(uint32 _nbStep) external onlyPlayer {\r\n    require(block.timestamp - players[msg.sender].lastUpdateDate >= 1 days,\r\n      \"LeafDApp : a day has not passed yet\");\r\n    require(!paused, \"LeafDapp : is paused\");\r\n    \r\n    uint amountLeaf = _nbStep / 10;\r\n\r\n    if(_nbStep >= MIN_NB_STEPS) {\r\n      players[msg.sender].lastUpdateDate = block.timestamp;\r\n      players[msg.sender].nbDaySuccess++;\r\n      players[msg.sender].oldNbStep = _nbStep;\r\n      players[msg.sender].totalNbStep += _nbStep;\r\n      if(players[msg.sender].level < MAX_LEVEL) {\r\n        setNewLevel(msg.sender);\r\n      } else {\r\n        leaf.transfer(msg.sender, amountLeaf);\r\n      }\r\n    } else {\r\n      players[msg.sender].nbDaySuccess = 0;\r\n    }\r\n\r\n    emit LeafTransfer(msg.sender, amountLeaf);\r\n  }\r\n\r\n  function stepToLeafWithoutTimestamp(uint32 _nbStep) external onlyPlayer {\r\n    require(test);\r\n    // require(block.timestamp - players[msg.sender].lastUpdateDate >= 1 days,\r\n    //   \"LeafDApp : a day has not passed yet\");\r\n    require(!paused, \"LeafDapp : is paused\");\r\n    require(isPlayer(msg.sender), \"LeafDApp : not a player\");\r\n    \r\n    uint amountLeaf = _nbStep / 10;\r\n\r\n    if(_nbStep >= MIN_NB_STEPS) {\r\n      players[msg.sender].lastUpdateDate = block.timestamp;\r\n      players[msg.sender].nbDaySuccess++;\r\n      players[msg.sender].oldNbStep = _nbStep;\r\n      players[msg.sender].totalNbStep += _nbStep;\r\n      if(players[msg.sender].level < MAX_LEVEL) {\r\n        setNewLevel(msg.sender);\r\n      } else {\r\n        leaf.transfer(msg.sender, amountLeaf);\r\n      }\r\n    } else {\r\n      players[msg.sender].nbDaySuccess = 0;\r\n    }\r\n\r\n    emit LeafTransfer(msg.sender, amountLeaf);\r\n  }\r\n\r\n\r\n  //////////////////////////////////////////////////////////////////////////\r\n  //   INTERNAL FUNCTIONS\r\n  //////////////////////////////////////////////////////////////////////////\r\n\r\n  /// @dev the player levels up and receives a new NFT\r\n  /// @param _player address of player\r\n  function setNewLevel(address _player) internal {\r\n    require(isPlayer(_player));\r\n\r\n    players[_player].level++;\r\n    uint newLevel = players[_player].level * NEW_LEVEL_VALUE;\r\n    string memory newNft = nft.nextMint(_player, newLevel);\r\n    players[_player].uriIpfs.push(newNft);\r\n  }\r\n\r\n  /// @return supply for one level\r\n  function nftSupply() internal view returns(uint) {\r\n    return nft.getSupply();\r\n  }\r\n\r\n  /// @dev show if player or not\r\n  function isPlayer(address _player) internal view returns(bool) {\r\n    require(_player != address(0), \"LeafDapp : must not be equal to address 0\");\r\n    return whitelisted[_player];\r\n  }\r\n\r\n\r\n  //////////////////////////////////////////////////////////////////////////\r\n  //   EXTERNAL FUNCTIONS\r\n  //////////////////////////////////////////////////////////////////////////\r\n\r\n\r\n  /// @dev withdraw for only owner\r\n  /// @param _amount the desired amount\r\n  function withdraw(uint _amount) external onlyOwner {\r\n    payable(msg.sender).transfer(_amount);\r\n  }\r\n\r\n  /// @return player \r\n  function getPlayer() external view onlyOwnerOrPlayer returns(Player memory){\r\n    return players[msg.sender];\r\n  }\r\n\r\n  /// @dev set pause/start the dapp\r\n  function setPause(bool _state) external onlyOwner {\r\n    paused = _state;\r\n  }\r\n\r\n  /// @dev get pause/start the dapp\r\n  function getPause() external view onlyOwner returns(bool) {\r\n    return paused;\r\n  }\r\n\r\n  /// @dev set on/off test mode \r\n  function setTest(bool _state) external onlyOwner {\r\n    test = _state;\r\n  }\r\n\r\n  /// @dev get on/off test mode \r\n  function getTest() external view onlyOwner returns(bool) {\r\n    return test;\r\n  }\r\n\r\n  /// @dev change the cost\r\n  function setCost(uint _newCost) external onlyOwner {\r\n    cost = _newCost;\r\n  }\r\n\r\n  /// @dev get cost\r\n  function getCost() external view onlyOwner returns(uint) {\r\n    return cost;\r\n  }\r\n\r\n  /// @dev add to whitelist\r\n  /// @param _player the address of player\r\n  function whitelistPlayer(address _player) external onlyOwner {\r\n    require(_player != address(0), \"LeafDapp : must not be equal to address 0\");\r\n    whitelisted[_player] = true;\r\n  }\r\n\r\n  /// @dev remove frome whitelist\r\n  /// @param _player the address of player\r\n  function removeWhitelistPlayer(address _player) external onlyOwner {\r\n    require(_player != address(0), \"LeafDapp : must not be equal to address 0\");\r\n    whitelisted[_player] = false;\r\n  }\r\n\r\n  /// @return balance of _player in LEAF\r\n  /// @param _player address of player\r\n  function balancePlayer(address _player) external view onlyOwner returns(uint) {\r\n    return leaf.balanceOf(_player);\r\n  }\r\n\r\n  /// @return balance of appellant in LEAF\r\n  function balance() external view onlyPlayer returns(uint) {\r\n    return leaf.balanceOf(address(msg.sender));\r\n  }\r\n\r\n  /// @return supply of NFTs\r\n  function balanceNft() external view onlyOwnerOrPlayer returns (uint) {\r\n    return nftSupply();\r\n  }\r\n\r\n  /// @return contract balance in LEAF\r\n  function balanceDappLeaf() external view onlyOwnerOrPlayer returns(uint) {\r\n    return leaf.balanceOf(address(this));\r\n  }\r\n\r\n  /// @return contract balance in ETH\r\n  function balanceDappEth() external view onlyOwner returns(uint) {\r\n    return address(this).balance;\r\n  }\r\n\r\n  /// @return leaf\r\n  function getLeaf() external view onlyOwner returns(LeafToken) {\r\n    return leaf;\r\n  }\r\n\r\n  /// @return nft\r\n  function getNft() external view onlyOwner returns(LeafNft) {\r\n    return nft;\r\n  }\r\n\r\n}",
  "sourcePath": "C:\\Users\\Aram\\Desktop\\BLOCKCHAIN\\Alyra\\6_projet_final\\leaf_owner\\contracts\\LeafDapp.sol",
  "compiler": {
    "name": "solc",
    "version": "0.8.10+commit.fc410830.Emscripten.clang"
  },
  "schemaVersion": "3.4.3",
  "updatedAt": "2022-01-20T01:11:09.481Z",
  "devdoc": {
    "events": {
      "LeafTransfer(address,uint256)": {
        "details": "when LEAF was transfered"
      },
      "NftBuyed(address,string)": {
        "details": "when new NFT was buyed"
      }
    },
    "kind": "dev",
    "methods": {
      "balance()": {
        "returns": {
          "_0": "balance of appellant in LEAF"
        }
      },
      "balanceDappEth()": {
        "returns": {
          "_0": "contract balance in ETH"
        }
      },
      "balanceDappLeaf()": {
        "returns": {
          "_0": "contract balance in LEAF"
        }
      },
      "balanceNft()": {
        "returns": {
          "_0": "supply of NFTs"
        }
      },
      "balancePlayer(address)": {
        "params": {
          "_player": "address of player"
        },
        "returns": {
          "_0": "balance of _player in LEAF"
        }
      },
      "buyNft()": {
        "details": "to play you have to buy the first NFT"
      },
      "constructor": {
        "params": {
          "_leaf": "the ERC20 LEAF token contract address",
          "_nft": "the ERC721 LNFT token contract address"
        }
      },
      "getCost()": {
        "details": "get cost"
      },
      "getLeaf()": {
        "returns": {
          "_0": "leaf"
        }
      },
      "getNft()": {
        "returns": {
          "_0": "nft"
        }
      },
      "getPause()": {
        "details": "get pause/start the dapp"
      },
      "getPlayer()": {
        "returns": {
          "_0": "player "
        }
      },
      "getTest()": {
        "details": "get on/off test mode "
      },
      "mintLeaf()": {
        "details": "mint million LEAF for owner"
      },
      "owner()": {
        "details": "Returns the address of the current owner."
      },
      "removeWhitelistPlayer(address)": {
        "details": "remove frome whitelist",
        "params": {
          "_player": "the address of player"
        }
      },
      "renounceOwnership()": {
        "details": "Leaves the contract without owner. It will not be possible to call `onlyOwner` functions anymore. Can only be called by the current owner. NOTE: Renouncing ownership will leave the contract without an owner, thereby removing any functionality that is only available to the owner."
      },
      "setCost(uint256)": {
        "details": "change the cost"
      },
      "setPause(bool)": {
        "details": "set pause/start the dapp"
      },
      "setTest(bool)": {
        "details": "set on/off test mode "
      },
      "stepToLeaf(uint32)": {
        "details": "update player data related to the number of steps",
        "params": {
          "_nbStep": "number of steps per day"
        }
      },
      "transferOwnership(address)": {
        "details": "Transfers ownership of the contract to a new account (`newOwner`). Can only be called by the current owner."
      },
      "whitelistPlayer(address)": {
        "details": "add to whitelist",
        "params": {
          "_player": "the address of player"
        }
      },
      "withdraw(uint256)": {
        "details": "withdraw for only owner",
        "params": {
          "_amount": "the desired amount"
        }
      }
    },
    "stateVariables": {
      "NEW_LEVEL_VALUE": {
        "details": "value to go to the next level"
      },
      "cost": {
        "details": "the NFT price"
      },
      "leaf": {
        "details": "the token ERC20 LEAF"
      },
      "maxSupplyLeaf": {
        "details": "max supply for token LEAF"
      },
      "maxSupplyNft": {
        "details": "max supply for 1st level NFTs"
      },
      "nft": {
        "details": "the token ERC721 LNFT"
      },
      "paused": {
        "details": "to pause the dapp"
      },
      "players": {
        "details": "return player from his address"
      },
      "test": {
        "details": "if can do test without time restriction"
      },
      "whitelisted": {
        "details": "returns player validity from his address"
      }
    },
    "version": 1
  },
  "userdoc": {
    "kind": "user",
    "methods": {},
    "version": 1
  }
}