{
  "contractName": "LeafNft",
  "abi": [
    {
      "inputs": [
        {
          "internalType": "string",
          "name": "_name",
          "type": "string"
        },
        {
          "internalType": "string",
          "name": "_symbol",
          "type": "string"
        },
        {
          "internalType": "string",
          "name": "_initBaseURI",
          "type": "string"
        }
      ],
      "stateMutability": "nonpayable",
      "type": "constructor"
    },
    {
      "anonymous": false,
      "inputs": [
        {
          "indexed": true,
          "internalType": "address",
          "name": "owner",
          "type": "address"
        },
        {
          "indexed": true,
          "internalType": "address",
          "name": "approved",
          "type": "address"
        },
        {
          "indexed": true,
          "internalType": "uint256",
          "name": "tokenId",
          "type": "uint256"
        }
      ],
      "name": "Approval",
      "type": "event"
    },
    {
      "anonymous": false,
      "inputs": [
        {
          "indexed": true,
          "internalType": "address",
          "name": "owner",
          "type": "address"
        },
        {
          "indexed": true,
          "internalType": "address",
          "name": "operator",
          "type": "address"
        },
        {
          "indexed": false,
          "internalType": "bool",
          "name": "approved",
          "type": "bool"
        }
      ],
      "name": "ApprovalForAll",
      "type": "event"
    },
    {
      "anonymous": false,
      "inputs": [
        {
          "indexed": true,
          "internalType": "address",
          "name": "previousOwner",
          "type": "address"
        },
        {
          "indexed": true,
          "internalType": "address",
          "name": "newOwner",
          "type": "address"
        }
      ],
      "name": "OwnershipTransferred",
      "type": "event"
    },
    {
      "anonymous": false,
      "inputs": [
        {
          "indexed": true,
          "internalType": "address",
          "name": "from",
          "type": "address"
        },
        {
          "indexed": true,
          "internalType": "address",
          "name": "to",
          "type": "address"
        },
        {
          "indexed": true,
          "internalType": "uint256",
          "name": "tokenId",
          "type": "uint256"
        }
      ],
      "name": "Transfer",
      "type": "event"
    },
    {
      "inputs": [
        {
          "internalType": "address",
          "name": "to",
          "type": "address"
        },
        {
          "internalType": "uint256",
          "name": "tokenId",
          "type": "uint256"
        }
      ],
      "name": "approve",
      "outputs": [],
      "stateMutability": "nonpayable",
      "type": "function"
    },
    {
      "inputs": [
        {
          "internalType": "address",
          "name": "owner",
          "type": "address"
        }
      ],
      "name": "balanceOf",
      "outputs": [
        {
          "internalType": "uint256",
          "name": "",
          "type": "uint256"
        }
      ],
      "stateMutability": "view",
      "type": "function",
      "constant": true
    },
    {
      "inputs": [
        {
          "internalType": "uint256",
          "name": "tokenId",
          "type": "uint256"
        }
      ],
      "name": "getApproved",
      "outputs": [
        {
          "internalType": "address",
          "name": "",
          "type": "address"
        }
      ],
      "stateMutability": "view",
      "type": "function",
      "constant": true
    },
    {
      "inputs": [
        {
          "internalType": "address",
          "name": "owner",
          "type": "address"
        },
        {
          "internalType": "address",
          "name": "operator",
          "type": "address"
        }
      ],
      "name": "isApprovedForAll",
      "outputs": [
        {
          "internalType": "bool",
          "name": "",
          "type": "bool"
        }
      ],
      "stateMutability": "view",
      "type": "function",
      "constant": true
    },
    {
      "inputs": [],
      "name": "name",
      "outputs": [
        {
          "internalType": "string",
          "name": "",
          "type": "string"
        }
      ],
      "stateMutability": "view",
      "type": "function",
      "constant": true
    },
    {
      "inputs": [],
      "name": "owner",
      "outputs": [
        {
          "internalType": "address",
          "name": "",
          "type": "address"
        }
      ],
      "stateMutability": "view",
      "type": "function",
      "constant": true
    },
    {
      "inputs": [
        {
          "internalType": "uint256",
          "name": "tokenId",
          "type": "uint256"
        }
      ],
      "name": "ownerOf",
      "outputs": [
        {
          "internalType": "address",
          "name": "",
          "type": "address"
        }
      ],
      "stateMutability": "view",
      "type": "function",
      "constant": true
    },
    {
      "inputs": [],
      "name": "renounceOwnership",
      "outputs": [],
      "stateMutability": "nonpayable",
      "type": "function"
    },
    {
      "inputs": [
        {
          "internalType": "address",
          "name": "from",
          "type": "address"
        },
        {
          "internalType": "address",
          "name": "to",
          "type": "address"
        },
        {
          "internalType": "uint256",
          "name": "tokenId",
          "type": "uint256"
        }
      ],
      "name": "safeTransferFrom",
      "outputs": [],
      "stateMutability": "nonpayable",
      "type": "function"
    },
    {
      "inputs": [
        {
          "internalType": "address",
          "name": "from",
          "type": "address"
        },
        {
          "internalType": "address",
          "name": "to",
          "type": "address"
        },
        {
          "internalType": "uint256",
          "name": "tokenId",
          "type": "uint256"
        },
        {
          "internalType": "bytes",
          "name": "_data",
          "type": "bytes"
        }
      ],
      "name": "safeTransferFrom",
      "outputs": [],
      "stateMutability": "nonpayable",
      "type": "function"
    },
    {
      "inputs": [
        {
          "internalType": "address",
          "name": "operator",
          "type": "address"
        },
        {
          "internalType": "bool",
          "name": "approved",
          "type": "bool"
        }
      ],
      "name": "setApprovalForAll",
      "outputs": [],
      "stateMutability": "nonpayable",
      "type": "function"
    },
    {
      "inputs": [
        {
          "internalType": "bytes4",
          "name": "interfaceId",
          "type": "bytes4"
        }
      ],
      "name": "supportsInterface",
      "outputs": [
        {
          "internalType": "bool",
          "name": "",
          "type": "bool"
        }
      ],
      "stateMutability": "view",
      "type": "function",
      "constant": true
    },
    {
      "inputs": [],
      "name": "symbol",
      "outputs": [
        {
          "internalType": "string",
          "name": "",
          "type": "string"
        }
      ],
      "stateMutability": "view",
      "type": "function",
      "constant": true
    },
    {
      "inputs": [
        {
          "internalType": "uint256",
          "name": "index",
          "type": "uint256"
        }
      ],
      "name": "tokenByIndex",
      "outputs": [
        {
          "internalType": "uint256",
          "name": "",
          "type": "uint256"
        }
      ],
      "stateMutability": "view",
      "type": "function",
      "constant": true
    },
    {
      "inputs": [
        {
          "internalType": "address",
          "name": "owner",
          "type": "address"
        },
        {
          "internalType": "uint256",
          "name": "index",
          "type": "uint256"
        }
      ],
      "name": "tokenOfOwnerByIndex",
      "outputs": [
        {
          "internalType": "uint256",
          "name": "",
          "type": "uint256"
        }
      ],
      "stateMutability": "view",
      "type": "function",
      "constant": true
    },
    {
      "inputs": [
        {
          "internalType": "uint256",
          "name": "tokenId",
          "type": "uint256"
        }
      ],
      "name": "tokenURI",
      "outputs": [
        {
          "internalType": "string",
          "name": "",
          "type": "string"
        }
      ],
      "stateMutability": "view",
      "type": "function",
      "constant": true
    },
    {
      "inputs": [],
      "name": "totalSupply",
      "outputs": [
        {
          "internalType": "uint256",
          "name": "",
          "type": "uint256"
        }
      ],
      "stateMutability": "view",
      "type": "function",
      "constant": true
    },
    {
      "inputs": [
        {
          "internalType": "address",
          "name": "from",
          "type": "address"
        },
        {
          "internalType": "address",
          "name": "to",
          "type": "address"
        },
        {
          "internalType": "uint256",
          "name": "tokenId",
          "type": "uint256"
        }
      ],
      "name": "transferFrom",
      "outputs": [],
      "stateMutability": "nonpayable",
      "type": "function"
    },
    {
      "inputs": [
        {
          "internalType": "address",
          "name": "newOwner",
          "type": "address"
        }
      ],
      "name": "transferOwnership",
      "outputs": [],
      "stateMutability": "nonpayable",
      "type": "function"
    },
    {
      "inputs": [
        {
          "internalType": "address",
          "name": "_to",
          "type": "address"
        }
      ],
      "name": "firstMint",
      "outputs": [
        {
          "internalType": "string",
          "name": "",
          "type": "string"
        }
      ],
      "stateMutability": "nonpayable",
      "type": "function"
    },
    {
      "inputs": [
        {
          "internalType": "address",
          "name": "_to",
          "type": "address"
        },
        {
          "internalType": "uint256",
          "name": "_level",
          "type": "uint256"
        }
      ],
      "name": "nextMint",
      "outputs": [
        {
          "internalType": "string",
          "name": "",
          "type": "string"
        }
      ],
      "stateMutability": "nonpayable",
      "type": "function"
    },
    {
      "inputs": [
        {
          "internalType": "uint256",
          "name": "_nbNft",
          "type": "uint256"
        }
      ],
      "name": "mintOwner",
      "outputs": [],
      "stateMutability": "nonpayable",
      "type": "function"
    },
    {
      "inputs": [
        {
          "internalType": "address",
          "name": "_address",
          "type": "address"
        }
      ],
      "name": "getIdsNftByAddress",
      "outputs": [
        {
          "internalType": "uint256[]",
          "name": "",
          "type": "uint256[]"
        }
      ],
      "stateMutability": "view",
      "type": "function",
      "constant": true
    },
    {
      "inputs": [
        {
          "internalType": "string",
          "name": "_newBaseURI",
          "type": "string"
        }
      ],
      "name": "setBaseURI",
      "outputs": [],
      "stateMutability": "nonpayable",
      "type": "function"
    },
    {
      "inputs": [
        {
          "internalType": "string",
          "name": "_newBaseExtension",
          "type": "string"
        }
      ],
      "name": "setBaseExtension",
      "outputs": [],
      "stateMutability": "nonpayable",
      "type": "function"
    },
    {
      "inputs": [],
      "name": "getSupply",
      "outputs": [
        {
          "internalType": "uint256",
          "name": "",
          "type": "uint256"
        }
      ],
      "stateMutability": "view",
      "type": "function",
      "constant": true
    }
  ],
  "bytecode": "0x60806040526040518060400160405280600581526020017f2e6a736f6e000000000000000000000000000000000000000000000000000000815250600c90805190602001906200005192919062000e4e565b503480156200005f57600080fd5b50604051620058873803806200588783398181016040528101906200008591906200109b565b828281600090805190602001906200009f92919062000e4e565b508060019080519060200190620000b892919062000e4e565b505050620000db620000cf6200010760201b60201c565b6200010f60201b60201c565b620000ec81620001d560201b60201c565b620000fe60016200028060201b60201c565b50505062001763565b600033905090565b6000600a60009054906101000a900473ffffffffffffffffffffffffffffffffffffffff16905081600a60006101000a81548173ffffffffffffffffffffffffffffffffffffffff021916908373ffffffffffffffffffffffffffffffffffffffff1602179055508173ffffffffffffffffffffffffffffffffffffffff168173ffffffffffffffffffffffffffffffffffffffff167f8be0079c531659141344cd1fd0a4f28419497f9722a3daafe3b4186f6b6457e060405160405180910390a35050565b620001e56200010760201b60201c565b73ffffffffffffffffffffffffffffffffffffffff166200020b6200044c60201b60201c565b73ffffffffffffffffffffffffffffffffffffffff161462000264576040517f08c379a00000000000000000000000000000000000000000000000000000000081526004016200025b90620011b5565b60405180910390fd5b80600b90805190602001906200027c92919062000e4e565b5050565b620002906200010760201b60201c565b73ffffffffffffffffffffffffffffffffffffffff16620002b66200044c60201b60201c565b73ffffffffffffffffffffffffffffffffffffffff16146200030f576040517f08c379a00000000000000000000000000000000000000000000000000000000081526004016200030690620011b5565b60405180910390fd5b600081116200031d57600080fd5b6000600190505b8181116200037057600d6000815480929190620003419062001210565b91905055506200035a33600d546200047660201b60201c565b8080620003679062001210565b91505062000324565b50600061271190505b816127106200038991906200125e565b8111620003b857620003a233826200047660201b60201c565b8080620003af9062001210565b91505062000379565b506000614e2190505b81614e20620003d191906200125e565b81116200040057620003ea33826200047660201b60201c565b8080620003f79062001210565b915050620003c1565b50600061753190505b816175306200041991906200125e565b811162000448576200043233826200047660201b60201c565b80806200043f9062001210565b91505062000409565b5050565b6000600a60009054906101000a900473ffffffffffffffffffffffffffffffffffffffff16905090565b620004988282604051806020016040528060008152506200049c60201b60201c565b5050565b620004ae83836200050a60201b60201c565b620004c36000848484620006f060201b60201c565b62000505576040517f08c379a0000000000000000000000000000000000000000000000000000000008152600401620004fc9062001331565b60405180910390fd5b505050565b600073ffffffffffffffffffffffffffffffffffffffff168273ffffffffffffffffffffffffffffffffffffffff1614156200057d576040517f08c379a00000000000000000000000000000000000000000000000000000000081526004016200057490620013a3565b60405180910390fd5b6200058e816200089a60201b60201c565b15620005d1576040517f08c379a0000000000000000000000000000000000000000000000000000000008152600401620005c89062001415565b60405180910390fd5b620005e5600083836200090660201b60201c565b6001600360008473ffffffffffffffffffffffffffffffffffffffff1673ffffffffffffffffffffffffffffffffffffffff16815260200190815260200160002060008282546200063791906200125e565b92505081905550816002600083815260200190815260200160002060006101000a81548173ffffffffffffffffffffffffffffffffffffffff021916908373ffffffffffffffffffffffffffffffffffffffff160217905550808273ffffffffffffffffffffffffffffffffffffffff16600073ffffffffffffffffffffffffffffffffffffffff167fddf252ad1be2c89b69c2b068fc378daa952ba7f163c4a11628f55a4df523b3ef60405160405180910390a45050565b60006200071e8473ffffffffffffffffffffffffffffffffffffffff1662000a4d60201b620016da1760201c565b156200088d578373ffffffffffffffffffffffffffffffffffffffff1663150b7a02620007506200010760201b60201c565b8786866040518563ffffffff1660e01b8152600401620007749493929190620014ea565b6020604051808303816000875af1925050508015620007b357506040513d601f19601f82011682018060405250810190620007b091906200159b565b60015b6200083c573d8060008114620007e6576040519150601f19603f3d011682016040523d82523d6000602084013e620007eb565b606091505b5060008151141562000834576040517f08c379a00000000000000000000000000000000000000000000000000000000081526004016200082b9062001331565b60405180910390fd5b805181602001fd5b63150b7a0260e01b7bffffffffffffffffffffffffffffffffffffffffffffffffffffffff1916817bffffffffffffffffffffffffffffffffffffffffffffffffffffffff19161491505062000892565b600190505b949350505050565b60008073ffffffffffffffffffffffffffffffffffffffff166002600084815260200190815260200160002060009054906101000a900473ffffffffffffffffffffffffffffffffffffffff1673ffffffffffffffffffffffffffffffffffffffff1614159050919050565b6200091e83838362000a6060201b620016ed1760201c565b600073ffffffffffffffffffffffffffffffffffffffff168373ffffffffffffffffffffffffffffffffffffffff1614156200096b57620009658162000a6560201b60201c565b620009b3565b8173ffffffffffffffffffffffffffffffffffffffff168373ffffffffffffffffffffffffffffffffffffffff1614620009b257620009b1838262000aae60201b60201c565b5b5b600073ffffffffffffffffffffffffffffffffffffffff168273ffffffffffffffffffffffffffffffffffffffff16141562000a0057620009fa8162000c2b60201b60201c565b62000a48565b8273ffffffffffffffffffffffffffffffffffffffff168273ffffffffffffffffffffffffffffffffffffffff161462000a475762000a46828262000d0760201b60201c565b5b5b505050565b600080823b905060008111915050919050565b505050565b6008805490506009600083815260200190815260200160002081905550600881908060018154018082558091505060019003906000526020600020016000909190919091505550565b6000600162000ac88462000d9360201b6200101d1760201c565b62000ad49190620015cd565b905060006007600084815260200190815260200160002054905081811462000bba576000600660008673ffffffffffffffffffffffffffffffffffffffff1673ffffffffffffffffffffffffffffffffffffffff168152602001908152602001600020600084815260200190815260200160002054905080600660008773ffffffffffffffffffffffffffffffffffffffff1673ffffffffffffffffffffffffffffffffffffffff168152602001908152602001600020600084815260200190815260200160002081905550816007600083815260200190815260200160002081905550505b6007600084815260200190815260200160002060009055600660008573ffffffffffffffffffffffffffffffffffffffff1673ffffffffffffffffffffffffffffffffffffffff16815260200190815260200160002060008381526020019081526020016000206000905550505050565b6000600160088054905062000c419190620015cd565b905060006009600084815260200190815260200160002054905060006008838154811062000c745762000c7362001608565b5b90600052602060002001549050806008838154811062000c995762000c9862001608565b5b90600052602060002001819055508160096000838152602001908152602001600020819055506009600085815260200190815260200160002060009055600880548062000ceb5762000cea62001637565b5b6001900381819060005260206000200160009055905550505050565b600062000d1f8362000d9360201b6200101d1760201c565b905081600660008573ffffffffffffffffffffffffffffffffffffffff1673ffffffffffffffffffffffffffffffffffffffff168152602001908152602001600020600083815260200190815260200160002081905550806007600084815260200190815260200160002081905550505050565b60008073ffffffffffffffffffffffffffffffffffffffff168273ffffffffffffffffffffffffffffffffffffffff16141562000e07576040517f08c379a000000000000000000000000000000000000000000000000000000000815260040162000dfe90620016dc565b60405180910390fd5b600360008373ffffffffffffffffffffffffffffffffffffffff1673ffffffffffffffffffffffffffffffffffffffff168152602001908152602001600020549050919050565b82805462000e5c906200172d565b90600052602060002090601f01602090048101928262000e80576000855562000ecc565b82601f1062000e9b57805160ff191683800117855562000ecc565b8280016001018555821562000ecc579182015b8281111562000ecb57825182559160200191906001019062000eae565b5b50905062000edb919062000edf565b5090565b5b8082111562000efa57600081600090555060010162000ee0565b5090565b6000604051905090565b600080fd5b600080fd5b600080fd5b600080fd5b6000601f19601f8301169050919050565b7f4e487b7100000000000000000000000000000000000000000000000000000000600052604160045260246000fd5b62000f678262000f1c565b810181811067ffffffffffffffff8211171562000f895762000f8862000f2d565b5b80604052505050565b600062000f9e62000efe565b905062000fac828262000f5c565b919050565b600067ffffffffffffffff82111562000fcf5762000fce62000f2d565b5b62000fda8262000f1c565b9050602081019050919050565b60005b838110156200100757808201518184015260208101905062000fea565b8381111562001017576000848401525b50505050565b6000620010346200102e8462000fb1565b62000f92565b90508281526020810184848401111562001053576200105262000f17565b5b6200106084828562000fe7565b509392505050565b600082601f83011262001080576200107f62000f12565b5b8151620010928482602086016200101d565b91505092915050565b600080600060608486031215620010b757620010b662000f08565b5b600084015167ffffffffffffffff811115620010d857620010d762000f0d565b5b620010e68682870162001068565b935050602084015167ffffffffffffffff8111156200110a576200110962000f0d565b5b620011188682870162001068565b925050604084015167ffffffffffffffff8111156200113c576200113b62000f0d565b5b6200114a8682870162001068565b9150509250925092565b600082825260208201905092915050565b7f4f776e61626c653a2063616c6c6572206973206e6f7420746865206f776e6572600082015250565b60006200119d60208362001154565b9150620011aa8262001165565b602082019050919050565b60006020820190508181036000830152620011d0816200118e565b9050919050565b7f4e487b7100000000000000000000000000000000000000000000000000000000600052601160045260246000fd5b6000819050919050565b60006200121d8262001206565b91507fffffffffffffffffffffffffffffffffffffffffffffffffffffffffffffffff821415620012535762001252620011d7565b5b600182019050919050565b60006200126b8262001206565b9150620012788362001206565b9250827fffffffffffffffffffffffffffffffffffffffffffffffffffffffffffffffff03821115620012b057620012af620011d7565b5b828201905092915050565b7f4552433732313a207472616e7366657220746f206e6f6e20455243373231526560008201527f63656976657220696d706c656d656e7465720000000000000000000000000000602082015250565b60006200131960328362001154565b91506200132682620012bb565b604082019050919050565b600060208201905081810360008301526200134c816200130a565b9050919050565b7f4552433732313a206d696e7420746f20746865207a65726f2061646472657373600082015250565b60006200138b60208362001154565b9150620013988262001353565b602082019050919050565b60006020820190508181036000830152620013be816200137c565b9050919050565b7f4552433732313a20746f6b656e20616c7265616479206d696e74656400000000600082015250565b6000620013fd601c8362001154565b91506200140a82620013c5565b602082019050919050565b600060208201905081810360008301526200143081620013ee565b9050919050565b600073ffffffffffffffffffffffffffffffffffffffff82169050919050565b6000620014648262001437565b9050919050565b620014768162001457565b82525050565b620014878162001206565b82525050565b600081519050919050565b600082825260208201905092915050565b6000620014b6826200148d565b620014c2818562001498565b9350620014d481856020860162000fe7565b620014df8162000f1c565b840191505092915050565b60006080820190506200150160008301876200146b565b6200151060208301866200146b565b6200151f60408301856200147c565b8181036060830152620015338184620014a9565b905095945050505050565b60007fffffffff0000000000000000000000000000000000000000000000000000000082169050919050565b62001575816200153e565b81146200158157600080fd5b50565b60008151905062001595816200156a565b92915050565b600060208284031215620015b457620015b362000f08565b5b6000620015c48482850162001584565b91505092915050565b6000620015da8262001206565b9150620015e78362001206565b925082821015620015fd57620015fc620011d7565b5b828203905092915050565b7f4e487b7100000000000000000000000000000000000000000000000000000000600052603260045260246000fd5b7f4e487b7100000000000000000000000000000000000000000000000000000000600052603160045260246000fd5b7f4552433732313a2062616c616e636520717565727920666f7220746865207a6560008201527f726f206164647265737300000000000000000000000000000000000000000000602082015250565b6000620016c4602a8362001154565b9150620016d18262001666565b604082019050919050565b60006020820190508181036000830152620016f781620016b5565b9050919050565b7f4e487b7100000000000000000000000000000000000000000000000000000000600052602260045260246000fd5b600060028204905060018216806200174657607f821691505b602082108114156200175d576200175c620016fe565b5b50919050565b61411480620017736000396000f3fe608060405234801561001057600080fd5b50600436106101ae5760003560e01c80636352211e116100ee5780639aa7d2c011610097578063c87b56dd11610071578063c87b56dd146104c7578063da3ef23f146104f7578063e985e9c514610513578063f2fde38b14610543576101ae565b80639aa7d2c01461045f578063a22cb4651461048f578063b88d4fde146104ab576101ae565b8063715018a6116100c8578063715018a6146104195780638da5cb5b1461042357806395d89b4114610441576101ae565b80636352211e1461039b5780636c9c2faf146103cb57806370a08231146103e9576101ae565b806323b872dd1161015b5780633fcf8233116101355780633fcf82331461030357806342842e0e146103335780634f6ccce71461034f57806355f804b31461037f576101ae565b806323b872dd1461029b5780632f745c59146102b757806333f88d22146102e7576101ae565b8063081812fc1161018c578063081812fc14610231578063095ea7b31461026157806318160ddd1461027d576101ae565b806301ffc9a7146101b357806305afb3a4146101e357806306fdde0314610213575b600080fd5b6101cd60048036038101906101c89190612a93565b61055f565b6040516101da9190612adb565b60405180910390f35b6101fd60048036038101906101f89190612b54565b6105d9565b60405161020a9190612c1a565b60405180910390f35b61021b6107ea565b6040516102289190612c1a565b60405180910390f35b61024b60048036038101906102469190612c72565b61087c565b6040516102589190612cae565b60405180910390f35b61027b60048036038101906102769190612cc9565b610901565b005b610285610a19565b6040516102929190612d18565b60405180910390f35b6102b560048036038101906102b09190612d33565b610a26565b005b6102d160048036038101906102cc9190612cc9565b610a86565b6040516102de9190612d18565b60405180910390f35b61030160048036038101906102fc9190612c72565b610b2b565b005b61031d60048036038101906103189190612b54565b610cab565b60405161032a9190612e44565b60405180910390f35b61034d60048036038101906103489190612d33565b610dbe565b005b61036960048036038101906103649190612c72565b610dde565b6040516103769190612d18565b60405180910390f35b61039960048036038101906103949190612f9b565b610e4f565b005b6103b560048036038101906103b09190612c72565b610ee5565b6040516103c29190612cae565b60405180910390f35b6103d3610f97565b6040516103e09190612d18565b60405180910390f35b61040360048036038101906103fe9190612b54565b61101d565b6040516104109190612d18565b60405180910390f35b6104216110d5565b005b61042b61115d565b6040516104389190612cae565b60405180910390f35b610449611187565b6040516104569190612c1a565b60405180910390f35b61047960048036038101906104749190612cc9565b611219565b6040516104869190612c1a565b60405180910390f35b6104a960048036038101906104a49190613010565b611399565b005b6104c560048036038101906104c091906130f1565b6113af565b005b6104e160048036038101906104dc9190612c72565b611411565b6040516104ee9190612c1a565b60405180910390f35b610511600480360381019061050c9190612f9b565b6114b8565b005b61052d60048036038101906105289190613174565b61154e565b60405161053a9190612adb565b60405180910390f35b61055d60048036038101906105589190612b54565b6115e2565b005b60007f780e9d63000000000000000000000000000000000000000000000000000000007bffffffffffffffffffffffffffffffffffffffffffffffffffffffff1916827bffffffffffffffffffffffffffffffffffffffffffffffffffffffff191614806105d257506105d1826116f2565b5b9050919050565b60606105e36117d4565b73ffffffffffffffffffffffffffffffffffffffff1661060161115d565b73ffffffffffffffffffffffffffffffffffffffff1614610657576040517f08c379a000000000000000000000000000000000000000000000000000000000815260040161064e90613200565b60405180910390fd5b600073ffffffffffffffffffffffffffffffffffffffff168273ffffffffffffffffffffffffffffffffffffffff1614156106c7576040517f08c379a00000000000000000000000000000000000000000000000000000000081526004016106be90613292565b60405180910390fd5b6000600e60008473ffffffffffffffffffffffffffffffffffffffff1673ffffffffffffffffffffffffffffffffffffffff168152602001908152602001600020805490501461074c576040517f08c379a000000000000000000000000000000000000000000000000000000000815260040161074390613324565b60405180910390fd5b600d600081548092919061075f90613373565b919050555061077082600d546117dc565b600e60008373ffffffffffffffffffffffffffffffffffffffff1673ffffffffffffffffffffffffffffffffffffffff168152602001908152602001600020600d5490806001815401808255809150506001900390600052602060002001600090919091909150556107e3600d546117fa565b9050919050565b6060600080546107f9906133eb565b80601f0160208091040260200160405190810160405280929190818152602001828054610825906133eb565b80156108725780601f1061084757610100808354040283529160200191610872565b820191906000526020600020905b81548152906001019060200180831161085557829003601f168201915b5050505050905090565b60006108878261186e565b6108c6576040517f08c379a00000000000000000000000000000000000000000000000000000000081526004016108bd9061348f565b60405180910390fd5b6004600083815260200190815260200160002060009054906101000a900473ffffffffffffffffffffffffffffffffffffffff169050919050565b600061090c82610ee5565b90508073ffffffffffffffffffffffffffffffffffffffff168373ffffffffffffffffffffffffffffffffffffffff16141561097d576040517f08c379a000000000000000000000000000000000000000000000000000000000815260040161097490613521565b60405180910390fd5b8073ffffffffffffffffffffffffffffffffffffffff1661099c6117d4565b73ffffffffffffffffffffffffffffffffffffffff1614806109cb57506109ca816109c56117d4565b61154e565b5b610a0a576040517f08c379a0000000000000000000000000000000000000000000000000000000008152600401610a01906135b3565b60405180910390fd5b610a1483836118da565b505050565b6000600880549050905090565b610a37610a316117d4565b82611993565b610a76576040517f08c379a0000000000000000000000000000000000000000000000000000000008152600401610a6d90613645565b60405180910390fd5b610a81838383611a71565b505050565b6000610a918361101d565b8210610ad2576040517f08c379a0000000000000000000000000000000000000000000000000000000008152600401610ac9906136d7565b60405180910390fd5b600660008473ffffffffffffffffffffffffffffffffffffffff1673ffffffffffffffffffffffffffffffffffffffff168152602001908152602001600020600083815260200190815260200160002054905092915050565b610b336117d4565b73ffffffffffffffffffffffffffffffffffffffff16610b5161115d565b73ffffffffffffffffffffffffffffffffffffffff1614610ba7576040517f08c379a0000000000000000000000000000000000000000000000000000000008152600401610b9e90613200565b60405180910390fd5b60008111610bb457600080fd5b6000600190505b818111610bf957600d6000815480929190610bd590613373565b9190505550610be633600d546117dc565b8080610bf190613373565b915050610bbb565b50600061271190505b81612710610c1091906136f7565b8111610c3357610c2033826117dc565b8080610c2b90613373565b915050610c02565b506000614e2190505b81614e20610c4a91906136f7565b8111610c6d57610c5a33826117dc565b8080610c6590613373565b915050610c3c565b50600061753190505b81617530610c8491906136f7565b8111610ca757610c9433826117dc565b8080610c9f90613373565b915050610c76565b5050565b6060610cb56117d4565b73ffffffffffffffffffffffffffffffffffffffff16610cd361115d565b73ffffffffffffffffffffffffffffffffffffffff1614610d29576040517f08c379a0000000000000000000000000000000000000000000000000000000008152600401610d2090613200565b60405180910390fd5b600e60008373ffffffffffffffffffffffffffffffffffffffff1673ffffffffffffffffffffffffffffffffffffffff168152602001908152602001600020805480602002602001604051908101604052809291908181526020018280548015610db257602002820191906000526020600020905b815481526020019060010190808311610d9e575b50505050509050919050565b610dd9838383604051806020016040528060008152506113af565b505050565b6000610de8610a19565b8210610e29576040517f08c379a0000000000000000000000000000000000000000000000000000000008152600401610e20906137bf565b60405180910390fd5b60088281548110610e3d57610e3c6137df565b5b90600052602060002001549050919050565b610e576117d4565b73ffffffffffffffffffffffffffffffffffffffff16610e7561115d565b73ffffffffffffffffffffffffffffffffffffffff1614610ecb576040517f08c379a0000000000000000000000000000000000000000000000000000000008152600401610ec290613200565b60405180910390fd5b80600b9080519060200190610ee1929190612984565b5050565b6000806002600084815260200190815260200160002060009054906101000a900473ffffffffffffffffffffffffffffffffffffffff169050600073ffffffffffffffffffffffffffffffffffffffff168173ffffffffffffffffffffffffffffffffffffffff161415610f8e576040517f08c379a0000000000000000000000000000000000000000000000000000000008152600401610f8590613880565b60405180910390fd5b80915050919050565b6000610fa16117d4565b73ffffffffffffffffffffffffffffffffffffffff16610fbf61115d565b73ffffffffffffffffffffffffffffffffffffffff1614611015576040517f08c379a000000000000000000000000000000000000000000000000000000000815260040161100c90613200565b60405180910390fd5b600d54905090565b60008073ffffffffffffffffffffffffffffffffffffffff168273ffffffffffffffffffffffffffffffffffffffff16141561108e576040517f08c379a000000000000000000000000000000000000000000000000000000000815260040161108590613912565b60405180910390fd5b600360008373ffffffffffffffffffffffffffffffffffffffff1673ffffffffffffffffffffffffffffffffffffffff168152602001908152602001600020549050919050565b6110dd6117d4565b73ffffffffffffffffffffffffffffffffffffffff166110fb61115d565b73ffffffffffffffffffffffffffffffffffffffff1614611151576040517f08c379a000000000000000000000000000000000000000000000000000000000815260040161114890613200565b60405180910390fd5b61115b6000611ccd565b565b6000600a60009054906101000a900473ffffffffffffffffffffffffffffffffffffffff16905090565b606060018054611196906133eb565b80601f01602080910402602001604051908101604052809291908181526020018280546111c2906133eb565b801561120f5780601f106111e45761010080835404028352916020019161120f565b820191906000526020600020905b8154815290600101906020018083116111f257829003601f168201915b5050505050905090565b60606112236117d4565b73ffffffffffffffffffffffffffffffffffffffff1661124161115d565b73ffffffffffffffffffffffffffffffffffffffff1614611297576040517f08c379a000000000000000000000000000000000000000000000000000000000815260040161128e90613200565b60405180910390fd5b6000600e60008573ffffffffffffffffffffffffffffffffffffffff1673ffffffffffffffffffffffffffffffffffffffff1681526020019081526020016000206000815481106112eb576112ea6137df565b5b90600052602060002001549050600081141561130657600080fd5b6000838261131491906136f7565b905061132085826117dc565b600e60008673ffffffffffffffffffffffffffffffffffffffff1673ffffffffffffffffffffffffffffffffffffffff16815260200190815260200160002081908060018154018082558091505060019003906000526020600020016000909190919091505561138f816117fa565b9250505092915050565b6113ab6113a46117d4565b8383611d93565b5050565b6113c06113ba6117d4565b83611993565b6113ff576040517f08c379a00000000000000000000000000000000000000000000000000000000081526004016113f690613645565b60405180910390fd5b61140b84848484611f00565b50505050565b606061141c8261186e565b61145b576040517f08c379a0000000000000000000000000000000000000000000000000000000008152600401611452906139a4565b60405180910390fd5b6000611465611f5c565b9050600081511161148557604051806020016040528060008152506114b0565b8061148f84611fee565b6040516020016114a0929190613a00565b6040516020818303038152906040525b915050919050565b6114c06117d4565b73ffffffffffffffffffffffffffffffffffffffff166114de61115d565b73ffffffffffffffffffffffffffffffffffffffff1614611534576040517f08c379a000000000000000000000000000000000000000000000000000000000815260040161152b90613200565b60405180910390fd5b80600c908051906020019061154a929190612984565b5050565b6000600560008473ffffffffffffffffffffffffffffffffffffffff1673ffffffffffffffffffffffffffffffffffffffff16815260200190815260200160002060008373ffffffffffffffffffffffffffffffffffffffff1673ffffffffffffffffffffffffffffffffffffffff16815260200190815260200160002060009054906101000a900460ff16905092915050565b6115ea6117d4565b73ffffffffffffffffffffffffffffffffffffffff1661160861115d565b73ffffffffffffffffffffffffffffffffffffffff161461165e576040517f08c379a000000000000000000000000000000000000000000000000000000000815260040161165590613200565b60405180910390fd5b600073ffffffffffffffffffffffffffffffffffffffff168173ffffffffffffffffffffffffffffffffffffffff1614156116ce576040517f08c379a00000000000000000000000000000000000000000000000000000000081526004016116c590613a96565b60405180910390fd5b6116d781611ccd565b50565b600080823b905060008111915050919050565b505050565b60007f80ac58cd000000000000000000000000000000000000000000000000000000007bffffffffffffffffffffffffffffffffffffffffffffffffffffffff1916827bffffffffffffffffffffffffffffffffffffffffffffffffffffffff191614806117bd57507f5b5e139f000000000000000000000000000000000000000000000000000000007bffffffffffffffffffffffffffffffffffffffffffffffffffffffff1916827bffffffffffffffffffffffffffffffffffffffffffffffffffffffff1916145b806117cd57506117cc8261214f565b5b9050919050565b600033905090565b6117f68282604051806020016040528060008152506121b9565b5050565b60606118058261186e565b61180e57600080fd5b6000611818611f5c565b905060008151116118385760405180602001604052806000815250611866565b8061184284611fee565b600c60405160200161185693929190613b4a565b6040516020818303038152906040525b915050919050565b60008073ffffffffffffffffffffffffffffffffffffffff166002600084815260200190815260200160002060009054906101000a900473ffffffffffffffffffffffffffffffffffffffff1673ffffffffffffffffffffffffffffffffffffffff1614159050919050565b816004600083815260200190815260200160002060006101000a81548173ffffffffffffffffffffffffffffffffffffffff021916908373ffffffffffffffffffffffffffffffffffffffff160217905550808273ffffffffffffffffffffffffffffffffffffffff1661194d83610ee5565b73ffffffffffffffffffffffffffffffffffffffff167f8c5be1e5ebec7d5bd14f71427d1e84f3dd0314c0f7b2291e5b200ac8c7c3b92560405160405180910390a45050565b600061199e8261186e565b6119dd576040517f08c379a00000000000000000000000000000000000000000000000000000000081526004016119d490613bed565b60405180910390fd5b60006119e883610ee5565b90508073ffffffffffffffffffffffffffffffffffffffff168473ffffffffffffffffffffffffffffffffffffffff161480611a5757508373ffffffffffffffffffffffffffffffffffffffff16611a3f8461087c565b73ffffffffffffffffffffffffffffffffffffffff16145b80611a685750611a67818561154e565b5b91505092915050565b8273ffffffffffffffffffffffffffffffffffffffff16611a9182610ee5565b73ffffffffffffffffffffffffffffffffffffffff1614611ae7576040517f08c379a0000000000000000000000000000000000000000000000000000000008152600401611ade90613c7f565b60405180910390fd5b600073ffffffffffffffffffffffffffffffffffffffff168273ffffffffffffffffffffffffffffffffffffffff161415611b57576040517f08c379a0000000000000000000000000000000000000000000000000000000008152600401611b4e90613d11565b60405180910390fd5b611b62838383612214565b611b6d6000826118da565b6001600360008573ffffffffffffffffffffffffffffffffffffffff1673ffffffffffffffffffffffffffffffffffffffff1681526020019081526020016000206000828254611bbd9190613d31565b925050819055506001600360008473ffffffffffffffffffffffffffffffffffffffff1673ffffffffffffffffffffffffffffffffffffffff1681526020019081526020016000206000828254611c1491906136f7565b92505081905550816002600083815260200190815260200160002060006101000a81548173ffffffffffffffffffffffffffffffffffffffff021916908373ffffffffffffffffffffffffffffffffffffffff160217905550808273ffffffffffffffffffffffffffffffffffffffff168473ffffffffffffffffffffffffffffffffffffffff167fddf252ad1be2c89b69c2b068fc378daa952ba7f163c4a11628f55a4df523b3ef60405160405180910390a4505050565b6000600a60009054906101000a900473ffffffffffffffffffffffffffffffffffffffff16905081600a60006101000a81548173ffffffffffffffffffffffffffffffffffffffff021916908373ffffffffffffffffffffffffffffffffffffffff1602179055508173ffffffffffffffffffffffffffffffffffffffff168173ffffffffffffffffffffffffffffffffffffffff167f8be0079c531659141344cd1fd0a4f28419497f9722a3daafe3b4186f6b6457e060405160405180910390a35050565b8173ffffffffffffffffffffffffffffffffffffffff168373ffffffffffffffffffffffffffffffffffffffff161415611e02576040517f08c379a0000000000000000000000000000000000000000000000000000000008152600401611df990613db1565b60405180910390fd5b80600560008573ffffffffffffffffffffffffffffffffffffffff1673ffffffffffffffffffffffffffffffffffffffff16815260200190815260200160002060008473ffffffffffffffffffffffffffffffffffffffff1673ffffffffffffffffffffffffffffffffffffffff16815260200190815260200160002060006101000a81548160ff0219169083151502179055508173ffffffffffffffffffffffffffffffffffffffff168373ffffffffffffffffffffffffffffffffffffffff167f17307eab39ab6107e8899845ad3d59bd9653f200f220920489ca2b5937696c3183604051611ef39190612adb565b60405180910390a3505050565b611f0b848484611a71565b611f1784848484612328565b611f56576040517f08c379a0000000000000000000000000000000000000000000000000000000008152600401611f4d90613e43565b60405180910390fd5b50505050565b6060600b8054611f6b906133eb565b80601f0160208091040260200160405190810160405280929190818152602001828054611f97906133eb565b8015611fe45780601f10611fb957610100808354040283529160200191611fe4565b820191906000526020600020905b815481529060010190602001808311611fc757829003601f168201915b5050505050905090565b60606000821415612036576040518060400160405280600181526020017f3000000000000000000000000000000000000000000000000000000000000000815250905061214a565b600082905060005b6000821461206857808061205190613373565b915050600a826120619190613e92565b915061203e565b60008167ffffffffffffffff81111561208457612083612e70565b5b6040519080825280601f01601f1916602001820160405280156120b65781602001600182028036833780820191505090505b5090505b60008514612143576001826120cf9190613d31565b9150600a856120de9190613ec3565b60306120ea91906136f7565b60f81b818381518110612100576120ff6137df565b5b60200101907effffffffffffffffffffffffffffffffffffffffffffffffffffffffffffff1916908160001a905350600a8561213c9190613e92565b94506120ba565b8093505050505b919050565b60007f01ffc9a7000000000000000000000000000000000000000000000000000000007bffffffffffffffffffffffffffffffffffffffffffffffffffffffff1916827bffffffffffffffffffffffffffffffffffffffffffffffffffffffff1916149050919050565b6121c383836124b0565b6121d06000848484612328565b61220f576040517f08c379a000000000000000000000000000000000000000000000000000000000815260040161220690613e43565b60405180910390fd5b505050565b61221f8383836116ed565b600073ffffffffffffffffffffffffffffffffffffffff168373ffffffffffffffffffffffffffffffffffffffff1614156122625761225d8161267e565b6122a1565b8173ffffffffffffffffffffffffffffffffffffffff168373ffffffffffffffffffffffffffffffffffffffff16146122a05761229f83826126c7565b5b5b600073ffffffffffffffffffffffffffffffffffffffff168273ffffffffffffffffffffffffffffffffffffffff1614156122e4576122df81612834565b612323565b8273ffffffffffffffffffffffffffffffffffffffff168273ffffffffffffffffffffffffffffffffffffffff1614612322576123218282612905565b5b5b505050565b60006123498473ffffffffffffffffffffffffffffffffffffffff166116da565b156124a3578373ffffffffffffffffffffffffffffffffffffffff1663150b7a026123726117d4565b8786866040518563ffffffff1660e01b81526004016123949493929190613f49565b6020604051808303816000875af19250505080156123d057506040513d601f19601f820116820180604052508101906123cd9190613faa565b60015b612453573d8060008114612400576040519150601f19603f3d011682016040523d82523d6000602084013e612405565b606091505b5060008151141561244b576040517f08c379a000000000000000000000000000000000000000000000000000000000815260040161244290613e43565b60405180910390fd5b805181602001fd5b63150b7a0260e01b7bffffffffffffffffffffffffffffffffffffffffffffffffffffffff1916817bffffffffffffffffffffffffffffffffffffffffffffffffffffffff1916149150506124a8565b600190505b949350505050565b600073ffffffffffffffffffffffffffffffffffffffff168273ffffffffffffffffffffffffffffffffffffffff161415612520576040517f08c379a000000000000000000000000000000000000000000000000000000000815260040161251790614023565b60405180910390fd5b6125298161186e565b15612569576040517f08c379a00000000000000000000000000000000000000000000000000000000081526004016125609061408f565b60405180910390fd5b61257560008383612214565b6001600360008473ffffffffffffffffffffffffffffffffffffffff1673ffffffffffffffffffffffffffffffffffffffff16815260200190815260200160002060008282546125c591906136f7565b92505081905550816002600083815260200190815260200160002060006101000a81548173ffffffffffffffffffffffffffffffffffffffff021916908373ffffffffffffffffffffffffffffffffffffffff160217905550808273ffffffffffffffffffffffffffffffffffffffff16600073ffffffffffffffffffffffffffffffffffffffff167fddf252ad1be2c89b69c2b068fc378daa952ba7f163c4a11628f55a4df523b3ef60405160405180910390a45050565b6008805490506009600083815260200190815260200160002081905550600881908060018154018082558091505060019003906000526020600020016000909190919091505550565b600060016126d48461101d565b6126de9190613d31565b90506000600760008481526020019081526020016000205490508181146127c3576000600660008673ffffffffffffffffffffffffffffffffffffffff1673ffffffffffffffffffffffffffffffffffffffff168152602001908152602001600020600084815260200190815260200160002054905080600660008773ffffffffffffffffffffffffffffffffffffffff1673ffffffffffffffffffffffffffffffffffffffff168152602001908152602001600020600084815260200190815260200160002081905550816007600083815260200190815260200160002081905550505b6007600084815260200190815260200160002060009055600660008573ffffffffffffffffffffffffffffffffffffffff1673ffffffffffffffffffffffffffffffffffffffff16815260200190815260200160002060008381526020019081526020016000206000905550505050565b600060016008805490506128489190613d31565b9050600060096000848152602001908152602001600020549050600060088381548110612878576128776137df565b5b90600052602060002001549050806008838154811061289a576128996137df565b5b9060005260206000200181905550816009600083815260200190815260200160002081905550600960008581526020019081526020016000206000905560088054806128e9576128e86140af565b5b6001900381819060005260206000200160009055905550505050565b60006129108361101d565b905081600660008573ffffffffffffffffffffffffffffffffffffffff1673ffffffffffffffffffffffffffffffffffffffff168152602001908152602001600020600083815260200190815260200160002081905550806007600084815260200190815260200160002081905550505050565b828054612990906133eb565b90600052602060002090601f0160209004810192826129b257600085556129f9565b82601f106129cb57805160ff19168380011785556129f9565b828001600101855582156129f9579182015b828111156129f85782518255916020019190600101906129dd565b5b509050612a069190612a0a565b5090565b5b80821115612a23576000816000905550600101612a0b565b5090565b6000604051905090565b600080fd5b600080fd5b60007fffffffff0000000000000000000000000000000000000000000000000000000082169050919050565b612a7081612a3b565b8114612a7b57600080fd5b50565b600081359050612a8d81612a67565b92915050565b600060208284031215612aa957612aa8612a31565b5b6000612ab784828501612a7e565b91505092915050565b60008115159050919050565b612ad581612ac0565b82525050565b6000602082019050612af06000830184612acc565b92915050565b600073ffffffffffffffffffffffffffffffffffffffff82169050919050565b6000612b2182612af6565b9050919050565b612b3181612b16565b8114612b3c57600080fd5b50565b600081359050612b4e81612b28565b92915050565b600060208284031215612b6a57612b69612a31565b5b6000612b7884828501612b3f565b91505092915050565b600081519050919050565b600082825260208201905092915050565b60005b83811015612bbb578082015181840152602081019050612ba0565b83811115612bca576000848401525b50505050565b6000601f19601f8301169050919050565b6000612bec82612b81565b612bf68185612b8c565b9350612c06818560208601612b9d565b612c0f81612bd0565b840191505092915050565b60006020820190508181036000830152612c348184612be1565b905092915050565b6000819050919050565b612c4f81612c3c565b8114612c5a57600080fd5b50565b600081359050612c6c81612c46565b92915050565b600060208284031215612c8857612c87612a31565b5b6000612c9684828501612c5d565b91505092915050565b612ca881612b16565b82525050565b6000602082019050612cc36000830184612c9f565b92915050565b60008060408385031215612ce057612cdf612a31565b5b6000612cee85828601612b3f565b9250506020612cff85828601612c5d565b9150509250929050565b612d1281612c3c565b82525050565b6000602082019050612d2d6000830184612d09565b92915050565b600080600060608486031215612d4c57612d4b612a31565b5b6000612d5a86828701612b3f565b9350506020612d6b86828701612b3f565b9250506040612d7c86828701612c5d565b9150509250925092565b600081519050919050565b600082825260208201905092915050565b6000819050602082019050919050565b612dbb81612c3c565b82525050565b6000612dcd8383612db2565b60208301905092915050565b6000602082019050919050565b6000612df182612d86565b612dfb8185612d91565b9350612e0683612da2565b8060005b83811015612e37578151612e1e8882612dc1565b9750612e2983612dd9565b925050600181019050612e0a565b5085935050505092915050565b60006020820190508181036000830152612e5e8184612de6565b905092915050565b600080fd5b600080fd5b7f4e487b7100000000000000000000000000000000000000000000000000000000600052604160045260246000fd5b612ea882612bd0565b810181811067ffffffffffffffff82111715612ec757612ec6612e70565b5b80604052505050565b6000612eda612a27565b9050612ee68282612e9f565b919050565b600067ffffffffffffffff821115612f0657612f05612e70565b5b612f0f82612bd0565b9050602081019050919050565b82818337600083830152505050565b6000612f3e612f3984612eeb565b612ed0565b905082815260208101848484011115612f5a57612f59612e6b565b5b612f65848285612f1c565b509392505050565b600082601f830112612f8257612f81612e66565b5b8135612f92848260208601612f2b565b91505092915050565b600060208284031215612fb157612fb0612a31565b5b600082013567ffffffffffffffff811115612fcf57612fce612a36565b5b612fdb84828501612f6d565b91505092915050565b612fed81612ac0565b8114612ff857600080fd5b50565b60008135905061300a81612fe4565b92915050565b6000806040838503121561302757613026612a31565b5b600061303585828601612b3f565b925050602061304685828601612ffb565b9150509250929050565b600067ffffffffffffffff82111561306b5761306a612e70565b5b61307482612bd0565b9050602081019050919050565b600061309461308f84613050565b612ed0565b9050828152602081018484840111156130b0576130af612e6b565b5b6130bb848285612f1c565b509392505050565b600082601f8301126130d8576130d7612e66565b5b81356130e8848260208601613081565b91505092915050565b6000806000806080858703121561310b5761310a612a31565b5b600061311987828801612b3f565b945050602061312a87828801612b3f565b935050604061313b87828801612c5d565b925050606085013567ffffffffffffffff81111561315c5761315b612a36565b5b613168878288016130c3565b91505092959194509250565b6000806040838503121561318b5761318a612a31565b5b600061319985828601612b3f565b92505060206131aa85828601612b3f565b9150509250929050565b7f4f776e61626c653a2063616c6c6572206973206e6f7420746865206f776e6572600082015250565b60006131ea602083612b8c565b91506131f5826131b4565b602082019050919050565b60006020820190508181036000830152613219816131dd565b9050919050565b7f4c6561664e4654203a206d757374206e6f7420626520657175616c20746f206160008201527f6464726573732030000000000000000000000000000000000000000000000000602082015250565b600061327c602883612b8c565b915061328782613220565b604082019050919050565b600060208201905081810360008301526132ab8161326f565b9050919050565b7f4c6561664e4654203a2068617320616c726561647920646f6e6520666972737460008201527f206d696e74000000000000000000000000000000000000000000000000000000602082015250565b600061330e602583612b8c565b9150613319826132b2565b604082019050919050565b6000602082019050818103600083015261333d81613301565b9050919050565b7f4e487b7100000000000000000000000000000000000000000000000000000000600052601160045260246000fd5b600061337e82612c3c565b91507fffffffffffffffffffffffffffffffffffffffffffffffffffffffffffffffff8214156133b1576133b0613344565b5b600182019050919050565b7f4e487b7100000000000000000000000000000000000000000000000000000000600052602260045260246000fd5b6000600282049050600182168061340357607f821691505b60208210811415613417576134166133bc565b5b50919050565b7f4552433732313a20617070726f76656420717565727920666f72206e6f6e657860008201527f697374656e7420746f6b656e0000000000000000000000000000000000000000602082015250565b6000613479602c83612b8c565b91506134848261341d565b604082019050919050565b600060208201905081810360008301526134a88161346c565b9050919050565b7f4552433732313a20617070726f76616c20746f2063757272656e74206f776e6560008201527f7200000000000000000000000000000000000000000000000000000000000000602082015250565b600061350b602183612b8c565b9150613516826134af565b604082019050919050565b6000602082019050818103600083015261353a816134fe565b9050919050565b7f4552433732313a20617070726f76652063616c6c6572206973206e6f74206f7760008201527f6e6572206e6f7220617070726f76656420666f7220616c6c0000000000000000602082015250565b600061359d603883612b8c565b91506135a882613541565b604082019050919050565b600060208201905081810360008301526135cc81613590565b9050919050565b7f4552433732313a207472616e736665722063616c6c6572206973206e6f74206f60008201527f776e6572206e6f7220617070726f766564000000000000000000000000000000602082015250565b600061362f603183612b8c565b915061363a826135d3565b604082019050919050565b6000602082019050818103600083015261365e81613622565b9050919050565b7f455243373231456e756d657261626c653a206f776e657220696e646578206f7560008201527f74206f6620626f756e6473000000000000000000000000000000000000000000602082015250565b60006136c1602b83612b8c565b91506136cc82613665565b604082019050919050565b600060208201905081810360008301526136f0816136b4565b9050919050565b600061370282612c3c565b915061370d83612c3c565b9250827fffffffffffffffffffffffffffffffffffffffffffffffffffffffffffffffff0382111561374257613741613344565b5b828201905092915050565b7f455243373231456e756d657261626c653a20676c6f62616c20696e646578206f60008201527f7574206f6620626f756e64730000000000000000000000000000000000000000602082015250565b60006137a9602c83612b8c565b91506137b48261374d565b604082019050919050565b600060208201905081810360008301526137d88161379c565b9050919050565b7f4e487b7100000000000000000000000000000000000000000000000000000000600052603260045260246000fd5b7f4552433732313a206f776e657220717565727920666f72206e6f6e657869737460008201527f656e7420746f6b656e0000000000000000000000000000000000000000000000602082015250565b600061386a602983612b8c565b91506138758261380e565b604082019050919050565b600060208201905081810360008301526138998161385d565b9050919050565b7f4552433732313a2062616c616e636520717565727920666f7220746865207a6560008201527f726f206164647265737300000000000000000000000000000000000000000000602082015250565b60006138fc602a83612b8c565b9150613907826138a0565b604082019050919050565b6000602082019050818103600083015261392b816138ef565b9050919050565b7f4552433732314d657461646174613a2055524920717565727920666f72206e6f60008201527f6e6578697374656e7420746f6b656e0000000000000000000000000000000000602082015250565b600061398e602f83612b8c565b915061399982613932565b604082019050919050565b600060208201905081810360008301526139bd81613981565b9050919050565b600081905092915050565b60006139da82612b81565b6139e481856139c4565b93506139f4818560208601612b9d565b80840191505092915050565b6000613a0c82856139cf565b9150613a1882846139cf565b91508190509392505050565b7f4f776e61626c653a206e6577206f776e657220697320746865207a65726f206160008201527f6464726573730000000000000000000000000000000000000000000000000000602082015250565b6000613a80602683612b8c565b9150613a8b82613a24565b604082019050919050565b60006020820190508181036000830152613aaf81613a73565b9050919050565b60008190508160005260206000209050919050565b60008154613ad8816133eb565b613ae281866139c4565b94506001821660008114613afd5760018114613b0e57613b41565b60ff19831686528186019350613b41565b613b1785613ab6565b60005b83811015613b3957815481890152600182019150602081019050613b1a565b838801955050505b50505092915050565b6000613b5682866139cf565b9150613b6282856139cf565b9150613b6e8284613acb565b9150819050949350505050565b7f4552433732313a206f70657261746f7220717565727920666f72206e6f6e657860008201527f697374656e7420746f6b656e0000000000000000000000000000000000000000602082015250565b6000613bd7602c83612b8c565b9150613be282613b7b565b604082019050919050565b60006020820190508181036000830152613c0681613bca565b9050919050565b7f4552433732313a207472616e73666572206f6620746f6b656e2074686174206960008201527f73206e6f74206f776e0000000000000000000000000000000000000000000000602082015250565b6000613c69602983612b8c565b9150613c7482613c0d565b604082019050919050565b60006020820190508181036000830152613c9881613c5c565b9050919050565b7f4552433732313a207472616e7366657220746f20746865207a65726f2061646460008201527f7265737300000000000000000000000000000000000000000000000000000000602082015250565b6000613cfb602483612b8c565b9150613d0682613c9f565b604082019050919050565b60006020820190508181036000830152613d2a81613cee565b9050919050565b6000613d3c82612c3c565b9150613d4783612c3c565b925082821015613d5a57613d59613344565b5b828203905092915050565b7f4552433732313a20617070726f766520746f2063616c6c657200000000000000600082015250565b6000613d9b601983612b8c565b9150613da682613d65565b602082019050919050565b60006020820190508181036000830152613dca81613d8e565b9050919050565b7f4552433732313a207472616e7366657220746f206e6f6e20455243373231526560008201527f63656976657220696d706c656d656e7465720000000000000000000000000000602082015250565b6000613e2d603283612b8c565b9150613e3882613dd1565b604082019050919050565b60006020820190508181036000830152613e5c81613e20565b9050919050565b7f4e487b7100000000000000000000000000000000000000000000000000000000600052601260045260246000fd5b6000613e9d82612c3c565b9150613ea883612c3c565b925082613eb857613eb7613e63565b5b828204905092915050565b6000613ece82612c3c565b9150613ed983612c3c565b925082613ee957613ee8613e63565b5b828206905092915050565b600081519050919050565b600082825260208201905092915050565b6000613f1b82613ef4565b613f258185613eff565b9350613f35818560208601612b9d565b613f3e81612bd0565b840191505092915050565b6000608082019050613f5e6000830187612c9f565b613f6b6020830186612c9f565b613f786040830185612d09565b8181036060830152613f8a8184613f10565b905095945050505050565b600081519050613fa481612a67565b92915050565b600060208284031215613fc057613fbf612a31565b5b6000613fce84828501613f95565b91505092915050565b7f4552433732313a206d696e7420746f20746865207a65726f2061646472657373600082015250565b600061400d602083612b8c565b915061401882613fd7565b602082019050919050565b6000602082019050818103600083015261403c81614000565b9050919050565b7f4552433732313a20746f6b656e20616c7265616479206d696e74656400000000600082015250565b6000614079601c83612b8c565b915061408482614043565b602082019050919050565b600060208201905081810360008301526140a88161406c565b9050919050565b7f4e487b7100000000000000000000000000000000000000000000000000000000600052603160045260246000fdfea264697066735822122044a2c3e89be4118164c938f7e8f3f87fd6fb7160a81084c7197dbc917ccb014664736f6c634300080b0033",
  "immutableReferences": {},
  "source": "// SPDX-License-Identifier: MIT\npragma solidity 0.8.11;\n\nimport \"@openzeppelin/contracts/token/ERC721/extensions/ERC721Enumerable.sol\";\nimport \"@openzeppelin/contracts/access/Ownable.sol\";\n\ncontract LeafNft is ERC721Enumerable, Ownable {\n  using Strings for uint;\n\n  /// @dev uri of ipfs\n  string baseURI;\n  string baseExtension = \".json\";\n\n  /// @dev supply of first level\n  uint firstLevelSupply;\n\n  /// @dev ids of nft, maximum 4 for each address (ex: 27, 10027, 20027, 30027)\n  mapping(address => uint[]) idsNft;\n\n  /// @dev mint first 10 NFTs with NFT levels for owner\n  /// @param _name name of token ERC721\n  /// @param _symbol symbol of token ERC721\n  /// @param _initBaseURI base URI of ipfs files\n  constructor(\n    string memory _name,\n    string memory _symbol,\n    string memory _initBaseURI\n  ) ERC721(_name, _symbol) {\n    setBaseURI(_initBaseURI);\n    mintOwner(1);\n  }\n\n  /// @dev player receives his first NFT\n  /// @param _to receiver address\n  /// @return minted NFT ipfs address\n  function firstMint(address _to) external onlyOwner returns(string memory)  {\n    require(_to != address(0), \"LeafNFT : must not be equal to address 0\");\n    require(idsNft[_to].length == 0, \"LeafNFT : has already done first mint\");\n\n    firstLevelSupply++;\n    _safeMint(_to, firstLevelSupply);\n    idsNft[_to].push(firstLevelSupply);\n\n    return tokenURIIpfs(firstLevelSupply);\n  }\n\n  /// @dev player receives his auther NFTs\n  /// @param _to receiver address\n  /// @param _level new NFT level, can be 10000, 20000 or 30000\n  /// @return minted NFT ipfs address\n  function nextMint(address _to, uint _level) external onlyOwner returns(string memory)  {\n    uint id = idsNft[_to][0];\n    require(id != 0);\n\n    uint newNftId = id + _level;\n    _safeMint(_to, newNftId);\n    idsNft[_to].push(newNftId);\n\n    return tokenURIIpfs(newNftId);\n  }\n\n  /// @dev mint _nbNft NFTs of each level for owner\n  /// @param _nbNft number of mint of each level\n  function mintOwner(uint _nbNft) public onlyOwner {\n    require(_nbNft > 0);\n\n    for (uint i = 1; i <= _nbNft; i++) {\n      firstLevelSupply++;\n      _safeMint(msg.sender, firstLevelSupply);\n    }\n    for (uint i = 10001; i <= 10000 + _nbNft; i++) {\n      _safeMint(msg.sender, i);\n    }\n    for (uint i = 20001; i <= 20000 + _nbNft; i++) {\n      _safeMint(msg.sender, i);\n    }\n    for (uint i = 30001; i <= 30000 + _nbNft; i++) {\n      _safeMint(msg.sender, i);\n    }\n  }\n\n  /// @dev ex: nftId = 45 => ipfs://BASE_URI/45.json\n  /// @param _nftId identifier of token ERC721\n  /// @return send json file link in ipfs \n  function tokenURIIpfs(uint _nftId) internal view returns (string memory) {\n    require(_exists(_nftId));\n\n    string memory currentBaseURI = _baseURI();\n    return bytes(currentBaseURI).length > 0\n        ? string(abi.encodePacked(currentBaseURI, _nftId.toString(), baseExtension))\n        : \"\";\n  }\n\n  /// @return return base uri\n  function _baseURI() internal view virtual override returns (string memory) {\n    return baseURI;\n  }\n\n  /// @dev for players the table can contain a maximum of 4 elements, for owner more\n  /// @param _address a player address\n  /// @return return list of identifiers of _address\n  function getIdsNftByAddress(address _address) external view onlyOwner returns(uint[] memory) {\n    return idsNft[_address]; \n  }\n\n  /// @dev change base URL by _newBaseURI\n  /// @param _newBaseURI new base URI\n  function setBaseURI(string memory _newBaseURI) public onlyOwner {\n    baseURI = _newBaseURI;\n  }\n\n  /// @dev change base extension .json by _newBaseExtension\n  /// @param _newBaseExtension new base extension\n  function setBaseExtension(string memory _newBaseExtension) external onlyOwner {\n    baseExtension = _newBaseExtension;\n  }\n\n  /// @dev return parameter firstLevelSupply\n  /// @return firstLevelSupply\n  function getSupply() external view  onlyOwner returns(uint) {\n    return firstLevelSupply;\n  }\n\n}\n",
  "sourcePath": "/Users/nicolasvilla/leaf_owner/contracts/LeafNft.sol",
  "compiler": {
    "name": "solc",
    "version": "0.8.11+commit.d7f03943.Emscripten.clang"
  },
  "schemaVersion": "3.4.3",
  "updatedAt": "2022-01-20T16:39:47.586Z",
  "networkType": "ethereum",
  "devdoc": {
    "kind": "dev",
    "methods": {
      "approve(address,uint256)": {
        "details": "See {IERC721-approve}."
      },
      "balanceOf(address)": {
        "details": "See {IERC721-balanceOf}."
      },
      "constructor": {
        "details": "mint first 10 NFTs with NFT levels for owner",
        "params": {
          "_initBaseURI": "base URI of ipfs files",
          "_name": "name of token ERC721",
          "_symbol": "symbol of token ERC721"
        }
      },
      "firstMint(address)": {
        "details": "player receives his first NFT",
        "params": {
          "_to": "receiver address"
        },
        "returns": {
          "_0": "minted NFT ipfs address"
        }
      },
      "getApproved(uint256)": {
        "details": "See {IERC721-getApproved}."
      },
      "getIdsNftByAddress(address)": {
        "details": "for players the table can contain a maximum of 4 elements, for owner more",
        "params": {
          "_address": "a player address"
        },
        "returns": {
          "_0": "return list of identifiers of _address"
        }
      },
      "getSupply()": {
        "details": "return parameter firstLevelSupply",
        "returns": {
          "_0": "firstLevelSupply"
        }
      },
      "isApprovedForAll(address,address)": {
        "details": "See {IERC721-isApprovedForAll}."
      },
      "mintOwner(uint256)": {
        "details": "mint _nbNft NFTs of each level for owner",
        "params": {
          "_nbNft": "number of mint of each level"
        }
      },
      "name()": {
        "details": "See {IERC721Metadata-name}."
      },
      "nextMint(address,uint256)": {
        "details": "player receives his auther NFTs",
        "params": {
          "_level": "new NFT level, can be 10000, 20000 or 30000",
          "_to": "receiver address"
        },
        "returns": {
          "_0": "minted NFT ipfs address"
        }
      },
      "owner()": {
        "details": "Returns the address of the current owner."
      },
      "ownerOf(uint256)": {
        "details": "See {IERC721-ownerOf}."
      },
      "renounceOwnership()": {
        "details": "Leaves the contract without owner. It will not be possible to call `onlyOwner` functions anymore. Can only be called by the current owner. NOTE: Renouncing ownership will leave the contract without an owner, thereby removing any functionality that is only available to the owner."
      },
      "safeTransferFrom(address,address,uint256)": {
        "details": "See {IERC721-safeTransferFrom}."
      },
      "safeTransferFrom(address,address,uint256,bytes)": {
        "details": "See {IERC721-safeTransferFrom}."
      },
      "setApprovalForAll(address,bool)": {
        "details": "See {IERC721-setApprovalForAll}."
      },
      "setBaseExtension(string)": {
        "details": "change base extension .json by _newBaseExtension",
        "params": {
          "_newBaseExtension": "new base extension"
        }
      },
      "setBaseURI(string)": {
        "details": "change base URL by _newBaseURI",
        "params": {
          "_newBaseURI": "new base URI"
        }
      },
      "supportsInterface(bytes4)": {
        "details": "See {IERC165-supportsInterface}."
      },
      "symbol()": {
        "details": "See {IERC721Metadata-symbol}."
      },
      "tokenByIndex(uint256)": {
        "details": "See {IERC721Enumerable-tokenByIndex}."
      },
      "tokenOfOwnerByIndex(address,uint256)": {
        "details": "See {IERC721Enumerable-tokenOfOwnerByIndex}."
      },
      "tokenURI(uint256)": {
        "details": "See {IERC721Metadata-tokenURI}."
      },
      "totalSupply()": {
        "details": "See {IERC721Enumerable-totalSupply}."
      },
      "transferFrom(address,address,uint256)": {
        "details": "See {IERC721-transferFrom}."
      },
      "transferOwnership(address)": {
        "details": "Transfers ownership of the contract to a new account (`newOwner`). Can only be called by the current owner."
      }
    },
    "stateVariables": {
      "baseURI": {
        "details": "uri of ipfs"
      },
      "firstLevelSupply": {
        "details": "supply of first level"
      },
      "idsNft": {
        "details": "ids of nft, maximum 4 for each address (ex: 27, 10027, 20027, 30027)"
      }
    },
    "version": 1
  },
  "userdoc": {
    "kind": "user",
    "methods": {},
    "version": 1
  }
}