{
  "contractName": "LEAF",
  "abi": [
    {
      "inputs": [
        {
          "internalType": "uint256",
          "name": "_totalSupply",
          "type": "uint256"
        }
      ],
      "stateMutability": "nonpayable",
      "type": "constructor"
    },
    {
      "anonymous": false,
      "inputs": [
        {
          "indexed": true,
          "internalType": "address",
          "name": "owner",
          "type": "address"
        },
        {
          "indexed": true,
          "internalType": "address",
          "name": "spender",
          "type": "address"
        },
        {
          "indexed": false,
          "internalType": "uint256",
          "name": "value",
          "type": "uint256"
        }
      ],
      "name": "Approval",
      "type": "event"
    },
    {
      "anonymous": false,
      "inputs": [
        {
          "indexed": true,
          "internalType": "address",
          "name": "previousOwner",
          "type": "address"
        },
        {
          "indexed": true,
          "internalType": "address",
          "name": "newOwner",
          "type": "address"
        }
      ],
      "name": "OwnershipTransferred",
      "type": "event"
    },
    {
      "anonymous": false,
      "inputs": [
        {
          "indexed": true,
          "internalType": "address",
          "name": "from",
          "type": "address"
        },
        {
          "indexed": true,
          "internalType": "address",
          "name": "to",
          "type": "address"
        },
        {
          "indexed": false,
          "internalType": "uint256",
          "name": "value",
          "type": "uint256"
        }
      ],
      "name": "Transfer",
      "type": "event"
    },
    {
      "inputs": [
        {
          "internalType": "address",
          "name": "owner",
          "type": "address"
        },
        {
          "internalType": "address",
          "name": "spender",
          "type": "address"
        }
      ],
      "name": "allowance",
      "outputs": [
        {
          "internalType": "uint256",
          "name": "",
          "type": "uint256"
        }
      ],
      "stateMutability": "view",
      "type": "function"
    },
    {
      "inputs": [
        {
          "internalType": "address",
          "name": "spender",
          "type": "address"
        },
        {
          "internalType": "uint256",
          "name": "amount",
          "type": "uint256"
        }
      ],
      "name": "approve",
      "outputs": [
        {
          "internalType": "bool",
          "name": "",
          "type": "bool"
        }
      ],
      "stateMutability": "nonpayable",
      "type": "function"
    },
    {
      "inputs": [
        {
          "internalType": "address",
          "name": "account",
          "type": "address"
        }
      ],
      "name": "balanceOf",
      "outputs": [
        {
          "internalType": "uint256",
          "name": "",
          "type": "uint256"
        }
      ],
      "stateMutability": "view",
      "type": "function"
    },
    {
      "inputs": [],
      "name": "decimals",
      "outputs": [
        {
          "internalType": "uint8",
          "name": "",
          "type": "uint8"
        }
      ],
      "stateMutability": "view",
      "type": "function"
    },
    {
      "inputs": [
        {
          "internalType": "address",
          "name": "spender",
          "type": "address"
        },
        {
          "internalType": "uint256",
          "name": "subtractedValue",
          "type": "uint256"
        }
      ],
      "name": "decreaseAllowance",
      "outputs": [
        {
          "internalType": "bool",
          "name": "",
          "type": "bool"
        }
      ],
      "stateMutability": "nonpayable",
      "type": "function"
    },
    {
      "inputs": [
        {
          "internalType": "address",
          "name": "spender",
          "type": "address"
        },
        {
          "internalType": "uint256",
          "name": "addedValue",
          "type": "uint256"
        }
      ],
      "name": "increaseAllowance",
      "outputs": [
        {
          "internalType": "bool",
          "name": "",
          "type": "bool"
        }
      ],
      "stateMutability": "nonpayable",
      "type": "function"
    },
    {
      "inputs": [],
      "name": "mintOnce",
      "outputs": [
        {
          "internalType": "bool",
          "name": "",
          "type": "bool"
        }
      ],
      "stateMutability": "view",
      "type": "function"
    },
    {
      "inputs": [],
      "name": "name",
      "outputs": [
        {
          "internalType": "string",
          "name": "",
          "type": "string"
        }
      ],
      "stateMutability": "view",
      "type": "function"
    },
    {
      "inputs": [],
      "name": "owner",
      "outputs": [
        {
          "internalType": "address",
          "name": "",
          "type": "address"
        }
      ],
      "stateMutability": "view",
      "type": "function"
    },
    {
      "inputs": [],
      "name": "renounceOwnership",
      "outputs": [],
      "stateMutability": "nonpayable",
      "type": "function"
    },
    {
      "inputs": [],
      "name": "symbol",
      "outputs": [
        {
          "internalType": "string",
          "name": "",
          "type": "string"
        }
      ],
      "stateMutability": "view",
      "type": "function"
    },
    {
      "inputs": [],
      "name": "totalLeaf",
      "outputs": [
        {
          "internalType": "uint256",
          "name": "",
          "type": "uint256"
        }
      ],
      "stateMutability": "view",
      "type": "function"
    },
    {
      "inputs": [],
      "name": "totalSupply",
      "outputs": [
        {
          "internalType": "uint256",
          "name": "",
          "type": "uint256"
        }
      ],
      "stateMutability": "view",
      "type": "function"
    },
    {
      "inputs": [
        {
          "internalType": "address",
          "name": "recipient",
          "type": "address"
        },
        {
          "internalType": "uint256",
          "name": "amount",
          "type": "uint256"
        }
      ],
      "name": "transfer",
      "outputs": [
        {
          "internalType": "bool",
          "name": "",
          "type": "bool"
        }
      ],
      "stateMutability": "nonpayable",
      "type": "function"
    },
    {
      "inputs": [
        {
          "internalType": "address",
          "name": "sender",
          "type": "address"
        },
        {
          "internalType": "address",
          "name": "recipient",
          "type": "address"
        },
        {
          "internalType": "uint256",
          "name": "amount",
          "type": "uint256"
        }
      ],
      "name": "transferFrom",
      "outputs": [
        {
          "internalType": "bool",
          "name": "",
          "type": "bool"
        }
      ],
      "stateMutability": "nonpayable",
      "type": "function"
    },
    {
      "inputs": [
        {
          "internalType": "address",
          "name": "newOwner",
          "type": "address"
        }
      ],
      "name": "transferOwnership",
      "outputs": [],
      "stateMutability": "nonpayable",
      "type": "function"
    },
    {
      "inputs": [],
      "name": "mint",
      "outputs": [],
      "stateMutability": "nonpayable",
      "type": "function"
    },
    {
      "inputs": [
        {
          "internalType": "uint256",
          "name": "amount",
          "type": "uint256"
        }
      ],
      "name": "burn",
      "outputs": [],
      "stateMutability": "nonpayable",
      "type": "function"
    }
  ],
  "bytecode": "0x60806040523480156200001157600080fd5b506040516200239b3803806200239b8339818101604052810190620000379190620002c3565b6040518060400160405280600a81526020017f546f6b656e204c656166000000000000000000000000000000000000000000008152506040518060400160405280600481526020017f4c454146000000000000000000000000000000000000000000000000000000008152508160039080519060200190620000bb929190620001d3565b508060049080519060200190620000d4929190620001d3565b505050620000f7620000eb6200010560201b60201c565b6200010d60201b60201c565b80600681905550506200035a565b600033905090565b6000600560009054906101000a900473ffffffffffffffffffffffffffffffffffffffff16905081600560006101000a81548173ffffffffffffffffffffffffffffffffffffffff021916908373ffffffffffffffffffffffffffffffffffffffff1602179055508173ffffffffffffffffffffffffffffffffffffffff168173ffffffffffffffffffffffffffffffffffffffff167f8be0079c531659141344cd1fd0a4f28419497f9722a3daafe3b4186f6b6457e060405160405180910390a35050565b828054620001e19062000324565b90600052602060002090601f01602090048101928262000205576000855562000251565b82601f106200022057805160ff191683800117855562000251565b8280016001018555821562000251579182015b828111156200025057825182559160200191906001019062000233565b5b50905062000260919062000264565b5090565b5b808211156200027f57600081600090555060010162000265565b5090565b600080fd5b6000819050919050565b6200029d8162000288565b8114620002a957600080fd5b50565b600081519050620002bd8162000292565b92915050565b600060208284031215620002dc57620002db62000283565b5b6000620002ec84828501620002ac565b91505092915050565b7f4e487b7100000000000000000000000000000000000000000000000000000000600052602260045260246000fd5b600060028204905060018216806200033d57607f821691505b60208210811415620003545762000353620002f5565b5b50919050565b612031806200036a6000396000f3fe608060405234801561001057600080fd5b50600436106101165760003560e01c806370a08231116100a2578063a457c2d711610071578063a457c2d7146102bf578063a9059cbb146102ef578063dd62ed3e1461031f578063f2fde38b1461034f578063f3d7b5cf1461036b57610116565b806370a0823114610249578063715018a6146102795780638da5cb5b1461028357806395d89b41146102a157610116565b806323b872dd116100e957806323b872dd14610191578063313ce567146101c157806339509351146101df57806342966c681461020f5780636bdfbb351461022b57610116565b806306fdde031461011b578063095ea7b3146101395780631249c58b1461016957806318160ddd14610173575b600080fd5b610123610389565b60405161013091906114d4565b60405180910390f35b610153600480360381019061014e919061158f565b61041b565b60405161016091906115ea565b60405180910390f35b610171610439565b005b61017b61052e565b6040516101889190611614565b60405180910390f35b6101ab60048036038101906101a6919061162f565b610538565b6040516101b891906115ea565b60405180910390f35b6101c9610630565b6040516101d6919061169e565b60405180910390f35b6101f960048036038101906101f4919061158f565b610639565b60405161020691906115ea565b60405180910390f35b610229600480360381019061022491906116b9565b6106e5565b005b6102336107b3565b60405161024091906115ea565b60405180910390f35b610263600480360381019061025e91906116e6565b6107c6565b6040516102709190611614565b60405180910390f35b61028161080e565b005b61028b610896565b6040516102989190611722565b60405180910390f35b6102a96108c0565b6040516102b691906114d4565b60405180910390f35b6102d960048036038101906102d4919061158f565b610952565b6040516102e691906115ea565b60405180910390f35b6103096004803603810190610304919061158f565b610a3d565b60405161031691906115ea565b60405180910390f35b6103396004803603810190610334919061173d565b610a5b565b6040516103469190611614565b60405180910390f35b610369600480360381019061036491906116e6565b610ae2565b005b610373610bda565b6040516103809190611614565b60405180910390f35b606060038054610398906117ac565b80601f01602080910402602001604051908101604052809291908181526020018280546103c4906117ac565b80156104115780601f106103e657610100808354040283529160200191610411565b820191906000526020600020905b8154815290600101906020018083116103f457829003601f168201915b5050505050905090565b600061042f610428610be0565b8484610be8565b6001905092915050565b610441610be0565b73ffffffffffffffffffffffffffffffffffffffff1661045f610896565b73ffffffffffffffffffffffffffffffffffffffff16146104b5576040517f08c379a00000000000000000000000000000000000000000000000000000000081526004016104ac9061182a565b60405180910390fd5b600760009054906101000a900460ff1615610505576040517f08c379a00000000000000000000000000000000000000000000000000000000081526004016104fc90611896565b60405180910390fd5b61051133600654610db3565b6001600760006101000a81548160ff021916908315150217905550565b6000600254905090565b6000610545848484610f13565b6000600160008673ffffffffffffffffffffffffffffffffffffffff1673ffffffffffffffffffffffffffffffffffffffff1681526020019081526020016000206000610590610be0565b73ffffffffffffffffffffffffffffffffffffffff1673ffffffffffffffffffffffffffffffffffffffff16815260200190815260200160002054905082811015610610576040517f08c379a000000000000000000000000000000000000000000000000000000000815260040161060790611928565b60405180910390fd5b6106248561061c610be0565b858403610be8565b60019150509392505050565b60006012905090565b60006106db610646610be0565b848460016000610654610be0565b73ffffffffffffffffffffffffffffffffffffffff1673ffffffffffffffffffffffffffffffffffffffff16815260200190815260200160002060008873ffffffffffffffffffffffffffffffffffffffff1673ffffffffffffffffffffffffffffffffffffffff168152602001908152602001600020546106d69190611977565b610be8565b6001905092915050565b6106ed610be0565b73ffffffffffffffffffffffffffffffffffffffff1661070b610896565b73ffffffffffffffffffffffffffffffffffffffff1614610761576040517f08c379a00000000000000000000000000000000000000000000000000000000081526004016107589061182a565b60405180910390fd5b6006548111156107a6576040517f08c379a000000000000000000000000000000000000000000000000000000000815260040161079d90611a19565b60405180910390fd5b6107b03382611194565b50565b600760009054906101000a900460ff1681565b60008060008373ffffffffffffffffffffffffffffffffffffffff1673ffffffffffffffffffffffffffffffffffffffff168152602001908152602001600020549050919050565b610816610be0565b73ffffffffffffffffffffffffffffffffffffffff16610834610896565b73ffffffffffffffffffffffffffffffffffffffff161461088a576040517f08c379a00000000000000000000000000000000000000000000000000000000081526004016108819061182a565b60405180910390fd5b610894600061136b565b565b6000600560009054906101000a900473ffffffffffffffffffffffffffffffffffffffff16905090565b6060600480546108cf906117ac565b80601f01602080910402602001604051908101604052809291908181526020018280546108fb906117ac565b80156109485780601f1061091d57610100808354040283529160200191610948565b820191906000526020600020905b81548152906001019060200180831161092b57829003601f168201915b5050505050905090565b60008060016000610961610be0565b73ffffffffffffffffffffffffffffffffffffffff1673ffffffffffffffffffffffffffffffffffffffff16815260200190815260200160002060008573ffffffffffffffffffffffffffffffffffffffff1673ffffffffffffffffffffffffffffffffffffffff16815260200190815260200160002054905082811015610a1e576040517f08c379a0000000000000000000000000000000000000000000000000000000008152600401610a1590611aab565b60405180910390fd5b610a32610a29610be0565b85858403610be8565b600191505092915050565b6000610a51610a4a610be0565b8484610f13565b6001905092915050565b6000600160008473ffffffffffffffffffffffffffffffffffffffff1673ffffffffffffffffffffffffffffffffffffffff16815260200190815260200160002060008373ffffffffffffffffffffffffffffffffffffffff1673ffffffffffffffffffffffffffffffffffffffff16815260200190815260200160002054905092915050565b610aea610be0565b73ffffffffffffffffffffffffffffffffffffffff16610b08610896565b73ffffffffffffffffffffffffffffffffffffffff1614610b5e576040517f08c379a0000000000000000000000000000000000000000000000000000000008152600401610b559061182a565b60405180910390fd5b600073ffffffffffffffffffffffffffffffffffffffff168173ffffffffffffffffffffffffffffffffffffffff161415610bce576040517f08c379a0000000000000000000000000000000000000000000000000000000008152600401610bc590611b3d565b60405180910390fd5b610bd78161136b565b50565b60065481565b600033905090565b600073ffffffffffffffffffffffffffffffffffffffff168373ffffffffffffffffffffffffffffffffffffffff161415610c58576040517f08c379a0000000000000000000000000000000000000000000000000000000008152600401610c4f90611bcf565b60405180910390fd5b600073ffffffffffffffffffffffffffffffffffffffff168273ffffffffffffffffffffffffffffffffffffffff161415610cc8576040517f08c379a0000000000000000000000000000000000000000000000000000000008152600401610cbf90611c61565b60405180910390fd5b80600160008573ffffffffffffffffffffffffffffffffffffffff1673ffffffffffffffffffffffffffffffffffffffff16815260200190815260200160002060008473ffffffffffffffffffffffffffffffffffffffff1673ffffffffffffffffffffffffffffffffffffffff168152602001908152602001600020819055508173ffffffffffffffffffffffffffffffffffffffff168373ffffffffffffffffffffffffffffffffffffffff167f8c5be1e5ebec7d5bd14f71427d1e84f3dd0314c0f7b2291e5b200ac8c7c3b92583604051610da69190611614565b60405180910390a3505050565b600073ffffffffffffffffffffffffffffffffffffffff168273ffffffffffffffffffffffffffffffffffffffff161415610e23576040517f08c379a0000000000000000000000000000000000000000000000000000000008152600401610e1a90611ccd565b60405180910390fd5b610e2f60008383611431565b8060026000828254610e419190611977565b92505081905550806000808473ffffffffffffffffffffffffffffffffffffffff1673ffffffffffffffffffffffffffffffffffffffff1681526020019081526020016000206000828254610e969190611977565b925050819055508173ffffffffffffffffffffffffffffffffffffffff16600073ffffffffffffffffffffffffffffffffffffffff167fddf252ad1be2c89b69c2b068fc378daa952ba7f163c4a11628f55a4df523b3ef83604051610efb9190611614565b60405180910390a3610f0f60008383611436565b5050565b600073ffffffffffffffffffffffffffffffffffffffff168373ffffffffffffffffffffffffffffffffffffffff161415610f83576040517f08c379a0000000000000000000000000000000000000000000000000000000008152600401610f7a90611d5f565b60405180910390fd5b600073ffffffffffffffffffffffffffffffffffffffff168273ffffffffffffffffffffffffffffffffffffffff161415610ff3576040517f08c379a0000000000000000000000000000000000000000000000000000000008152600401610fea90611df1565b60405180910390fd5b610ffe838383611431565b60008060008573ffffffffffffffffffffffffffffffffffffffff1673ffffffffffffffffffffffffffffffffffffffff16815260200190815260200160002054905081811015611084576040517f08c379a000000000000000000000000000000000000000000000000000000000815260040161107b90611e83565b60405180910390fd5b8181036000808673ffffffffffffffffffffffffffffffffffffffff1673ffffffffffffffffffffffffffffffffffffffff16815260200190815260200160002081905550816000808573ffffffffffffffffffffffffffffffffffffffff1673ffffffffffffffffffffffffffffffffffffffff16815260200190815260200160002060008282546111179190611977565b925050819055508273ffffffffffffffffffffffffffffffffffffffff168473ffffffffffffffffffffffffffffffffffffffff167fddf252ad1be2c89b69c2b068fc378daa952ba7f163c4a11628f55a4df523b3ef8460405161117b9190611614565b60405180910390a361118e848484611436565b50505050565b600073ffffffffffffffffffffffffffffffffffffffff168273ffffffffffffffffffffffffffffffffffffffff161415611204576040517f08c379a00000000000000000000000000000000000000000000000000000000081526004016111fb90611f15565b60405180910390fd5b61121082600083611431565b60008060008473ffffffffffffffffffffffffffffffffffffffff1673ffffffffffffffffffffffffffffffffffffffff16815260200190815260200160002054905081811015611296576040517f08c379a000000000000000000000000000000000000000000000000000000000815260040161128d90611fa7565b60405180910390fd5b8181036000808573ffffffffffffffffffffffffffffffffffffffff1673ffffffffffffffffffffffffffffffffffffffff1681526020019081526020016000208190555081600260008282546112ed9190611fc7565b92505081905550600073ffffffffffffffffffffffffffffffffffffffff168373ffffffffffffffffffffffffffffffffffffffff167fddf252ad1be2c89b69c2b068fc378daa952ba7f163c4a11628f55a4df523b3ef846040516113529190611614565b60405180910390a361136683600084611436565b505050565b6000600560009054906101000a900473ffffffffffffffffffffffffffffffffffffffff16905081600560006101000a81548173ffffffffffffffffffffffffffffffffffffffff021916908373ffffffffffffffffffffffffffffffffffffffff1602179055508173ffffffffffffffffffffffffffffffffffffffff168173ffffffffffffffffffffffffffffffffffffffff167f8be0079c531659141344cd1fd0a4f28419497f9722a3daafe3b4186f6b6457e060405160405180910390a35050565b505050565b505050565b600081519050919050565b600082825260208201905092915050565b60005b8381101561147557808201518184015260208101905061145a565b83811115611484576000848401525b50505050565b6000601f19601f8301169050919050565b60006114a68261143b565b6114b08185611446565b93506114c0818560208601611457565b6114c98161148a565b840191505092915050565b600060208201905081810360008301526114ee818461149b565b905092915050565b600080fd5b600073ffffffffffffffffffffffffffffffffffffffff82169050919050565b6000611526826114fb565b9050919050565b6115368161151b565b811461154157600080fd5b50565b6000813590506115538161152d565b92915050565b6000819050919050565b61156c81611559565b811461157757600080fd5b50565b60008135905061158981611563565b92915050565b600080604083850312156115a6576115a56114f6565b5b60006115b485828601611544565b92505060206115c58582860161157a565b9150509250929050565b60008115159050919050565b6115e4816115cf565b82525050565b60006020820190506115ff60008301846115db565b92915050565b61160e81611559565b82525050565b60006020820190506116296000830184611605565b92915050565b600080600060608486031215611648576116476114f6565b5b600061165686828701611544565b935050602061166786828701611544565b92505060406116788682870161157a565b9150509250925092565b600060ff82169050919050565b61169881611682565b82525050565b60006020820190506116b3600083018461168f565b92915050565b6000602082840312156116cf576116ce6114f6565b5b60006116dd8482850161157a565b91505092915050565b6000602082840312156116fc576116fb6114f6565b5b600061170a84828501611544565b91505092915050565b61171c8161151b565b82525050565b60006020820190506117376000830184611713565b92915050565b60008060408385031215611754576117536114f6565b5b600061176285828601611544565b925050602061177385828601611544565b9150509250929050565b7f4e487b7100000000000000000000000000000000000000000000000000000000600052602260045260246000fd5b600060028204905060018216806117c457607f821691505b602082108114156117d8576117d761177d565b5b50919050565b7f4f776e61626c653a2063616c6c6572206973206e6f7420746865206f776e6572600082015250565b6000611814602083611446565b915061181f826117de565b602082019050919050565b6000602082019050818103600083015261184381611807565b9050919050565b7f4c4541463a20796f752063616e206d696e74206f6e6365000000000000000000600082015250565b6000611880601783611446565b915061188b8261184a565b602082019050919050565b600060208201905081810360008301526118af81611873565b9050919050565b7f45524332303a207472616e7366657220616d6f756e742065786365656473206160008201527f6c6c6f77616e6365000000000000000000000000000000000000000000000000602082015250565b6000611912602883611446565b915061191d826118b6565b604082019050919050565b6000602082019050818103600083015261194181611905565b9050919050565b7f4e487b7100000000000000000000000000000000000000000000000000000000600052601160045260246000fd5b600061198282611559565b915061198d83611559565b9250827fffffffffffffffffffffffffffffffffffffffffffffffffffffffffffffffff038211156119c2576119c1611948565b5b828201905092915050565b7f4c4541463a2063616e74206275726e0000000000000000000000000000000000600082015250565b6000611a03600f83611446565b9150611a0e826119cd565b602082019050919050565b60006020820190508181036000830152611a32816119f6565b9050919050565b7f45524332303a2064656372656173656420616c6c6f77616e63652062656c6f7760008201527f207a65726f000000000000000000000000000000000000000000000000000000602082015250565b6000611a95602583611446565b9150611aa082611a39565b604082019050919050565b60006020820190508181036000830152611ac481611a88565b9050919050565b7f4f776e61626c653a206e6577206f776e657220697320746865207a65726f206160008201527f6464726573730000000000000000000000000000000000000000000000000000602082015250565b6000611b27602683611446565b9150611b3282611acb565b604082019050919050565b60006020820190508181036000830152611b5681611b1a565b9050919050565b7f45524332303a20617070726f76652066726f6d20746865207a65726f2061646460008201527f7265737300000000000000000000000000000000000000000000000000000000602082015250565b6000611bb9602483611446565b9150611bc482611b5d565b604082019050919050565b60006020820190508181036000830152611be881611bac565b9050919050565b7f45524332303a20617070726f766520746f20746865207a65726f20616464726560008201527f7373000000000000000000000000000000000000000000000000000000000000602082015250565b6000611c4b602283611446565b9150611c5682611bef565b604082019050919050565b60006020820190508181036000830152611c7a81611c3e565b9050919050565b7f45524332303a206d696e7420746f20746865207a65726f206164647265737300600082015250565b6000611cb7601f83611446565b9150611cc282611c81565b602082019050919050565b60006020820190508181036000830152611ce681611caa565b9050919050565b7f45524332303a207472616e736665722066726f6d20746865207a65726f20616460008201527f6472657373000000000000000000000000000000000000000000000000000000602082015250565b6000611d49602583611446565b9150611d5482611ced565b604082019050919050565b60006020820190508181036000830152611d7881611d3c565b9050919050565b7f45524332303a207472616e7366657220746f20746865207a65726f206164647260008201527f6573730000000000000000000000000000000000000000000000000000000000602082015250565b6000611ddb602383611446565b9150611de682611d7f565b604082019050919050565b60006020820190508181036000830152611e0a81611dce565b9050919050565b7f45524332303a207472616e7366657220616d6f756e742065786365656473206260008201527f616c616e63650000000000000000000000000000000000000000000000000000602082015250565b6000611e6d602683611446565b9150611e7882611e11565b604082019050919050565b60006020820190508181036000830152611e9c81611e60565b9050919050565b7f45524332303a206275726e2066726f6d20746865207a65726f2061646472657360008201527f7300000000000000000000000000000000000000000000000000000000000000602082015250565b6000611eff602183611446565b9150611f0a82611ea3565b604082019050919050565b60006020820190508181036000830152611f2e81611ef2565b9050919050565b7f45524332303a206275726e20616d6f756e7420657863656564732062616c616e60008201527f6365000000000000000000000000000000000000000000000000000000000000602082015250565b6000611f91602283611446565b9150611f9c82611f35565b604082019050919050565b60006020820190508181036000830152611fc081611f84565b9050919050565b6000611fd282611559565b9150611fdd83611559565b925082821015611ff057611fef611948565b5b82820390509291505056fea2646970667358221220e04eb993bbf325c443ec31bb1d8336a3b130fe92b6b5f9e5356a24e32968a97264736f6c634300080a0033",
  "immutableReferences": {},
  "source": "// SPDX-License-Identifier: MIT\r\npragma solidity 0.8.10;\r\n\r\nimport \"@openzeppelin/contracts/token/ERC20/ERC20.sol\";\r\nimport \"@openzeppelin/contracts/access/Ownable.sol\";\r\n\r\ncontract LEAF is ERC20, Ownable {\r\n\r\n    uint public totalLeaf;\r\n    bool public mintOnce;\r\n\r\n    constructor(uint _totalSupply) ERC20(\"Token Leaf\", \"LEAF\") {\r\n        totalLeaf = _totalSupply;\r\n    }\r\n\r\n    /// @dev mint just once with total supply to owner (ContractLeaf) address \r\n    function mint(/* address dapp */) external onlyOwner {\r\n      require(!mintOnce, \"LEAF: you can mint once\");\r\n\r\n      // _mint(dapp, totalLeaf);\r\n      _mint(msg.sender, totalLeaf);\r\n\r\n      mintOnce = true;\r\n    }\r\n\r\n    /// @dev verification of amount/balance is done in _burn\r\n    function burn(uint amount) external onlyOwner{\r\n      require(amount <= totalLeaf, \"LEAF: cant burn\");\r\n      _burn(msg.sender, amount);\r\n    }\r\n}\r\n",
  "sourcePath": "C:\\Users\\Aram\\Desktop\\BLOCKCHAIN\\Alyra\\6_projet_final\\dapp_leaf\\contracts\\LEAF.sol",
  "compiler": {
    "name": "solc",
    "version": "0.8.10+commit.fc410830.Emscripten.clang"
  },
  "schemaVersion": "3.4.3",
  "updatedAt": "2022-01-05T13:53:38.237Z",
  "devdoc": {
    "kind": "dev",
    "methods": {
      "allowance(address,address)": {
        "details": "See {IERC20-allowance}."
      },
      "approve(address,uint256)": {
        "details": "See {IERC20-approve}. Requirements: - `spender` cannot be the zero address."
      },
      "balanceOf(address)": {
        "details": "See {IERC20-balanceOf}."
      },
      "burn(uint256)": {
        "details": "verification of amount/balance is done in _burn"
      },
      "decimals()": {
        "details": "Returns the number of decimals used to get its user representation. For example, if `decimals` equals `2`, a balance of `505` tokens should be displayed to a user as `5.05` (`505 / 10 ** 2`). Tokens usually opt for a value of 18, imitating the relationship between Ether and Wei. This is the value {ERC20} uses, unless this function is overridden; NOTE: This information is only used for _display_ purposes: it in no way affects any of the arithmetic of the contract, including {IERC20-balanceOf} and {IERC20-transfer}."
      },
      "decreaseAllowance(address,uint256)": {
        "details": "Atomically decreases the allowance granted to `spender` by the caller. This is an alternative to {approve} that can be used as a mitigation for problems described in {IERC20-approve}. Emits an {Approval} event indicating the updated allowance. Requirements: - `spender` cannot be the zero address. - `spender` must have allowance for the caller of at least `subtractedValue`."
      },
      "increaseAllowance(address,uint256)": {
        "details": "Atomically increases the allowance granted to `spender` by the caller. This is an alternative to {approve} that can be used as a mitigation for problems described in {IERC20-approve}. Emits an {Approval} event indicating the updated allowance. Requirements: - `spender` cannot be the zero address."
      },
      "mint()": {
        "details": "mint just once with total supply to owner (ContractLeaf) address "
      },
      "name()": {
        "details": "Returns the name of the token."
      },
      "owner()": {
        "details": "Returns the address of the current owner."
      },
      "renounceOwnership()": {
        "details": "Leaves the contract without owner. It will not be possible to call `onlyOwner` functions anymore. Can only be called by the current owner. NOTE: Renouncing ownership will leave the contract without an owner, thereby removing any functionality that is only available to the owner."
      },
      "symbol()": {
        "details": "Returns the symbol of the token, usually a shorter version of the name."
      },
      "totalSupply()": {
        "details": "See {IERC20-totalSupply}."
      },
      "transfer(address,uint256)": {
        "details": "See {IERC20-transfer}. Requirements: - `recipient` cannot be the zero address. - the caller must have a balance of at least `amount`."
      },
      "transferFrom(address,address,uint256)": {
        "details": "See {IERC20-transferFrom}. Emits an {Approval} event indicating the updated allowance. This is not required by the EIP. See the note at the beginning of {ERC20}. Requirements: - `sender` and `recipient` cannot be the zero address. - `sender` must have a balance of at least `amount`. - the caller must have allowance for ``sender``'s tokens of at least `amount`."
      },
      "transferOwnership(address)": {
        "details": "Transfers ownership of the contract to a new account (`newOwner`). Can only be called by the current owner."
      }
    },
    "version": 1
  },
  "userdoc": {
    "kind": "user",
    "methods": {},
    "version": 1
  }
}